:020000040800F2
:1000000048780120AD01000821220008A518000849
:10001000F5210008EB0F000855360008000000002D
:100020000000000000000000000000001728000889
:10003000D911000800000000C9220008B92B0008EF
:10004000C7010008C7010008C7010008C701000870
:10005000C7010008C7010008C70100083D160008D5
:10006000C7010008C7010008C7010008C701000850
:10007000C7010008C7010008C7010008C701000840
:10008000C7010008C7010008D30A0008C70100081B
:10009000C7010008C7010008C7010008C701000820
:1000A000C7010008C7010008C7010008C701000810
:1000B000B52D0008792E0008092F0008C701000897
:1000C000C7010008C7010008C70100083D25000856
:1000D000C7010008A5310008C7010008C7010008D2
:1000E000C7010008C7010008C7010008C7010008D0
:1000F000C7010008C7010008C7010008C7010008C0
:10010000C7010008C7010008C7010008C7010008AF
:10011000C7010008C7010008C7010008C70100089F
:10012000C7010008C7010008C7010008C70100088F
:10013000C7010008C7010008C7010008C70100087F
:10014000C7010008C7010008C7010008C70100086F
:10015000C7010008C7010008C7010008C70100085F
:10016000C7010008C7010008C7010008C70100084F
:10017000C7010008C7010008C7010008000000000F
:10018000C7010008C7010008C7010008C70100082F
:10019000C7010008DFF810D000F0E4FB004800477A
:1001A0009D4C0008AFF30080487801200648804746
:1001B00006480047FEE7FEE7FEE7FEE7FEE7FEE74C
:1001C000FEE7FEE7FEE7FEE7852C00089501000844
:1001D0002DE9F0410024061B254671F1000605DAE1
:1001E00001240027D0EB070067EB0101161E73F115
:1001F000000605DA0027D2EB0702012567EB0303AF
:1002000000F05CFA86460E4617469C46AC4204D087
:100210000025D0EB050E65EB010624B10020D2EBE2
:10022000000760EB030C704631463A466346BDE872
:10023000F08140EA01039B0703D009E008C9121FBF
:1002400008C0042AFAD203E011F8013B00F8013B90
:10025000521EF9D27047D2B201E000F8012B491EBC
:10026000FBD270470022F6E710B513460A46044653
:100270001946FFF7F0FF204610BD2DE9FE4F8046DE
:1002800081EA0300C00F0C46009021F0004123F0EA
:100290000045B8EB0200A94105D2404621469046F0
:1002A0001C460B46024623F00040104347D0270D62
:1002B000C7F30A00C3F30A510290401A0190402884
:1002C0006BDAC3F3130040F4801B0098924620B110
:1002D0000023D2EB030A63EB0B0B01985946C0F1E4
:1002E0004002504600F01BFA06460D46504659465D
:1002F000019A00F033FA10EB08006141002487EA0C
:10030000115284EAE7731A4340D0009A62B3019A0B
:10031000012A4FEA075215DC001B61EB02014FF086
:10032000004202EA0752CDE90042001C41F580116B
:1003300032462B4600F033FA03B0BDE8F08F40465A
:100340002146F9E7001B61EB0201001C41F5801317
:1003500000185B412018A2F5001747EB030140EAA3
:10036000D570B6196D4111E06D084FEA360645EAC1
:10037000C0754FEA0752001B61EB0201001C41F5FA
:10038000801149084FEA30000019514132462B468E
:1003900003B0BDE8F04F00F0F3B90098012240002F
:1003A0000023D0EB020263EBE073009821464FEA92
:1003B000E074B8EB000061EB0401E9E783F000436F
:1003C0005BE781F0004158E72DE9FE4F81EA030425
:1003D00004F0004421F0004100944FF0000B23F0A2
:1003E000004350EA01045ED052EA03045BD0C3F339
:1003F0000A54C1F30A552C44A4F2F3340194A0FB2F
:100400000254C1F3130141F48011C3F3130343F405
:10041000801301FB024400FB034E840A970A44EA5E
:10042000815447EA8357A4FB076802958D0A05FBB0
:1004300007854FEA932C04FB0C542705029D4FEAD5
:10044000065847EA1637B5EB08056EEB070C870E22
:10045000920E47EA811742EA8312A7FB0201B6EB2C
:100460000B0164EB00042B0D43EA0C335E1844EBE4
:100470001C50DA465146E7FB0201C5F313044FEA6C
:100480000B3343EA14534FEA0432019C43EA060358
:10049000A4F10C040294009CCDE900B400F07FF9B3
:1004A00003B0BDE8F08F00200146F9E72DE9F04DDB
:1004B00081EA030404F0004B21F0004514464FF09C
:1004C000000A23F0004150EA050220D054EA01025C
:1004D0001DD0C5F30A570246C5F31303C1F3130039
:1004E000C1F30A5640F4801543F48013A7EB0608C5
:1004F000101BD64608F2FD3873EB050002D308F155
:10050000010801E092185B41B8F1000F03DA002006
:100510000146BDE8F08D00204FF480110646844668
:100520000EE0171B73EB050705D3121B63EB0503E6
:1005300006434CEA010C49084FEA300092185B412F
:1005400050EA0107EDD152EA030012D082EA04001A
:1005500083EA0501084305D0101BAB4106D20122F6
:10056000002306E000224FF0004302E06FF001029A
:1005700053101AEB06004CEB085110EB0A0041EB4C
:100580000B01BDE8F04D00F0FBB870B521F0004361
:1005900003430CD0C1F30A550024D5EB040564EBEA
:1005A0000403D617AD1AB34102DB0020014670BD2B
:1005B000201841EB025170BD0EB5C10F80EAE0700A
:1005C0000844CA07002140F233438DE80E000A4672
:1005D0000B4600F0E4F803B000BD0EB540F2334125
:1005E00002910021CDE900110A460B4600F0D7F830
:1005F00003B000BD3EB5CA17CB0F00245040514098
:10060000C0186141DA0740F233430094CDE9012379
:100610002246234600F0C3F803B030BD70B5C1F3E5
:100620000A5201F000450024C1F3130140F2FF33E8
:1006300041F480119A4201DA002070BD40F2334348
:100640009A42A2F2334203DC524200F077F800E013
:1006500090402C43F1D0404270BD000030B5041EE4
:1006600071F1000404DB4FF00044404264EB0101EF
:10067000141E73F1000405DB1C464FF00043524288
:1006800063EB04038B4208BF824230BD30B5041EC9
:1006900071F1000404DB4FF00044404264EB0101BF
:1006A000141E73F1000405DB1C464FF00043524258
:1006B00063EB0403994208BF904230BD2DE9F05F1F
:1006C0000546002092469B468846064681464024C1
:1006D0001BE0284641464746224600F02FF8534685
:1006E0005A46C01A914110D311461846224600F0CE
:1006F00016F82D1A67EB01084F462246012000210B
:1007000000F00DF817EB00094E41201EA4F1010482
:10071000DFDC484631462A464346BDE8F09F202AA2
:1007200004DB203A00FA02F1002070479140C2F148
:10073000200320FA03F3194390407047202A04DB7A
:10074000203A21FA02F00021704721FA02F3D0404A
:10075000C2F120029140084319467047202A06DB67
:10076000CB17203A41FA02F043EAE07306E041FA7F
:1007700002F3D040C2F1200291400843194670476D
:1007800010B5141E73F1000408DA401C41F1000199
:1007900092185B411A4301D120F0010010BD2DE9F0
:1007A000F04D92469B4611B1B1FA81F202E0B0FAE7
:1007B00080F220329046FFF7B2FF04460F4640EA2F
:1007C0000A0041EA0B0153465A46084313D011462A
:1007D00053EA010019D0C8F140025046FFF7AEFFBE
:1007E00005460E46504659464246FFF798FF0843D5
:1007F00005D0012004E020463946BDE8F08D0020F8
:10080000054346EAE0762C4337430A986305E40A39
:10081000A0EB08000022FD0A44EA47540A3002D542
:1008200000200146E9E7010510196941DDE90845A5
:1008300000196941BDE8F04DA2E72DE9F04D002314
:100840001A461B1A8A4103DB00200146BDE8F08DE1
:10085000C1F30A52C1F3130141F480154FF0000BAC
:10086000D10702D100186D41521E0027044640F204
:10087000FF11384601EB620A3E46804602460020E0
:100880004FF48011FFF75AFFC2197141BB1846EBB4
:100890000100B4EB030C75EB000C04D3E41A65EB18
:1008A000000517460E46241908F101006D418046E7
:1008B0003428E3DDF91946EB0600091BA84103D2F1
:1008C0004FF0FF32134601E0002213461BEB0700F6
:1008D00046EB0A51BDE8F04DFFF752BF2DE9FE4F40
:1008E000C3F30A5701F000450024C1F30A56C3F3CD
:1008F0001303C1F3130143F4801312EB020AA6465B
:1009000041F48011009543EB030CA7F1010B16E0B5
:10091000B0EB0A0061EB0C01071E71F1000707DA6A
:100920004FF00008D0EB080085F0004568EB0101AE
:10093000171A73EB0107EBD3761E001849415E4589
:10094000F6DA50EA010209D0CDE900E500221346AB
:100950000296FFF724FF03B0BDE8F08F2046009910
:10096000F9E70000064C074D06E0E06840F001039F
:1009700094E8070098471034AC42F6D3FFF70EFC1A
:10098000489600086896000870B58C1810F8015B4E
:1009900015F0070301D110F8013B2A1106D110F818
:1009A000012B03E010F8016B01F8016B5B1EF9D11C
:1009B0002B0705D40023521E0DD401F8013BFAE7A2
:1009C00010F8013BCB1A921C03E013F8015B01F80D
:1009D000015B521EF9D5A142D8D3002070BDC94396
:1009E000016070470B78426863F3196242604B788C
:1009F000426863F308224260CB78826863F31D7219
:100A000082600B79826863F31B6282604B79826833
:100A100063F3CB2282608B78826863F34102826049
:100A20008979C26A491E61F31752C262704770B574
:100A3000072609290AD9C568A1F10A0404EB440470
:100A4000A640B543A3401D43C56007E0056901EB1F
:100A50004104A640B543A3401D4305611F23072A57
:100A600009D2446B521E02EB820293409C43914098
:100A70000C43446370BD0D2A09D2046BD21F02EBF4
:100A8000820293409C4391400C43046370BDC46A4E
:100A90000D3A02EB820293409C4391400C43C462A6
:100AA00070BD0021017041708170C1700171417190
:100AB000012181717047816821F0010181607047D7
:100AC000816841F001018160704742680A434260D9
:100AD000704700F051B800007FB5012001F00EFC16
:100AE00002A800F0A4FE03208DF80A0000248DF86F
:100AF0000D400125ADF8085002A9184800F03EFE4F
:100B0000280201F013FC00F057F86846FFF7C9FF10
:100B10008DF800408DF802508DF805408DF80340A7
:100B20008DF801400E4C69462046FFF75BFF042319
:100B3000012200212046FFF77AFFA9062046FFF791
:100B4000C4FF01221146122001F076FB2046FFF778
:100B5000B7FF204600F05EF87FBD000000000240B5
:100B600000200140C06C80B270470068084201D08C
:100B7000012070470020704770B50D4D2021284698
:100B8000FFF7F3FF0B4C01280DD12846FFF793FF29
:100B9000FFF7A2FF2178491C217000F019F82021ED
:100BA0002846FFF71CFF2078052800D3FEE770BD1C
:100BB000002001403100002010B54FF48074204621
:100BC00001F0BCFB2046BDE8104001F08FBB0000E7
:100BD0001FB50B4C0D21206802F018FC09A090E80D
:100BE0000E00C0688DE80E0003900F226946206851
:100BF00002F01CFD0D21206802F008FC1FBD000062
:100C00002C000020414443204552524F522052456F
:100C100053455400816841F0804181607047000075
:100C20002DE9FC410646684600F001FE012001F076
:100C300065FB102001F07AFB164D0722092128469A
:100C400000F0DAFD07220A21284600F0D5FD022433
:100C50008DF802402002ADF800008DF8034069468F
:100C6000284600F08BFD0C4F3146384602F0A4FABE
:100C70008DF802406002ADF800006946284600F099
:100C80007DFD3146384602F097FA384602F011FBF6
:100C9000BDE8FC8100000240001001407CB5044624
:100CA0000F4850F8240001F029FB684600F0BFFD12
:100CB0000B4D103D35F81400ADF8000001208DF803
:100CC000020002208DF80300064E694656F8240003
:100CD00000F054FD56F8241035F8140008837CBD4C
:100CE000085B000800000020044951F820100A8B1E
:100CF000034B33F8100002430A83704700000020C2
:100D0000F85A0008044951F820104A8B034B33F875
:100D1000100002434A83704700000020F85A000880
:100D20002DE9FF4104460F461F4850F8240001F00A
:100D3000E5FA02A800F07BFD00268DF80A601A484B
:100D4000143830F81400ADF8080001258DF80D5066
:100D5000164802A950F8240000F010FD012F21D1FF
:100D6000A80301F0E3FA01F083FD0F482238015D8A
:100D7000801E005D01F050FD0B48083050F8240043
:100D800000908DF804600C208DF805008DF8065059
:100D9000684600F05BFC04480F2220380021005711
:100DA00001F04AFABDE8FF81105B0008080000204E
:100DB0002DE9F34F89B000263746B046C146B2460A
:100DC000D34600200490059003900290019053E0D8
:100DD0000199099800EBC10030C80022464B294612
:100DE0002046FFF753FC15D20022134640464946E1
:100DF000FFF734FC0ED242464B4650465946FFF7A9
:100E00003CFA82468B460298401C80B202904FF01A
:100E10000008C1460022394B20462946FFF71EFC38
:100E200014D20022134630463946FFF72FFC0DD26C
:100E3000DDE9040132463B46FFF71FFACDE9040124
:100E40000398401C80B203900026374642464B462A
:100E500020462946FFF702FC01D2A046A9463246A9
:100E60003B4620462946FFF711FC01D226462F4675
:100E70000198401C80B201900A9901988842A7D33A
:100E80000298FFF7AAFB02460B4650465946FFF769
:100E90000DFB04460D460398FFF79FFB02460B46E9
:100EA000DDE90401FFF702FB22462B46FFF786FA35
:100EB00004460D46124E0D21306802F0A7FA11A02B
:100EC00003C8CDE90701052207A9306802F0AEFB8F
:100ED0000320009022462B46306802F0ABFA0BA0AC
:100EE00000680690022206A9306802F09FFB0BB052
:100EF00020462946BDE8F08F00007940000079C007
:100F00002C0000204156473A200000006D5600009A
:100F100004480122427000218180C180017001815A
:100F20008270704778010020F0B5DDE90547641E46
:100F300024B202260CE0E51B06D410F805C002F826
:100F400004C04D5D1D5501E016551E55641E24B2AA
:100F5000002CF0DAF0BD862837D012DC4A282CD0DD
:100F600008DC012821D01F2821D02C2821D03228AC
:100F700017D120E0542822D0672822D0792810D118
:100F800021E0CD2829D006DC982820D0AB2820D01D
:100F9000B52806D11FE0D32821D0E02821D0FE2893
:100FA00021D001200870FF207047002070470120E9
:100FB00070470220704703207047042070470520C7
:100FC00070470620704707207047082070470920A7
:100FD00070470A2070470B2070470C2070470D2087
:100FE00070470E2070470F207047FEE72DE9F0474D
:100FF0000446DDF820800D461A4EDFF86C9001277C
:101000007078002802D00120BDE8F08720462946EC
:10101000FFF73CFB02D2C9E9004501E0C9E90245FE
:10102000B9E80F00FFF7CAF9D6E90223FFF72EFB54
:1010300015D277700021C8F80010C8F804100022FB
:10104000134620462946FFF721FB01D2377101E004
:10105000FF2030710020FFF755FE0120D4E700206B
:10106000D2E70000C0000020880500200022835C39
:101070008B54521CD2B2032AF9D370472DE9F84F92
:1010800081468A460025A846AB46CDF800B000262A
:101090004FF0000C00278024002000EBC60119F857
:1010A00001E00EFB04CC1FFA8CFC1AF8011001FBC6
:1010B00004718FB26408401C0828EEDB6946604664
:1010C000FFF749FF044669463846FFF744FF9DF89D
:1010D000001049B1CDF800B0761C052ED8DB022DEA
:1010E0000FD2012010700EE000EB041080B22DB181
:1010F0004045F1D180466D1CEDB2EDE780460125FB
:10110000EAE782F800B01D704046BDE8F88F0000A5
:1011100030B5084C236840F6FE72824093430A784B
:101120008D782A438D8849780D432A4382401A439B
:10113000226030BD0074004008B5034A10440830F6
:1011400000900098016008BD00740040002101700B
:1011500081708180417070470749002806D01028AF
:1011600003D1086840F4803008607047086840F098
:101170000100086070470000007400401FB50120A6
:1011800001F0BCF802A800F052FB03208DF80A0021
:1011900000248DF80D401020ADF8080002A90D487C
:1011A00000F0ECFA4FF0005001F0B0F86846FFF79D
:1011B000CDFF8DF800408DF80240ADF804408DF869
:1011C000014069460020FFF7A3FF0020FFF7C4FF9E
:1011D0001FBD000000000240704700002DE9F043F1
:1011E00099B08046894600240025334E282718955B
:1011F000179528210DA8FFF735F8282103A8FFF738
:1012000031F8CDE9007403AB0DAA49464046FFF71B
:101210008BFE17AB18AA03A90DA8FFF72FFF9DF8A7
:10122000601081B1641CA4B2082CE0D303222349CE
:10123000306802F0FBF92021306802F0E7F8012065
:1012400019B0BDE8F083010900F00F0001EB0014B4
:10125000A02C07D2302000EB1410C1B2306802F08D
:10126000D5F806E0372000EB1410C1B2306802F068
:10127000CDF804F00F010A2904D23031306802F0B1
:10128000C5F803E03731306802F0C0F8202130683B
:1012900002F0BCF89DF85C003030C1B2306802F05A
:1012A000B5F8204601F0A2FB014605480CC82046CF
:1012B00000F016FC0020C3E72C0000208201002073
:1012C0006801002008B500900098411E0091FBD2F3
:1012D00008BD00002DE9FF4FEDB04FF4A4711AA82E
:1012E000FEF7C0FFC54EC64F4FF00008C146B80715
:1012F00001F082FE72B6282110A8FEF7B3FF282164
:1013000006A8FEF7AFFFBF480D21006802F07EF887
:101310004FF0000A6E98B0F802B030E06D98324697
:1013200000EBCA003B4630C820462946FFF7BEF80E
:10133000FFF774F9FFF740F932463B46FFF744F8F0
:1013400022462B46FFF73DF8AF4CB04B2246FFF745
:101350003BF832463B46FFF7A9F82246AC4BFFF775
:101360002DF804460D4622462B4640464946FEF7D8
:1013700084FF804689460AF1010A0AF0FF0AD34534
:10138000CCD20022A34B40464946FFF78FF8CDE967
:101390001A0132463B46FFF717F89B4A9B4BFFF773
:1013A00085F8804689464FF0010A022005904FF0EB
:1013B000000B002004900390029005986E99401E47
:1013C0000A4631F810000599401C32F81110884285
:1013D0007ED880B201906BE001996D98424600EB97
:1013E000C1014B4603C9FEF7E9FF32463B4603F015
:1013F000E7F8854C854B2246FEF7E6FF32463B4632
:10140000FFF754F82246824BFEF7D8FF04460D46FC
:101410000022134620462946FFF720F907D27A4AD0
:101420007A4B20462946FEF728FF04460D46764AA9
:10143000794B20462946FFF711F906D3774A784BB6
:1014400020462946FFF722F904D80BF1010B0BF0D7
:10145000FF0B29E06C4A704B20462946FFF716F92E
:101460000BD8704A704B20462946FFF7F7F804D294
:101470000498401CC0B2049016E06A4A6A4B2046A9
:101480002946FFF703F90BD8684A694B20462946DD
:10149000FFF7E4F804D20398401CC0B2039003E0C5
:1014A0000298401CC0B202900198401C80B201908A
:1014B00005996E9830F81110019881428CD20498E9
:1014C000834517D30398834514D90298834500E0D8
:1014D0007FE00FD31AA800EBCA0000210160416031
:1014E00010A95144002001F8010C06A9514401F84B
:1014F000010C52E00498584519D9DDE903108842DF
:1015000015D302990498884211D91AA8494900EBC9
:10151000CA003D4AC0E9002110A95144012001F848
:10152000010C06A95144002001F8010C35E0039894
:10153000584517D9DDE90301884213D9DDE90210C6
:1015400088420FD31AA8304900EBCA00304A06C0BF
:1015500010A95144012001F8010C06A9514401F8D9
:10156000010C1AE00298584517D90499029888424C
:1015700013D9DDE9021081420FD91AA8294900EBDD
:10158000CA002D4A06C010A85044002100F8011CD2
:1015900006A85044012100F8011C1AA800EBCA015A
:1015A000324603C93B46FEF70FFF174A174BFEF7BB
:1015B0007DFF42464B46FEF760FE804689460AF1B3
:1015C000010A0598401C80B2059005982A28FFF46E
:1015D000EEAE06A910A8FFF701FE002110AA06AC86
:1015E0006F9B555C5D54709B655C5D54491CC9B232
:1015F0002829F5D362B671B0BDE8F08FE3642A35CF
:10160000CD92333F2C000020EA2E4454FB21194098
:10161000FB21094000003C40FB21E93F0DA9BBE94B
:10162000BBFD15403023337F7CD90240A43A5529B5
:101630007A6A0F40FB21F93F7CD9124000F012BAC0
:101640000149086070470000143C014030B51B4A56
:1016500083790168002B2AD013688B431360111D16
:101660000B680468A3430B60017911440B6804689C
:1016700023430B60114C08342168036899432160AF
:10168000231D19680568A94319604179102905D0FF
:1016900011440A68006802430A6030BD216802688C
:1016A00011432160196800680143196030BD007959
:1016B000104402688A43026030BD0000003C0140D3
:1016C00001460020054A12680A40044B14331B6887
:1016D0000B4202D0002A00D001207047003C01409C
:1016E0002DE9F0410446069E0D46DFF84480114F77
:1016F00020462946FEF7CAFF02D2C8E9004501E0AC
:10170000C8E90245B8E80F00FEF758FED7E9022302
:10171000FEF7A4FF03D2F888401CF88001E0002007
:10172000F880F888202801D901203070BDE8F081C8
:1017300088050020C000002010B50020044A0024C5
:1017400002EBC0010C604C60401C0A28F7DB10BDA6
:10175000D073012010B50121880701F003FC01219D
:10176000044801F0FFFBBDE8104002210248FFF7EA
:1017700036B9000000040040002001402DE9F0418E
:10178000002201274FF0030C07FA02F50B882B40CB
:10179000AB422CD1066853000CFA03F4A643066052
:1017A0008E78D0F800809E4046EA080606608E7863
:1017B000012E01D0022E12D18668A6438660CE7813
:1017C000D0F808809E4046EA080686604668AE4328
:1017D000466045680E799640B6B235434560C568A7
:1017E000A543C5604C799C40C3681C43C460521C2F
:1017F000102AC9D3BDE8F08110B5CC084FEA417179
:101800004FEAD1634FF00F0102FA03F201FA03F13C
:1018100006D0436A8B434362416A1143416210BD63
:10182000036A8B430362016A1143016210BD4FF6E4
:10183000FF71018000218170C17001714171704799
:1018400010B50A48FFF78EF940F6E441484340F6E8
:10185000FF71B0FBF1F0FEF7C0FE0022044BFEF773
:10186000ADFD044B00221A7010BD000000200140A5
:101870000070974031000020014800797047000057
:10188000C00000200549002088704870C8800448C6
:101890000022026042608260C2607047C000002087
:1018A00088050020FEE700002DE9F05F81468A46AA
:1018B0002A4F484651460CCFFEF786FD04460D469A
:1018C0000126A7F11000B0F90080C34615E02348B7
:1018D00000EBC6000CC8224800EBC80103C9FEF7A4
:1018E00073FD22462B46FEF7C8FC04460D46761CC7
:1018F000B6B208F101080FFA88F8B8F10A0FE6DB72
:101900000027DFF85C8012E0144808EBC70100EB09
:10191000C6000CC803C9FEF757FD22462B46FEF74A
:10192000ACFC04460D46761CB6B27F1C3FB25F4548
:10193000EADB0A49ABF1010B08390FFA8BF008809A
:10194000002801DA09200880B1F9000008EBC00086
:10195000C0E9009A20462946BDE8F09F0801002012
:10196000D0730120014948607047000000300040FA
:1019700001498860704700000030004003490022A0
:101980000A600A688242FCD37047000060010020B0
:1019900002494CF6CC40086070470000003000401F
:1019A000034845F25552016862F30F010160704728
:1019B0000030004002494AF6AA2008607047000043
:1019C000003000401FB540F21D2000F031FD01281D
:1019D00012D10AA090E80E00C0688DE80E000390B6
:1019E0000A4C10226946206801F020FE0D21206873
:1019F00001F00CFD00F06AFC1FBD000057445420AC
:101A000053595354454D2052455345542C00002002
:101A100010B54FF49670FFF7B1FFBDE81040FFF727
:101A2000C9BF000010B543F67F614FF0E02041616F
:101A30000B4AF02111700021816107210161FFF73C
:101A4000C1FFFFF7ADFF0320FFF78CFF4FF47A7063
:101A5000FFF78EFFFFF7AEFFBDE81040FFF798BF1E
:101A600023ED00E010B50220FFF72AFE00282FD05A
:101A70001848FFF727FCFFF76DFE174C207888B158
:101A800000F0F0F800202070144801F0B5FAFFF7DC
:101A900053FE01F0E1FD00F0AFFB01F08DF900F025
:101AA000A5FA0EE000F02AFA01202070800701F06C
:101AB000A3FA00F085FF00F09FFB01F0DFF900F0D2
:101AC00095FA01F023FABDE810400220FFF7B8BDF7
:101AD00010BD0000809698003000002000040040F7
:101AE0002DE9F04F89B005460C4616461F4672B6E2
:101AF000DFF85C9140F6991A99F80000002804D0AC
:101B0000A9F802A0534801F07CFA53484FF00208AC
:101B100080F80080002089F80000B9F802004FF634
:101B2000FF7B504508D14FF4F072134664219B208F
:101B3000CDF800B002F006FD32463B464FF4C871C6
:101B4000B42000F007FBB9F80200854268D0A9F87C
:101B500002504FF4AF725E46134664219B20CDF8CD
:101B600000B002F0EFFC3D48D0E903124069CDE936
:101B70000612089006AF2909B81D03F0F7FE05F01C
:101B80000F010DF1210003F0F1FE0420CDE90070FA
:101B90003346002264219B2002F072FB3048A4F5FA
:101BA0001C514FF496770F393DD0C1688068CDE95C
:101BB00004014FF47A75B4FBF5F104A803F0D6FEE6
:101BC000B4FBF5F005FB10406425B0FBF5F10DF119
:101BD00010090DF1130003F0C9FECDE9009833465A
:101BE0000022C821DC2002F04BFBB4FBF5F005FB22
:101BF00010400A25B0FBF5F104A803F0B7FEB4FBD2
:101C0000F5F005FB104109F1030003F0AFFECDE94B
:101C10000098334600223946DC2002F031FB62B6E0
:101C200009B0BDE8F08F03C8CDE9020102ACCDE9EF
:101C3000004833460022C821DC2002F021FBCDE918
:101C40000048334600223946DC2002F019FBE7E762
:101C50003200002000080040DA00002078800008F0
:101C6000785C00087CB54FF6FF7500214FF4F073E7
:101C70004FF4A0720846009502F064FC04241A4850
:101C8000CDE900042B464FF478420521552002F09F
:101C9000F7FA15482B460C30CDE9000400226421E8
:101CA000052002F0EDFA10482B461830CDE900046B
:101CB0000022C821052002F0E3FA0B482B4624300D
:101CC000CDE9000400224FF49671052002F0D8FA05
:101CD00005482B463030CDE9000400224FF4C8718E
:101CE000052002F0CDFA7CBD570000202DE9F04719
:101CF00088B0044615461E46DFF8E89140F6991A6A
:101D000099F80000002804D0A9F802A0764801F054
:101D100078F97649022008704FF0000889F80080B1
:101D2000B9F802004FF6FF77504507D14FF4F07233
:101D3000134664219B20009702F004FC2A46334698
:101D40004FF49671B42000F005FAB9F8020084420D
:101D500005D16748FFF7B6FA08B0BDE8F087A9F8E3
:101D60000240544507D04FF4A072134664219B20D3
:101D7000009702F0E7FB5F4905ADD1E907238869C9
:101D80000DC5D1E90902C96ACDE90321029002AE6D
:101D900005ADE12C49D006DC4B2C0BD07D2C1AD0A4
:101DA000AF2C17D12CE0A4F58074133C52D0322C08
:101DB00010D160E00721E81C03F0D8FD0521A81D23
:101DC00003F0D4FD0821F01C03F0D0FD0021B01D6C
:101DD00003F0CCFD71E0012105A803F0C7FD02214D
:101DE000E81C03F0C3FD0521A81D03F0BFFD07217A
:101DF000F01C03F0BBFD0021B01D03F0B7FD5CE05B
:101E0000012105A803F0B2FD0721E81C03F0AEFD97
:101E10000521A81D03F0AAFD0621F01C03F0A6FD74
:101E20000021B01D03F0A2FD47E0022105A803F048
:101E30009DFD0221E81C03F099FD0521A81D03F07A
:101E400095FD0421F01C03F091FD0021B01D03F06D
:101E50008DFD32E0022105A803F088FD0721E81C72
:101E600003F084FD0521A81D03F080FD0021B01DB5
:101E700003F07CFD21E0032105A803F077FD02219A
:101E8000E81C03F073FD0521A81D03F06FFDD020B1
:101E90008DF8080092218DF809108DF80A808DF8D0
:101EA0000B00A0218DF80C108DF80D808DF80E0020
:101EB00094208DF80F008DF810800324CDE9005494
:101EC0003B4600226421B42002F0DAF9CDE9006437
:101ED0003B460022C821B42002F0D2F90648FFF7A1
:101EE000F1F939E73200002000080040DA00002054
:101EF0008096980078800008A08601007CB54FF697
:101F0000FF7500214FF4F0734FF4A072084600955E
:101F100002F018FB03201549CDE900102B464FF4C1
:101F200078420521692002F0ABF9104804240930F9
:101F3000CDE900042B4600226421052002F0A0F91F
:101F40000A482B461530CDE900040022C82105209F
:101F500002F096F905482B462130CDE90004002215
:101F60004FF49671052002F08BF97CBD93000020A0
:101F70007CB5042000F0C2F96846FFF758FC302019
:101F8000ADF8000003248DF8034001268DF80260AF
:101F900000258DF8055069461248FFF7EFFB114800
:101FA0001830018841F030010180022000F0A6F9CC
:101FB0006846FFF73CFCADF800408DF803408DF813
:101FC00002608DF8055069460748FFF7D7FB0648C1
:101FD0001A30018841F00301018042F21070FFF7CE
:101FE00071F97CBD0008024000040240044840F63C
:101FF0009911418000210170024902200870704748
:1020000032000020DA0000202DE9FF473948DFF8D0
:10201000F080394E017802240127DFF8E0A098F81B
:1020200000004FF6FF754FF4FA724FF496790029CD
:102030002BD0002827D1134664219B20009502F065
:1020400081FAD6E90601CDE9020102AECDE90064CC
:102050002B4600226421B42002F012F9CDE900647D
:102060002B460022C821B42002F00AF9CDE9006411
:102070002B4600224946B42002F002F988F800708D
:10208000504600F0B9FFBDE8FF870028FBD113469A
:1020900064219B20009502F055FAD6E90401CDE9B0
:1020A000020102AECDE900642B4600226421DC204F
:1020B00002F0E6F8CDE900642B460022C821DC20BE
:1020C00002F0DEF8CDE900642B4600224946DC2010
:1020D00002F0D6F8CDE900642B4600224FF4C87117
:1020E000DC2002F0CDF888F80070504600F084FF44
:1020F000C9E7000030000020785C000800080040BC
:10210000320000201CB5FFF733FF02F007FD4FF649
:10211000FF7400214FF4F0734FF4A072084600944E
:1021200002F010FA07200A49CDE9001023460022E8
:10213000C8210A2002F0A4F8054904201531CDE990
:10214000001023460022FA21552002F099F81CBD08
:10215000360000202DE9F04304460D4685B01046B8
:102160001946224AD2E90C36926BCDE90236049226
:1021700000221F4BFEF781F8FEF750FA8046C61783
:102180004FF47A72002340463146FEF721F881B2BF
:102190009946174602A803F0E9FB384649466422EF
:1021A0000023FEF715F881B202AFB81D03F0DEFB85
:1021B0006422002340463146FEF70AF810461946CD
:1021C0000A220023FEF704F881B20DF1110003F09A
:1021D000CDFB0420CDE900704FF6FF7300222946A5
:1021E000204601F0EFFF05B0BDE8F08378800008DD
:1021F00000001440FEE7000010B50020064A00244D
:1022000002EBC0010C604C60401C80B20528F6D384
:1022100002490020088010BD2074012070010020B8
:1022200070470000024908430249086070470000F7
:102230000000FA050CED00E070B505460E46214899
:10224000006800F4E0634FF4E060B3F5A06F12D0D3
:1022500006DCB3F5407F14D0B3F5806F14D10DE0E8
:10226000B3F5C06F04D083420ED1002304240FE0E5
:10227000012303240CE00223022409E003230124A8
:1022800006E00423002403E0FFF7CCFF002304242E
:10229000C3F10400C4F1040386400F20D84010406D
:1022A0003043000105F1E02181F8000405F01F0131
:1022B000012088406911890001F1E021C1F8000185
:1022C00070BD00000CED00E070470000024801689E
:1022D00041F08071016070477438024002490A6819
:1022E00082430A60704700002038024002490A68B1
:1022F00082430A60704700002438024002490A689D
:1023000002430A60704700003038024002490A6800
:1023100002430A60704700004038024002490A68E0
:1023200002430A60704700002038024002490A68F0
:1023300002430A60704700004438024002490A68BC
:1023400002430A6070470000243802400FB509A01C
:1023500090E80E00C0688DE80E00039000F036F89B
:1023600008490968C1F303111DF80110C84004B001
:1023700000BD000000000000000000000102030496
:1023800006070809083802403CB504460D460CA073
:1023900003C8CDE90001FFF7D9FF0B4A6B4634B102
:1023A0001168C1F38221595C20FA01F12160002DEE
:1023B00005D01168C1F34231595CC84028603CBD6A
:1023C00000000000010203040838024010B516485E
:1023D0000068C0F381011548002915D04410012977
:1023E00011D0022910D1104A121F116801F03F01CB
:1023F0001368C3F3805343B1B4FBF1F01168C1F328
:102400008811484307E0204610BDB0FBF1F0116889
:10241000C1F3881148431168C1F30141491C4900C7
:10242000B0FBF1F010BD0000083802400024F400B9
:1024300001218140000A002804D0012805D002288B
:102440000AD106E00748006806E0064870300068D8
:1024500002E0044874300068084201D0012070474F
:10246000002070470038024070B502460B46134CFE
:102470004FF000056078A178084301D0012070BDBD
:10248000104623F00041D4E90223FEF7FFF802D200
:102490002570002070BD207810280BD90121A17073
:1024A000257007480022026042608260C260E170CD
:1024B000012070BD401C2070002070BDC0000020B5
:1024C0008805002070B594B006460D4614460020DD
:1024D000FEF70AFC0120FEF715FC40F6FF71002014
:1024E000FEF72AFEFFF7C8F942B2234629463046D6
:1024F00001F0EAF828210AA8FDF7B4FE2821684671
:10250000FDF7B0FE6B460AAA21462846FEF7E2FE1A
:1025100001F0A2F8FFF710F94FF0804000F084FDC1
:10252000FEF7DAFA00F048FC00210846FEF704FE48
:102530000120FEF7D9FB14B070BD0000014800680F
:1025400000F0E0B828000020C06870470B780268EF
:1025500063F3820202600B78026863F30822026070
:102560004B78026863F3CB2202608B78026863F3D6
:1025700000020260CB78026863F3410202600B79CB
:10258000026863F3492202604B79026863F3C71261
:1025900002608A79036862F3CF3303608A79130992
:1025A000026863F38E320260CA88130A026863F31A
:1025B0008A2202600B7A026863F3C50202604A89CC
:1025C000016962F30F01016170470021C180017050
:1025D0004170C170817001710172417107214181A7
:1025E0007047016821F0400101607047016821F4E3
:1025F000005101607047416821F00401416070475B
:10260000016841F0400101607047102903D18168E1
:1026100021F0100181607047426842EA1121416057
:1026200070478068084201D0012070470020704741
:1026300030B585B00320FFF761FE4FF48050FFF7FF
:1026400075FE4FF48040FFF771FE2B4D05221146B9
:102650002846FFF7D1F8052206212846FFF7CCF8D7
:10266000052207212846FFF7C7F803A8FFF7DFF880
:10267000E021ADF80C1003218DF80F1002218DF828
:102680000E1000248DF810408DF8114003A9284643
:10269000FFF774F86846FFF798FFADF80640012091
:1026A0008DF800008DF801408DF803408DF8024050
:1026B0008DF804008DF808408DF805400720ADF82E
:1026C0000A000E4C69462068FFF740FF2068FFF7BC
:1026D0008DFF2068FFF78FFF4FF400512068FFF750
:1026E0009BFF012211462320FFF7A6FD0448FFF7B8
:1026F00087FF05B030BD0000000002402800002028
:102700000030014070B5064620213046FFF789FFB2
:102710001A4C012805D040213046FFF782FF0128DE
:1027200026D13046FFF75DFFFFF782FF2178491C75
:10273000217000F027F820213046FFF772FF104D7E
:10274000012803D13221286800F060FE4021304684
:10275000FFF767FF012803D13321286800F056FEF8
:1027600020213046FFF751FF40213046FFF74DFF53
:102770002078052800D3FEE770BD0000D0000020BF
:102780002C0000201FB50B4C0D21206800F03EFEF0
:1027900009A090E80E00C0688DE80E0003900F229B
:1027A0006946206800F042FF0D21206800F02EFEEF
:1027B0001FBD00002C000020535049204552524FAD
:1027C00052205245534554002DE9F04106460D462E
:1027D000174600240CE002213046FFF722FF0028B4
:1027E000F9D0285DF0603046FFF7AEFE641CA4B25D
:1027F000BC42F0D3024900200870BDE8F08100001F
:10280000D000002010B5044680212046FFF709FFC4
:102810000128F9D010BD70478A0700F00F00120F91
:1028200090408A0808D00122B2EB910F0AD10F49DB
:102830000A6802430A6070470C49091F0A6802438C
:102840000A6070470222B2EB910F05D10749091DBA
:102850000A6802430A6070470322B2EB910FFAD173
:10286000024908310A6802430A6070470C38014087
:1028700010B54FF480442046FFF760FD2046BDE8C8
:102880001040FFF733BD00002DE9F04F8FB0044634
:102890008A46302102A8FDF7E5FC0120FEF732FA56
:1028A0003F4800F0A9FB72B600210846FEF744FC41
:1028B0004FF480712046FEF77BFA3A4A03C202A920
:1028C000204601F003FDDFF8E0B00D21DBF8000049
:1028D00000F09CFD2021DBF8000000F097FD0027B0
:1028E00000264FF04B0802A800EBC6092F4AD9E991
:1028F00000012F4BFDF7B2FE02D3BAF1000F05D055
:102900000020C9F80000C9F8040012E0D9E900016C
:102910004FF03332274BFDF7B9FE0AD2264800218B
:10292000C9E9001006EBC60000EB061008EB4000FA
:1029300087B206EBC60000EB061008EB4000FDF77F
:102940003BFE04460D46D9E9000100221B4BFDF772
:102950003BFD0246CDE900450B46DBF8000000F0E8
:1029600023FE761C062EBEDB27B10E480CC8384667
:10297000FFF7BCF940F6FF710020FEF7DDFB00F029
:102980001FF8074800F050FBFEF7A6F800F076FAB3
:102990000120FEF7A9F962B60FB0BDE8F08F000084
:1029A00000040040680100202C0000209A999999A9
:1029B0009999D93F3333EB3F0000F03F0000594075
:1029C00010B50020074A002402EBC0010C604C60E7
:1029D000401C80B2FF28F6D90348002181800121E4
:1029E000417010BDD06B0120D80000202DE9F041CE
:1029F00000F03F014FF45C6240F2E475531F6E1F1C
:102A000040F6CF5040F6AC544FF4FA6740F2DC5C2D
:102A1000402970D2DFE801F02024272A2D303336F8
:102A2000393C3F4245484B4E5154575A5D606366AE
:102A3000696C707376797C7F8285888B8E91949790
:102A40009A9DA0A322A6A8AAACAEB0B2B5B722B9EF
:102A5000BBBDBFC1C3C5C7CA42F20F70BDE8F0819C
:102A600041F69070FAE741F68670F7E741F681701B
:102A7000F4E741F67C70F1E741F69E30EEE741F66F
:102A80009930EBE741F69430E8E741F68F30E5E71F
:102A900041F68A30E2E741F6A510DFE74FF4CD506A
:102AA000DCE741F69B10D9E741F69610D6E741F6F0
:102AB0009110D3E741F68C10D0E741F66410CDE7D2
:102AC00041F2AC70CAE741F2A770C7E741F2A270C9
:102AD000C4E741F29D70C1E741F29870BEE741F250
:102AE0007070BBE741F2B350B8E741F2AE50B5E7C2
:102AF00041F2A950B2E75CE041F2A450AEE741F2E6
:102B00009F50ABE741F27C50A8E741F2BA30A5E70D
:102B100041F2B530A2E741F2B0309FE741F2AB306D
:102B20009CE741F29C3099E741F2883096E741F208
:102B3000C11093E741F2BC1090E741F2B7108DE766
:102B400041F2A8108AE741F2941087E740F6C87076
:102B500084E740F6C37081E740F6B4707EE74FF437
:102B60007A607BE7104679E7184677E7204675E7F5
:102B7000284673E7304671E738466FE740F2EB507E
:102B80006CE760466AE7002068E7104666E718468B
:102B900064E7204662E7284660E730465EE738464D
:102BA0005CE760465AE740F2E15057E74FF4A07007
:102BB00054E741F6616051E702480168491C016031
:102BC000704700006001002008B52A49086840F4F9
:102BD00080300860002000904FF4A04205E00868B3
:102BE000800305D40098401C009000989042F6D3D2
:102BF000086880033CD51F484030026842F080528C
:102C000002601D48026842F48042026019480830A0
:102C1000026822F0F0020260026822F4604202F5CB
:102C200000420260026822F4E05202F5A052026003
:102C3000021F124B1360136843F4800313600A6889
:102C400042F080720A600A689201FCD50C4A40F298
:102C500005711160016821F003010160016821F034
:102C60000301891C01600168C1F381010229FAD1C5
:102C700008BD000000380240007000400854000702
:102C8000003C024010B50F48016841F001010160AD
:102C90000C4A00210832116002680B4B1A40026096
:102CA000031D0A4A1A60026822F480220260054865
:102CB0000C300160FFF788FF05494FF000600860A5
:102CC00010BD000000380240FFFFF6FE1030002467
:102CD00008ED00E038B50121880700F09BF90128D4
:102CE0005BD102212D48FDF740FF2D4C80B3FEF74C
:102CF000A7FDC4E904012B4BA26803EBC20203C287
:102D0000FEF7D2FDC4E90401FFF7AEFB40B304F1C6
:102D10000800009004F110000FC8FEF767F918B31F
:102D2000A268214BD4E9040103EBC20203C222468C
:102D30000092D4E90623FEF7D3FCD4E90401C4E9E8
:102D40000601D4E90201401C41F10001C4E902017D
:102D5000FEF700FD207858B1BDE8384000F07CBC9B
:102D6000BDE83840FEF7F6BCBDE83840FEF7F2BCDF
:102D7000D4E9021081F4A85101430ED172B641F298
:102D800088310848FEF714F8084A03C2084A064882
:102D900002F15801FFF796FB62B638BD00200140F2
:102DA000D8000020D0C30020D01B002068010020E4
:102DB00098050020FFF78EBF1CB50120FFF7A6FA8B
:102DC00000208DF801008DF8000040F21F61ADF881
:102DD00004100121ADF802108DF806004FF0804478
:102DE0006946204600F0C2F80121204600F00EF9A5
:102DF000002201211C20FFF71FFA204600F001F9F4
:102E00001CBD000010B50121164800F003F901288F
:102E100023D102211448FDF7A8FEF0B1FEF710FD02
:102E2000124CC4E90401627832B10022104BFDF764
:102E30002DFC01D200206070A0880E49D4E9042343
:102E400001EBC0010CC1401C80B2A080B0F5807FB6
:102E500003D161780748FFF717FDBDE81040FEF782
:102E600079BC00000004004000200140D800002090
:102E700000407F40D06B0120FFF7C4BF1CB502208B
:102E8000FFF744FA00208DF801008DF8000041F6AC
:102E9000A211ADF804100121ADF802108DF8060062
:102EA000084C6946204600F061F80121204600F0F8
:102EB000ADF8002201211D20FFF7BEF9204600F0E9
:102EC000A0F81CBD0004004010B50D4C01212046A7
:102ED00000F0A0F8012811D10A49887838B1401EC5
:102EE00088702046BDE81040012100F03BB8FFF794
:102EF00083F9FFF77BF8FFF787F8F2E710BD0000D2
:102F000000080040D8000020FFF7DEBF1CB50420F9
:102F1000FFF7FCF900208DF801008DF800004AF25F
:102F20000F41ADF804104FF47A71ADF802108DF82E
:102F300006000A4C6946204600F018F80121204698
:102F400000F064F8002201211E20FFF775F9044A01
:102F500002219170204600F054F81CBD000800408A
:102F6000D8000020C94301617047000030B51B4AFA
:102F70001B4B90420DD0B0F1804F0AD0194CA042AB
:102F800007D0194CA04204D0184CA04201D098425E
:102F90000AD10C78056864F3041505600C782509DE
:102FA000046865F346140460114CA04207D0114C2C
:102FB000A04204D04D78046865F3092404604C886D
:102FC000C4628C888462904201D0984201D1897990
:102FD0000163416941F00101416130BD00000140E0
:102FE000000401400004004000080040000C0040C4
:102FF0000010004000140040016821F00101016050
:103000007047016841F0010101607047C2680A43DE
:10301000C260704702690A4204D0C068084201D009
:10302000012070470020704710B55149884207D1F0
:103030000120FFF783F9BDE810400120FFF756B9E2
:10304000B0F1804F0AD04B4988420FD10220FFF7E0
:1030500065F9BDE810400220FFF740B90120FFF7F5
:103060005DF9BDE810400120FFF738B942498842B8
:1030700007D10420FFF752F9BDE810400420FFF704
:103080002DB93E49884207D10820FFF747F9BDE82E
:1030900010400820FFF722B93949884207D1102093
:1030A000FFF73CF9BDE810401020FFF717B935498C
:1030B000884207D12020FFF731F9BDE810402020D9
:1030C000FFF70CB93049884207D10220FFF736F9E3
:1030D000BDE810400220FFF709B92C49884209D108
:1030E0004FF480342046FFF729F92046BDE8104010
:1030F000FFF7FCB82649884209D14FF40034204636
:10310000FFF71CF92046BDE81040FFF7EFB8214952
:10311000884209D14FF480242046FFF70FF920465A
:10312000BDE81040FFF7E2B81B49884207D14020B4
:10313000FFF7F4F8BDE810404020FFF7CFB817497B
:10314000884207D18020FFF7E9F8BDE810408020D1
:10315000FFF7C4B81249884208D184152046FFF70A
:10316000DDF82046BDE81040FFF7B8B810BD0000FC
:10317000000001400004004000080040000C004036
:1031800000100040001400400004014000400140D5
:10319000004401400048014000180040001C00406D
:1031A000002000400148006800F0D4B82C00002046
:1031B00002688A430260704738B504460D46E168EC
:1031C000E87960F38201E160E8794108E06861F341
:1031D000C300E060A8794108E06861F34920E0603D
:1031E000A879E16860F38A21E1602979E06861F3F8
:1031F0000C30E0606979206961F30D302061287A34
:10320000616960F308216161287A4108606961F3AE
:10321000492060612248844202D02248844204D17D
:1032200069460020FFF7B0F803E000216846FFF789
:10323000ABF8E068000409D5009800EBC00101EB91
:10324000001029684900B0FBF1F108E0009800EB9C
:10325000C00101EB001029688900B0FBF1F1642284
:10326000B1FBF2F0000103096FF018056B4301EBAD
:103270008301E3681D044FF0320307D503EBC1015E
:10328000B1FBF2F101F00701014306E003EB01118C
:10329000B1FBF2F101F00F010143A16038BD000064
:1032A0000010014000140140C16821F40051C160C8
:1032B0007047C16841F40051C16070478AB2CB03C6
:1032C00002D5C3681343C3608B0302D5036913435C
:1032D0000361490302D54169114341617047000010
:1032E0003EB54FF4E130009000208DF80800032136
:1032F0008DF807108DF806008DF805008DF8040094
:103300006846FDF78DFC47F6FF70FDF7DBFF0C4CC0
:103310000A492046FFF7D2FF02212046FFF748FF67
:1033200004212046FFF744FF08212046FFF740FF15
:10333000002211462520FEF77FFF3EBD010004005C
:10334000001001400068084201D0012070470020B1
:103350007047000070B5054602212846FFF7F2FFCE
:10336000144C01280BD004212846FFF7EBFF01285D
:1033700005D008212846FFF7E5FF012815D128468A
:10338000FFF792FFFFF7ACFF2078401C207000F0A1
:1033900013F802212846FFF70BFF04212846FFF708
:1033A00007FF08212846FFF703FF2078052800D3F0
:1033B000FEE770BDF800002010B586B00A4C0D2164
:1033C000206800F023F8142208A101A8FCF731FFBF
:1033D000112201A9206800F029F90D21206800F0D0
:1033E00015F806B010BD00002C00002055534152C6
:1033F00054204552524F522052455345540000002C
:10340000426861F3080242607047000070B50446EC
:103410000D4680212046FFF795FF0028F9D0294668
:103420002046FFF7EDFF02490020087070BD000044
:10343000F80000202DE9F0478146089E14461D46FD
:1034400020462946FDF7EAF88046C7174046394628
:10345000FDF7D0F822462B46FCF7B3FF044621F0D7
:1034600000453046FDF7B9F802460B4600202849D2
:1034700001F036FC22462B46FCF7A6FFFDF7CEF8FE
:10348000C517044642463B46484600F043F82E2105
:103490004846FFF7BBFF204629464FF0000850EA98
:1034A000010201D000271AE0002404E03021484640
:1034B000FFF7ACFF641CB442F8DB4846BDE8F047B8
:1034C0002021FFF7A3BF50EA010203D008F1010851
:1034D00008F0FF080A220023FCF77AFE7F1CB7429F
:1034E000F1DB0027A6EB080604E030214846FFF791
:1034F0008DFF7F1CBE42F8DC22462B46484600F07A
:1035000009F84846BDE8F0472021FFF77FBF0000DB
:10351000000024402DE9F041804614461D46002657
:103520000027002D08DA2D214046FFF76FFF2846BF
:103530000025644265EB000554EA050017D13021EF
:103540004046FFF763FF12E00A2200232046294687
:10355000FCF73EFE06EB860464001546161926B9F4
:1035600055EA030201D17F1CFFB204460D4654EA1E
:103570000500E9D10A2409E0B6FBF4F004FB106170
:1035800030314046FFF742FFB6FBF4F6002EF3D190
:1035900005E030214046FFF739FF7F1EFFB2002FC4
:1035A000F7D1BDE8F0810000F8B514461D46DDE90D
:1035B00006230646002000903046FFF73BFF062218
:1035C0001749304600F032F80022164B20462946B3
:1035D000FDF744F808D220213046FFF717FF2021DD
:1035E0003046FFF713FF0AE000220F4B2046294622
:1035F000FDF734F803D220213046FFF707FF012002
:10360000009022462B463046FFF714FF2521304616
:10361000FFF7FCFE3046BDE8F8400D21FFF7F6BE8F
:10362000F9000020000024400000594070B5064613
:103630000C4615460AE080213046FFF783FE00283D
:10364000F9D014F8011B3046FFF7DAFE6D1E681C36
:10365000F1D170BDFEE70000F0B41848002282608E
:10366000C2608261C26102700020154C4FF4167670
:1036700004EBC00100250D604D60401CB042F7DB3B
:1036800000200F49583921F81020401C2A28FADB65
:1036900000200C4A4FF4A85602F5284502EBC00161
:1036A00000240C604C6005EBC00100230B604B60F4
:1036B000401CB042F2DBF0BCFEF7E4B8D8000020BA
:1036C000F0050020D01B00202DE9F84F06468A4661
:1036D000104698460124FCF76FFF3D4F8346A146F4
:1036E0000025009106EBC40358460CCB0099FCF76B
:1036F0006BFE00221346FCF7B1FF12D2621E06EBEE
:10370000C20358460CCB0099FCF75EFE002213461C
:10371000FCF7BCFF05D23889201A082809D07D7033
:103720003C81F888B0F52F7F42D9BDE8F84FFDF70E
:10373000EFBB2046FCF740FF0022264BFCF73EFE85
:103740000022254BFCF799FDD7E90423FCF73CFE4A
:10375000FA880AEBC20203C2F888401C80B2F880E3
:10376000797819B1B8880F281DD01DE0B9880529CE
:1037700013D9B97839B1BD7039782B2907D9BDE88B
:10378000F84FFDF7C5BB3978491C3970F4E728F8C4
:10379000110087F80190BD8006E0401AF880BD80D6
:1037A00087F8019000E07D70B888401CB880B7E7CA
:1037B000641CB4F5A85F95DB3878401CC0B2387043
:1037C000F98828F81010BDE8F84FFDF7A1BB0000FC
:1037D000780100200000F03F0000E03F490050EA7F
:1037E000C12018BF04204A0D18BF40F0010040F26C
:1037F000FF72B2EB515F08BF40F00200012808BF22
:10380000052070472DE9F0414F1E00EBC70104462B
:10381000D1E9000115461E4637F006020DD02A46B2
:103820003346FCF7D1FD7F1E04EBC703D3E9002329
:10383000FCF723FD37F00602F1D1022F25D0042F2B
:1038400013D0062F18BFBDE8F0812A463346FCF797
:10385000BBFDD4E90A23FCF710FD2A463346FCF7EA
:10386000B3FDD4E90823FCF708FD2A463346FCF7EC
:10387000ABFDD4E90623FCF700FD2A463346FCF7EE
:10388000A3FDD4E90423FCF7F8FC2A463346FCF7F1
:103890009BFDD4E90223FCF7F0FC2A463346FCF7F3
:1038A00093FDD4E90023BDE8F041FCF7E6BC00003D
:1038B0000022134610460149FCF7F8BD0000F03F16
:1038C000FCF7DBBC0022134610461146FCF7EEBDA8
:1038D00040F2013200204FF0E041FCF756BE0000FC
:1038E000024A00201107FCF750BE000001FDFFFF57
:1038F00002E008C8121F08C1002AFAD170477047B9
:10390000002001E001C1121F002AFBD17047000016
:103910000149086070470000C00100202DE9F34F05
:103920009FB00021FE4D4B006C5C641E00EBC30297
:10393000C0CA209A02EB0412C2E900675B1C00EBCC
:10394000C30318CBC2E90234491C8029EBDB4FF0DA
:103950000008209808F1010100EB0119D9E900AB3A
:10396000D9E90201CDE910015D46119F209800EBD5
:1039700008101D9003C8CDE912011D98C168806828
:10398000CDE91401DDE91201544622465B46FCF7FD
:1039900015FD82468B46DDE91063DDE914013246F0
:1039A000FCF70CFDCDE91001C9E900ABDDE9100120
:1039B000C9E90201DDE912012B462246FCF75DFC54
:1039C000CDE91201DDE914013B463246FCF755FC16
:1039D000CDE91401DDE912211D98C0E90021DDE9DE
:1039E00014211D98C0E9022108F10208B8F17E0FE8
:1039F000AFDD02200A9004200990202004907D2051
:103A00000890BDE04FF000092DE00A984844209945
:103A100001EB001ADAE90045DAE90267209822464C
:103A200000EB09182B46D8E90001FCF7C7FCCAE9EE
:103A30000001D8E9020132463B46FCF7BFFCCAE967
:103A40000201D8E9000122462B46FCF716FCC8E922
:103A50000001D8E9020132463B46FCF70EFCC8E9FA
:103A600002010998814408988145CEDB0120069027
:103A70000498059073E0AB49059801EBC00003C8BA
:103A8000CDE90C01A849059801EBC00003C8CDE9B8
:103A90000E01DDF818A008985044079055E00A98E8
:103AA0005044209901EB001BDBE90289DBE900238C
:103AB000CDE91023DDE90E0142464B46FCF784FCBC
:103AC000DDE9102304460D46DDE90C01FCF77CFC22
:103AD00022462B46FCF772FC04460D460EA80FC882
:103AE000FCF772FC06460F46DDE90C0142464B46E8
:103AF000FCF76AFC32463B46FCF7BFFB06460F4626
:103B00002098224600EB0A182B46D8E90001FCF762
:103B100055FCCBE90001D8E9020132463B46FCF7EF
:103B20004DFCCBE90201D8E9000122462B46FCF707
:103B3000A4FBC8E90001D8E9020132463B46FCF784
:103B40009CFBC8E902010998824407988245A6DBDC
:103B50000698401C0690DDE904100844059005987D
:103B6000402888DB049800EBD0704010049009983E
:103B70000A9009984000099008990A98081A089034
:103B8000049800283FF73EAF2098D0E9008920989C
:103B9000D0E902AB52465B4649464046FCF76DFB16
:103BA000074601221C91FCF7F0FC4FF0FF32FCF7B6
:103BB000ECFC209A03C252465B4649464046FCF75D
:103BC000FDFB064604460D461B9142464B465046B9
:103BD0005946FCF7F3FB22462B46FCF74EFB4FF011
:103BE000FF32FCF7D2FC209AC2E902011B99CDE911
:103BF0001061DDE910010122FCF7C7FC4FF0FF3234
:103C0000FCF7C3FC209A02F5006203C289F0004170
:103C1000404652465B46FCF7D1FB02460B4638460F
:103C20001C99FCF72AFB4FF0FF32FCF7AEFC209A00
:103C300002F6080203C200200B900B9A2098521C37
:103C400000EB02131A93D3E900891A9BD3E90245CA
:103C500033480B998030084443780A930A9B209894
:103C60005B1E199300EB0313189303CBCDE90C01F2
:103C7000189BD3E90201CDE90E012C4800EB02109C
:103C8000D0E902AB0AC8CDE91213294800EB0210B3
:103C9000D0E90212CDE91412C0C8DDE91423DDE930
:103CA0000E01FCF791FBCDE90001DDE90C01324684
:103CB0003B46FCF789FBDDE90023FCF7DEFACDE9A2
:103CC000020152465B4620462946FCF77DFBCDE9C2
:103CD0000001DDE9122340464946FCF775FBDDE9AA
:103CE0000023FCF76BFBDDE90223FCF7C6FA4FF07B
:103CF000FF32FCF74AFC1A9B03C3DDE90E01324692
:103D00003B46FCF761FBCDE90001DDE91423DDE969
:103D10000C01FCF759FBDDE90023FCF74FFB09E040
:103D2000B8940008B8900008B8920008B88000085D
:103D3000B8880008CDE90201DDE9122320462946B2
:103D4000FCF742FBCDE9000152465B46404649463E
:103D5000FCF73AFBDDE90023FCF78FFADDE90223EB
:103D6000FCF78BFA4FF0FF32FCF70FFC1A9BC3E90C
:103D70000201DDE90E0152465B46FCF725FBDDE959
:103D80001223CDE90001DDE90C01FCF71DFBDDE9A3
:103D90000023FCF772FACDE90201DDE91423204685
:103DA0002946FCF711FBCDE9000132463B4640466F
:103DB0004946FCF709FBDDE90023FCF7FFFADDE9E2
:103DC0000223FCF75AFA4FF0FF32FCF7DEFB0B9AA6
:103DD000209B813203EB0212179203C2DDE912230A
:103DE000DDE90E01FCF7F0FACDE90201DDE90C0195
:103DF00052465B46FCF7E8FADDE90223FCF7DEFAFF
:103E000082468B4632463B4620462946FCF7DCFA82
:103E1000DDE9142306460F4640464946FCF7D4FA2E
:103E200032463B46FCF729FA52465B46FCF725FA38
:103E30004FF0FF32FCF7A9FB179AC2E9020198483C
:103E4000199B00EB0310D0E90212CDE91412C0C88F
:103E50009448199B00EB0310D0E90223CDE910230D
:103E6000D0E900ABDDE9102320462946FCF7ACFA87
:103E7000CDE9000152465B4640464946FCF7A4FAAC
:103E8000DDE90023FCF7F9F9DDE91423CDE90201AE
:103E9000DDE90E01FCF798FACDE90001DDE90C013E
:103EA00032463B46FCF790FADDE90023FCF786FA40
:103EB000DDE90223FCF7E1F94FF0FF32FCF765FB87
:103EC000189B03C352465B4620462946FCF77CFA02
:103ED000CDE90001DDE9102340464946FCF774FABC
:103EE000DDE90023FCF76AFACDE90201DDE90E0104
:103EF00032463B46FCF768FACDE90001DDE91423C0
:103F0000DDE90C01FCF760FADDE90023FCF7B5F907
:103F1000DDE90223FCF7B1F94FF0FF32FCF735FB86
:103F2000189BC3E90201DDE9142320462946FCF76A
:103F30004BFACDE9000132463B4640464946FCF784
:103F400043FADDE90023FCF798F9CDE902010EA858
:103F50000FC8FCF739FACDE90001DDE90C01524642
:103F60005B46FCF731FADDE90023FCF727FADDE9CF
:103F70000223FCF782F94FF0FF32FCF706FB0A9BA5
:103F8000209A7F3302EB0312169203C232463B465D
:103F900020462946FCF718FADDE9142304460D46AD
:103FA00040464946FCF710FA22462B46FCF706FA33
:103FB00004460D46DDE90E0152465B46FCF704FA65
:103FC000DDE9102306460F46DDE90C01FCF7FCF99C
:103FD00032463B46FCF751F922462B46FCF74DF999
:103FE0004FF0FF32FCF7D1FA169AC2E902010B98A2
:103FF000401C0B900B983F28FFF61FAE2098D0F87E
:104000000494D0F80084209800F5816030C8012223
:1040100049464046FCF7B9FA00221346FCF7CEF9B0
:104020000646024688460B4600200146FCF725F965
:104030004FF0FF373A46FCF7A8FA209A02F5806263
:1040400003C20022BB0729462046FCF7BDF9024601
:104050000B4600200146FCF710F93A46FCF795FAAA
:10406000209A02F5816203C2304641463A46FCF787
:104070008CFA209A02F5406203C2012229462046AA
:10408000FCF783FA00221346FCF7F7F83A46FCF7F0
:104090007CFA209A02F6084203C221B0BDE8F08FF4
:1040A000B8800008B88800082DE9FC5F8846DDE983
:1040B0000C56834691461946684600F0CBFA002418
:1040C000BDF800004FF4B02141430F0C09F12B0162
:1040D0008BB2A8F10101084482B24946404601F082
:1040E000F5FBDFF8D08059E000220020BDF8003059
:1040F0002BE0DFF8C4C0BDF80210A44411F80CC0D6
:1041000000214FF00109C1F1070A09FA0AFA1AEA77
:104110000C0F08D04FEA152A08F800A008EB000A97
:104120008AF8015007E04FEA162A08F800A008EBC9
:10413000000A8AF80160491CC9B2801CC0B2082973
:10414000E1D3521CD2B2641CA4B2B2EBD30FD0D3D1
:10415000DFF86890B9F8000040F00100A9F800000D
:1041600009F10200018841F002010180DFF850A04E
:104170004FF6FF7000EA43020E49DAF80000FEF73E
:1041800023FBDAF80000FEF73DFB0020FDF79AF86C
:10419000B9F8000040F00200A9F80000BC42A3D327
:1041A0000098CBF80000BDF80400ABF80400BDE8AF
:1041B000FC9F0000C4010020965C00081804024027
:1041C000280000202DE9FF4F87B00746DDE914AB3A
:1041D000904699460025002426A0006804903BE004
:1041E00005EB450000EB0A061AF80010224A707829
:1041F000514300EB4002C2EBC01001EBC000B178AC
:1042000008441E49884214D1381981B204ABCDE963
:10421000008902A8089AFFF747FF0834381981B2CD
:1042200004ABCDE9008902A8089AFFF73DFFE41D21
:10423000A4B2381981B23346CDE9008905A8089A9D
:10424000FFF732FFBDF81400BDF81810401A2044E3
:10425000083084B26D1CEDB25D45C1D3381981B20E
:1042600004ABCDE9008902A8089AFFF71DFF0BB047
:10427000BDE8F08F5F00000040420F0040AEEB024F
:104280002DE9FF5F0646DDE90E9A8B4617469846F4
:104290000024002515E004EB440000EB090370192D
:1042A000CDE9007881B25A4602A8FFF7FDFEBDF8BD
:1042B0000800BDF80C10401A2844083085B2641C70
:1042C000E4B25445E7D3BDE8FF9F00002DE9F34F6A
:1042D00091B0ADF5805D054694490978002901D17A
:1042E00000F026F910A92846FFF718FB4FF0000B45
:1042F00010A800EB0B1ADAE90045DAE9028900227E
:10430000134640464946FCF7A9F90AD16FF0070267
:1043100020462946FCF739F906460F460024254673
:1043200021E00022134620462946FCF797F90AD1DE
:10433000002637466FF0070240464946FCF725F94C
:1043400004460D460FE06FF0070220462946FCF7B1
:104350001CF906460F466FF0070240464946FCF737
:1043600014F904460D46CAE90067CAE902450BF193
:10437000010BBBF1FF0FBBDD00200E900E98C0EBD0
:1043800000210F91491C012944DD01EBD1704FF050
:10439000FF3202EB60024FF0010C0E98801C02E02D
:1043A0004FEA0C2C401C0328FADB501CB1EB400FE9
:1043B00031D14FF0000800200D9028E00F994046C1
:1043C0004144401C0C9001F101080C9810440A90E3
:1043D000002117E00C9843185B1E10A800EB031394
:1043E000D3E90045D3E90267DDF828A08A4400EB51
:1043F0000A1090E8004EA3E8004EC0E90045C0E96D
:104400000267491C9142E5DD0D98401C0D900D9806
:104410006045D3DB4EE000200B900D9047E00F99F4
:104420000B980144401C0C90491C0B910C9800EB1C
:10443000020810AB03EB0810D0E90045D0E9026791
:10444000002125E008EB01090C980844401E0DF1FD
:10445000400A0AEB00100DF5805A10ABCAF8400074
:1044600090E8004C03EB0913C06883E8004CD86067
:104470000DF5805A10AB09F1010903EB0913DAF8C5
:10448000400093E8000EDB6880E8000EC360491C22
:104490009142D7DD08EB0200401C10A901EB00108F
:1044A000C0E90045C0E902670D98401C0D900D98C9
:1044B0006045B4DB0E98401C0E900E980228FFF663
:1044C0005DAF00242546A0460DF1400909EB081117
:1044D0000FC901F095F906460F4622462B46304695
:1044E0003946FCF7D3F801D234463D4608F10108BD
:1044F000B8F1800FEADB0026832707EB460009EBC3
:1045000000110FC901F07CF922462B46FBF7CEFFC4
:104510000DF58052926C02EBC60203C2761C062E89
:10452000EBDB13B00DF5805DBDE8F08F900100204E
:1045300010B501F04BF902490120087010BD0000D0
:10454000900100202DE9F0419446069A0024160AB5
:10455000184DD2B24FF470772E5505EB040888F849
:104560000120A41CBC42F7DB624601F0AFF9124EF9
:10457000308840F001003080B01C018841F0020119
:1045800001800020FCF79EFE00240C4D4FF4A07823
:104590003A4608492868FEF717F9641C4445F7DBDA
:1045A0002868FEF72FF9308840F002003080BDE81F
:1045B000F0810000C40100201804024028000020FF
:1045C00070B514461D460E46002814BF0121002177
:1045D000314321F00041C1F17F6101F1E041C90F98
:1045E00016D1002C14BF01210021294321F00041E4
:1045F000C1F17F6101F1E041C90F09D11449B1EB6B
:10460000460F08BF00281CD0690008BF002C18D036
:104610003146FCF763F9024640F2FF7030EA115070
:104620000DD0F017B0EBE17F09D0084665F31E000E
:1046300084460B4620466146FBF7C3FE0246104601
:1046400070BD0120FFF764F9BDE87040FFF73AB98B
:104650000000E0FF2DE9F0430B78F74A53434A7816
:10466000897802EB4204C4EBC21203EBC202541875
:10467000F24EF349A31B01F1800201F58075B442AB
:1046800079D079DCEF4BF04FF04EA4EB03029C4263
:1046900073D03FDCEE4BA4EB03029C426ED01FDCD8
:1046A000EC4AA4EB0203944269D00DDCEA4AA2185A
:1046B00072D0921971D0E94BDA426FD1CA680260A8
:1046C000098A8180BDE8F0839A1968D0DE4B5B428D
:1046D000DA42F2D1D1F81E200260498C8180F1E7E4
:1046E000D31BBA427DD00BDC92197BD092197AD0C1
:1046F000F242E2D1D1F836200260498F8180E1E7B1
:104700009A1971D0F242D8D18A6C0260B1F84C107B
:104710008180D7E7D24C131BA24271D01ADCA2EBE6
:104720000703BA426DD00BDC92196BD092196AD094
:10473000F242C2D10A6E0260B1F864108180C1E712
:104740009A1975D0F242B8D151F8722F0260898857
:104750008180B7E7C04A52429C1A934269D00FDC6D
:10476000C04A9A1870D0C04BDA42A6D1E96A0160FB
:10477000298E8180A6E708E112E0DEE0BCE0ADE032
:10478000BA4AA21873D0BA4BDA4296D151F87E2FAA
:1047900002608988818095E794E098E0D9E0A3E001
:1047A00043F698294FF47A767700A3EB090441F693
:1047B00058384FF47A6C4B4576D046DCA3F5C0549C
:1047C000A4F55674434570D01EDC63456ED00CDCF6
:1047D000B3426CD0BB426BD0A3F53063B83B88D1F9
:1047E000E4E09AE08DE092E09DE0A3F59853883BE9
:1047F00073D0B34287D1916A0160918D818061E766
:10480000BDE0AEE09FE0A6E041F28835631BAC421C
:104810006FD00FDCBC426DD0A4F53064B83C6AD0D8
:10482000B44286D1116C0160B2F84410818049E72E
:104830009DE04DE1B3426FD0BB4284D152F8521F8C
:104840000160918881803DE736E1A4F5D853583B5B
:1048500044456ED018DC64456CD009DCB4426AD0A3
:10486000BC4269D0A4F53064B83C72D1DDE029E1E6
:10487000A4F59854883C6DD0B4426AD1D16F0160E0
:10488000B2F8801081801DE741F270741A1BA342B8
:1048900073D00EDCB34271D063455AD1D5F80E10F7
:1048A0000160698A81800DE7ADE090E084E071E00D
:1048B00077E0B24274D0BA424BD1296A0160A98C28
:1048C0008180FFE60A68026089888180FAE6D1F873
:1048D0000620026049898180F4E672E0D1F8122056
:1048E0000260C98A8180EDE68A690260898B8180D5
:1048F000E8E67CE071E075E04A6A0260098D81803B
:10490000E0E6D1F82A200260C98D8180DAE60A6BE0
:104910000260898E8180D5E66FE0CA6B0260B1F8D3
:1049200040108180CEE651F8422F02608988818054
:10493000C8E6ABE09EE06CE071E051F84E2F0260FB
:1049400089888180BEE64A6D0260B1F85810818086
:10495000B8E6C2E094E051F85A2F0260898881805D
:10496000B0E651F8662F026089888180AAE6CA6E97
:104970000260B1F870108180A4E692E08CE08A6F4A
:104980000260B1F87C1081809CE651680160118959
:10499000818097E6D2F80A100160D189818091E682
:1049A00084E011690160918A81808BE6D2F816104B
:1049B0000160518B818085E6D1690160118C818015
:1049C00080E6D2F822100160D18C81807AE6D2F89C
:1049D0002E100160518E818074E6516B0160118F41
:1049E00081806FE6516B0160118F81806AE652F819
:1049F000461F01609188818064E6D16C0160B2F845
:104A0000501081805EE6916D0160B2F85C1081808B
:104A100058E652F85E1F01609188818052E6516E1F
:104A20000160B2F8681081804CE652F86A1F01609C
:104A30009188818046E6000040420F00680A680CB9
:104A4000385B000840B7280300093D00C0BDF0FFF7
:104A500080E7BD02005A620200B817FE8072A4FF10
:104A600080969800C0B4B3FF807BE1FFC08782FED0
:104A70008007BFFA116F0160B2F87410818021E6DF
:104A800052F8761F0160918881801BE6D5F80210EC
:104A90000160E988818015E6A9680160A9898180A3
:104AA00010E669690160298B81800BE6D5F81A1040
:104AB0000160E98B818005E6D5F826100160698DDB
:104AC0008180FFE5D5F832100160E98E8180F9E53B
:104AD000A96B0160A98F8180F4E58A6F0260B1F84B
:104AE0007C108180EEE5000010B50948018841F096
:104AF000200101800748FCF7E5FB0548801E01887E
:104B000041F020010180BDE810400348FCF7DABB0A
:104B10001A08024000C31E0020A1070010B5FFF7CD
:104B2000E3FFE02000F094FF002000F0B9FF072031
:104B300000F0B6FF102000F0B3FF092000F0B0FF36
:104B4000172000F0ADFF0B2000F0AAFF402000F07E
:104B5000A7FF8A2000F0A4FF4B2000F0A1FF0A204D
:104B600000F09EFF0D2000F09BFF0F2000F098FF4B
:104B7000152000F095FF162000F092FF0F2000F0A6
:104B80008FFFE12000F064FF002000F089FF1A2071
:104B900000F086FF1B2000F083FF022000F080FF62
:104BA0000D2000F07DFF052000F07AFF302000F09E
:104BB00077FF352000F074FF432000F071FF0220E2
:104BC00000F06EFF0A2000F06BFF092000F068FF84
:104BD000322000F065FF362000F062FF0F2000F069
:104BE0005FFFB12000F034FFA02000F059FFB42097
:104BF00000F02EFF022000F053FFC02000F028FF3D
:104C0000172000F04DFF152000F04AFFC12000F0F2
:104C10001FFF412000F044FFC52000F019FF0020D5
:104C200000F03EFF0A2000F03BFF802000F038FF3C
:104C3000B62000F00DFF022000F032FF362000F019
:104C400007FF482000F02CFF3A2000F001FF55201C
:104C500000F026FFE92000F0FBFE002000F020FF1E
:104C6000F72000F0F5FEA92000F01AFF512000F017
:104C700017FF2C2000F014FF822000F011FF1120FC
:104C800000F0E6FE0448FCF71DFB292000F0E0FEE2
:104C9000BDE8104000F01CB8009E3301FEF720FB79
:104CA000FCF76CFAFBF718FF0020FBF7F7FF012079
:104CB000FBF7F4FFFDF7BCFCFDF724FA012100200F
:104CC000FCF72EF8FCF7AEFEFCF7A2FEFCE70000B6
:104CD0000248018841F01001018070471808024025
:104CE0002DE9F04D1D460C4698B0174621F00041C5
:104CF00023F00043002814BF4FF0010C4FF0000CCC
:104D00000CEB440CFE4A0CEB02064FEA620C6645C3
:104D10002BD33E0018BF012606EB45061644F94A80
:104D2000964222D3F84A53EA070C02D0944205D1A6
:104D300048B918B000201146BDE8F08D002808BF22
:104D40004FF0000C01D04FF0010C0CEB440212F5B7
:104D5000001F0AD8002F14BF4FF0010C4FF0000CB9
:104D60000CEB450212F5001F07D918B03A462B4646
:104D70002146BDE8F04DFEF7A3BD0022DFF88CA36D
:104D8000002CB8BF534526DADFF884C36345A8BFBB
:104D9000022220DADFF870C39C451CDCDFF874C304
:104DA0000CEB235CBCF1140F08DDCCF1340627FAC0
:104DB00006FC0CFA06F6BE420DD108E05FB9CCF154
:104DC000140623FA06FC0CFA06F69E4203D10CF0F8
:104DD0000102C2F1020251EA000C19D1002D17DACA
:104DE000002C18BF022A01D0012A07D00220FEF7AA
:104DF0008FFD18B0BDE8F04DFEF75ABD0220FEF75A
:104E000087FDFEF755FD18B081F00041BDE8F08D3B
:104E1000B7F1000C6CD1534525D104F1804212F555
:104E2000801201BF00280020B74918B008BFBDE8B4
:104E3000F08DB548884207DC002DA1BF60462946A9
:104E400018B0BDE8F08D07E0281E05DA80F00041BB
:104E500018B06046BDE8F08DAF497944D1E9000152
:104E600018B0BDE8F08DDFF8A0C2634525D1002D54
:104E70001FDA19B1514512D1D8B909E0002840F024
:104E8000EC82A24A214618B062F31E01BDE8F08D03
:104E90000020214618B060F31E01BDE8F08D08DA4D
:104EA00018B02346BDE8F04D024600206146FBF7EE
:104EB000FDBA18B02146BDE8F08D514518DAB5F1BC
:104EC000804F0DD0A5F1005CBCF1FF5C10D1B4F1B6
:104ED000000C0DDB18B06146BDE8F04D00F01FBDC1
:104EE000234618B00246BDE8F04D1946FBF76CBAF0
:104EF000060024F0004C3BD1D9B1514533D1002CF0
:104F000006DD002DA1BF0020514618B0BDE8F08D90
:104F1000002C01DD002D1BDB002C13DA002D11DB32
:104F2000012A4FF0000014BF78497C4918B0BDE851
:104F3000F08D022A18BF002C0AD0012A08D1002CBB
:104F400006DA0AE0002CB8BF002D11DA012A04D0DD
:104F5000002018B00146BDE8F08D18B000204FF0D9
:104F60000041BDE8F08DA1F14050B0F17F601AD052
:104F7000012000EBE47050EA020421D0624C521E82
:104F80004FF0000B104304BF4FF0000B644C65481A
:104F900083427CDD644A654893421FDD884217DB0B
:104FA000002D25DB37E0002C00DA4AB1022A0CBFC5
:104FB00001204FF0FF3018B0BDE8F04DFBF7FCBA10
:104FC0000120FEF7A5FC18B0BDE8F04DFEF77ABC55
:104FD0004D4A8A4202DC002D0ADC1CE0814202DAE2
:104FE000002D18DA04E0484B994220DD002D12DD37
:104FF0000220FEF78DFCFEF76BFC05460E460022F4
:10500000534658462146FBF7DFF918B066F31E01F8
:105010002846BDE8F08D0220FEF77AFCFEF760FC22
:105020000A46214618B062F31E01BDE8F08D002249
:1050300030466146FBF7C2F980460E466FF001022A
:10504000FBF7A3FA4FF05532394BFBF7BAF942465A
:105050003346FBF7B9F90022364BFBF7B2F982462B
:1050600042463346049110461946FBF7ADF95246C5
:10507000049BFBF7A9F98A4600904FF0C0422E4BE3
:1050800040463146FBF7A0F92C4A2B4B00E027E0C5
:10509000CDE9060151460098FBF796F98246019149
:1050A000274A284B40463146FBF78EF95246019B72
:1050B000FBF784F982460B4602460591DDE90601BD
:1050C000FBF7DBF8DDE90623002688463046FBF7D0
:1050D00075F95246059BFBF774F9024600F07EB95C
:1050E0000020B1F5801F07DA352230466146FBF714
:1050F0004CFA06466FF0340000EB215024E000002B
:10510000FFFF1F00FFFF0F000000F03F0000F07FD7
:105110000000404301FCFFFFE24700000000F0FFF9
:105120000000F0BF0000E0410000F043FFFFEF3F50
:105130005555D53F0000E03F4715F73FFE822B65F0
:1051400044DF5DF80BAE543EA0F2FF300190C1F396
:10515000130040F07F6141F040510291FE498842C6
:10516000D8BF002004DDFD498142C8BF012001DD18
:105170000D9008E000200D900198401C01900298CD
:10518000A0F5801002900299F54878440B910D9992
:1051900000EBC100D0E900230F9330460A920B992F
:1051A000FBF70CF9CDE90601DDE90A2130460F9B3A
:1051B000FBF763F802460B460020EA49FBF776F955
:1051C000059102460B460090DDE90601FBF7FCF86D
:1051D0001490E5488A464FF0000878440299006828
:1051E00012904FF0005040EA61010D980F9B01EBC7
:1051F000804000F5002109910A9A1298FBF7DEF829
:1052000032460B9BFBF7DDF842465346FBF7DCF8D2
:105210000646029140465146099B129AFBF7D4F884
:10522000DDE90623FBF7CDF83246029BFBF7C6F813
:10523000059B009AFBF7C8F80091149A0490534616
:1052400010461946FBF7C0F806460246C7480B460B
:10525000029106217844FEF7D5FACDE90510029BAC
:10526000324610461946FBF7AFF8DDE90532FBF789
:10527000ABF805910646534640461946149AFAF78C
:10528000FCFF009B049AFBF79FF83246059BFAF758
:10529000F4FFCDE905104246534610461946FBF788
:1052A00093F80022B24B02910A90FAF7E6FFDDE98B
:1052B0000532FAF7E2FF0E464246AD4B4046FBF799
:1052C0007DF8029B0A9AFBF779F8DDE90532FBF7D6
:1052D00078F8424602910A90334610465146FBF751
:1052E00073F8CDE906015346149A02990A98FBF720
:1052F0006BF88A4602903346424600990498FBF7C1
:1053000063F85346029AFAF7B8FF82460B46024604
:105310000591DDE90601FAF7B0FFDDE9062300207B
:1053200088460646FBF74AF85246059BFBF749F8C4
:10533000824609914FF060428E4B30464146FBF762
:1053400043F8049006918C4A8A4B50460999FBF722
:105350003BF882460291894A894B30464146FBF729
:1053600033F85246029BFAF788FF864B7B440D9A2E
:1053700003EBC203D3E90023FAF77FFF0E900791F6
:105380000198FBF719F90591DDE9061382460E9A9B
:105390000498FAF772FF7C4A7A440D9B02EBC30330
:1053A000D3E9002300930292FAF767FF5246059B68
:1053B000FAF763FF0026884652463046059BFAF707
:1053C000FDFF009B029AFAF7F9FF069B049AFAF791
:1053D000F5FF079B0E9AFAF7F4FF024600200B46F2
:1053E000029038462946FAF7EFFF824601912B4694
:1053F00038461946029AFAF7E1FF32464346FAF771
:10540000E3FF5246019BFAF738FF07468A463246C9
:10541000434629460298FAF7D7FF05460E463A4614
:105420005346FAF72AFF594A8846914221DBA8EBF6
:10543000020353EA000210D12A463346FAF7BEFFB0
:10544000CDE90401524A534B38465146FAF715FF4D
:10545000DDE90423FBF71AF921D20220FEF758FAFE
:10546000FEF736FA0A46214618B062F31E01BDE87F
:10547000F08D494B28F000429A4210D3474A08EB7E
:10548000020353EA00027FF4C6AD2A463346FAF718
:1054900095FF3A465346FBF7F9F87FF6BCAD00227C
:1054A000019228F000403E493E4A01EB20518242E1
:1054B00023DA481C4FF4801121FA00F040443A4AA4
:1054C000C0F30A517A44394BA1F2FF31CB4020EAB4
:1054D0000303C0F3130040F48010C1F11401C8406D
:1054E00012680190B8F1000FBCBF404201902846FD
:1054F0003146FAF763FF05460E462A4633463846DC
:105500005146FAF7BAFE4FF000084246284B404693
:105510000591FAF759FFCDE90601264A264B404688
:105520000599FAF751FF009102902A46334640460A
:105530000599FAF743FF3A465346FAF742FF1F4AE6
:105540001F4BFAF741FF009B029AFAF796FE0746B7
:10555000884602460B4635E08E9803007AB60B006B
:105560002A4400000000F03F624400009043000025
:105570000000084009C7EE3FFD033ADCF5015B146B
:10558000E02F3EBE684200002C4200000000904028
:10559000FE822B654715973C00CC904000346F3F4E
:1055A00001FCFFFF0000E03F78410000FFFF0F001B
:1055B000432EE63F396CA80C615C20BEEF39FAFE41
:1055C000422EE63FDDE90601FAF757FEDDE9062344
:1055D00005460E46FAF7F2FE3A464346FAF7F1FE62
:1055E0000F462A463346009010461946FAF7ECFE5D
:1055F000824602462E4888460B4605217844FEF72F
:1056000001F952464346FAF7DFFE2A463346FAF7D7
:10561000D8FE80468A463B4628463146009AFAF72D
:10562000D3FE3B46009AFAF728FE0691009000222E
:105630004FF0804340465146FAF7C0FE0F460C90AB
:105640004246534628463146FAF7BEFE3B460C9A80
:10565000FAF72CFF069B009AFAF7B0FE2A4633466B
:10566000FAF7ACFE0022134BFAF7ABFE05460198A1
:105670000E4601EB00510815002810DC2846314683
:10568000019AFAF782FFFEF7A9F8042808BFFEF78F
:1056900027F928463146019AFAF777FF05460B4667
:1056A00018B02A4658462146BDE8F04DFAF78CBEA0
:1056B000184000000000F03F3EB5002001460122E6
:1056C00002929DF80820012A01D0012200E0002268
:1056D000074C00233AB1012A03D100940193DDE97C
:1056E000000103B030BD01940093DDE90001F8E74B
:1056F0000000F07F4FF0FF40704700003EB50020F3
:105700000146012202929DF80820012A01D00122BF
:1057100000E00022074C00233AB1012A03D1009493
:105720000193DDE9000103B030BD01940093DDE990
:105730000001F8E70000F0FF00487047000080FF1C
:105740000EB500200146012202929DF80820012A90
:1057500001D0012200E0002252B1012A06D16FF0EF
:1057600000400090901E0190DDE9000103B000BDF3
:105770000348019000200090DDE90001F6E70000F9
:105780000000F8FF0CB500200190012000909DF86A
:105790000000012801D0012000E0002010B1012804
:1057A00006D102E00348019002E06FF00040019052
:1057B00001980CBD0000C0FF10B502460B46FAF779
:1057C0004DFF01D0012010BD002010BD10B5FFF726
:1057D000B7FF0A4CC4E90801FFF7D4FFA060FFF748
:1057E0006BFFC4E90401FFF785FF2060FFF786FF28
:1057F000C4E90601FFF7A0FF606010BD980100201A
:105800002DE9F041DFF8B480044621F0004516464A
:1058100023F0004732463B4620462946FAF71EFF52
:1058200019D232463B4620462946FAF73FFE044647
:105830000D4622462B4620462946FAF7C5FD002292
:105840004346FAF71AFD00F06AF832463B46BDE8D7
:10585000F041FAF7B9BD32463B4620462946FAF7F1
:1058600015FF19D222462B4630463946FAF71EFE5E
:1058700006460F4632463B4630463946FAF7A4FD07
:1058800000224346FAF7F9FC00F049F822462B467D
:10589000BDE8F041FAF798BD30463946FFF78CFF76
:1058A00018B1074903C9BDE8F08120462946BDE883
:1058B000F041044A044BFAF787BD00000000F03FB6
:1058C000B8010020CD3B7F669EA0F63F2DE9F04158
:1058D00004460D4616461F462A2000F0B9F8200A55
:1058E00000F0DEF8E0B200F0DBF8300A00F0D8F8A3
:1058F000F0B200F0D5F82B2000F0AAF8280A00F04A
:10590000CFF8E8B200F0CCF8380A00F0C9F8F8B2E5
:1059100000F0C6F8BDE8F0412C2000F099B82DE960
:10592000F04106460F46FAF788FF041E0D4618BFE1
:105930000120284320F00040C0F17F6000F1E040EA
:10594000C00F0ED0301C18BF0120384320F000409B
:10595000C0F17F6000F1E040C00F04BF0120FDF7FF
:10596000D7FF20462946BDE8F0810000102949D222
:10597000DFE801F0080C1014181C2024282C303407
:10598000383C4044014621A0FBF770BB014620A0F3
:10599000FBF76CBB01461FA0FBF768BB01461EA0CE
:1059A000FBF764BB01461DA0FBF760BB01461CA0D2
:1059B000FBF75CBB01461BA0FBF758BB01461AA0D6
:1059C000FBF754BB014619A0FBF750BB014618A0DA
:1059D000FBF74CBB014617A0FBF748BB014616A0DE
:1059E000FBF744BB014615A0FBF740BB014614A0E2
:1059F000FBF73CBB014613A0FBF738BB014612A0E6
:105A0000FBF734BB014611A0FBF730BB30000000B0
:105A100031000000320000003300000034000000BC
:105A2000350000003600000037000000380000009C
:105A300039000000D0900000D0920000D0A10000FA
:105A400044000000D0950000460000003F00000028
:105A500031B51148018841F001010180018841F010
:105A6000020101800020FBF72DFC0C4C012269464D
:105A70002068FCF7A9FE2068FCF7C4FE0020FBF7B5
:105A800021FC0548801E018841F0020101800020B0
:105A9000FBF718FC38BD00001A0402402800002063
:105AA00031B5104C208840F001002080A01C0188F6
:105AB00041F0020101800020FBF704FC0A4D0122A5
:105AC00069462868FCF780FE2868FCF79BFE0020EA
:105AD000FBF7F8FB208840F0020020800020FBF755
