:020000040800F2
:1000000048780120AD010008912200081519000868
:1000100065220008F30F0008C53600080000000044
:100020000000000000000000000000007F28000821
:10003000F31100080000000039230008212C0008FB
:10004000C7010008C7010008C7010008C701000870
:10005000C7010008C7010008C701000855160008BD
:10006000C7010008C7010008C7010008C701000850
:10007000C7010008C7010008C7010008C701000840
:10008000C7010008C7010008D30A0008C70100081B
:10009000C7010008C7010008C7010008C701000820
:1000A000C7010008C7010008C7010008C701000810
:1000B0001D2E0008E12E0008712F0008C70100085E
:1000C000C7010008C7010008C7010008A1250008F2
:1000D000C70100080D320008C7010008C701000869
:1000E000C7010008C7010008C7010008C7010008D0
:1000F000C7010008C7010008C7010008C7010008C0
:10010000C7010008C7010008C7010008C7010008AF
:10011000C7010008C7010008C7010008C70100089F
:10012000C7010008C7010008C7010008C70100088F
:10013000C7010008C7010008C7010008C70100087F
:10014000C7010008C7010008C7010008C70100086F
:10015000C7010008C7010008C7010008C70100085F
:10016000C7010008C7010008C7010008C70100084F
:10017000C7010008C7010008C7010008000000000F
:10018000C7010008C7010008C7010008C70100082F
:10019000C7010008DFF810D000F0E4FB004800477A
:1001A0000D4D0008AFF300804878012006488047D5
:1001B00006480047FEE7FEE7FEE7FEE7FEE7FEE74C
:1001C000FEE7FEE7FEE7FEE7ED2C000895010008DC
:1001D0002DE9F0410024061B254671F1000605DAE1
:1001E00001240027D0EB070067EB0101161E73F115
:1001F000000605DA0027D2EB0702012567EB0303AF
:1002000000F05CFA86460E4617469C46AC4204D087
:100210000025D0EB050E65EB010624B10020D2EBE2
:10022000000760EB030C704631463A466346BDE872
:10023000F08140EA01039B0703D009E008C9121FBF
:1002400008C0042AFAD203E011F8013B00F8013B90
:10025000521EF9D27047D2B201E000F8012B491EBC
:10026000FBD270470022F6E710B513460A46044653
:100270001946FFF7F0FF204610BD2DE9FE4F8046DE
:1002800081EA0300C00F0C46009021F0004123F0EA
:100290000045B8EB0200A94105D2404621469046F0
:1002A0001C460B46024623F00040104347D0270D62
:1002B000C7F30A00C3F30A510290401A0190402884
:1002C0006BDAC3F3130040F4801B0098924620B110
:1002D0000023D2EB030A63EB0B0B01985946C0F1E4
:1002E0004002504600F01BFA06460D46504659465D
:1002F000019A00F033FA10EB08006141002487EA0C
:10030000115284EAE7731A4340D0009A62B3019A0B
:10031000012A4FEA075215DC001B61EB02014FF086
:10032000004202EA0752CDE90042001C41F580116B
:1003300032462B4600F033FA03B0BDE8F08F40465A
:100340002146F9E7001B61EB0201001C41F5801317
:1003500000185B412018A2F5001747EB030140EAA3
:10036000D570B6196D4111E06D084FEA360645EAC1
:10037000C0754FEA0752001B61EB0201001C41F5FA
:10038000801149084FEA30000019514132462B468E
:1003900003B0BDE8F04F00F0F3B90098012240002F
:1003A0000023D0EB020263EBE073009821464FEA92
:1003B000E074B8EB000061EB0401E9E783F000436F
:1003C0005BE781F0004158E72DE9FE4F81EA030425
:1003D00004F0004421F0004100944FF0000B23F0A2
:1003E000004350EA01045ED052EA03045BD0C3F339
:1003F0000A54C1F30A552C44A4F2F3340194A0FB2F
:100400000254C1F3130141F48011C3F3130343F405
:10041000801301FB024400FB034E840A970A44EA5E
:10042000815447EA8357A4FB076802958D0A05FBB0
:1004300007854FEA932C04FB0C542705029D4FEAD5
:10044000065847EA1637B5EB08056EEB070C870E22
:10045000920E47EA811742EA8312A7FB0201B6EB2C
:100460000B0164EB00042B0D43EA0C335E1844EBE4
:100470001C50DA465146E7FB0201C5F313044FEA6C
:100480000B3343EA14534FEA0432019C43EA060358
:10049000A4F10C040294009CCDE900B400F07FF9B3
:1004A00003B0BDE8F08F00200146F9E72DE9F04DDB
:1004B00081EA030404F0004B21F0004514464FF09C
:1004C000000A23F0004150EA050220D054EA01025C
:1004D0001DD0C5F30A570246C5F31303C1F3130039
:1004E000C1F30A5640F4801543F48013A7EB0608C5
:1004F000101BD64608F2FD3873EB050002D308F155
:10050000010801E092185B41B8F1000F03DA002006
:100510000146BDE8F08D00204FF480110646844668
:100520000EE0171B73EB050705D3121B63EB0503E6
:1005300006434CEA010C49084FEA300092185B412F
:1005400050EA0107EDD152EA030012D082EA04001A
:1005500083EA0501084305D0101BAB4106D20122F6
:10056000002306E000224FF0004302E06FF001029A
:1005700053101AEB06004CEB085110EB0A0041EB4C
:100580000B01BDE8F04D00F0FBB870B521F0004361
:1005900003430CD0C1F30A550024D5EB040564EBEA
:1005A0000403D617AD1AB34102DB0020014670BD2B
:1005B000201841EB025170BD0EB5C10F80EAE0700A
:1005C0000844CA07002140F233438DE80E000A4672
:1005D0000B4600F0E4F803B000BD0EB540F2334125
:1005E00002910021CDE900110A460B4600F0D7F830
:1005F00003B000BD3EB5CA17CB0F00245040514098
:10060000C0186141DA0740F233430094CDE9012379
:100610002246234600F0C3F803B030BD70B5C1F3E5
:100620000A5201F000450024C1F3130140F2FF33E8
:1006300041F480119A4201DA002070BD40F2334348
:100640009A42A2F2334203DC524200F077F800E013
:1006500090402C43F1D0404270BD000030B5041EE4
:1006600071F1000404DB4FF00044404264EB0101EF
:10067000141E73F1000405DB1C464FF00043524288
:1006800063EB04038B4208BF824230BD30B5041EC9
:1006900071F1000404DB4FF00044404264EB0101BF
:1006A000141E73F1000405DB1C464FF00043524258
:1006B00063EB0403994208BF904230BD2DE9F05F1F
:1006C0000546002092469B468846064681464024C1
:1006D0001BE0284641464746224600F02FF8534685
:1006E0005A46C01A914110D311461846224600F0CE
:1006F00016F82D1A67EB01084F462246012000210B
:1007000000F00DF817EB00094E41201EA4F1010482
:10071000DFDC484631462A464346BDE8F09F202AA2
:1007200004DB203A00FA02F1002070479140C2F148
:10073000200320FA03F3194390407047202A04DB7A
:10074000203A21FA02F00021704721FA02F3D0404A
:10075000C2F120029140084319467047202A06DB67
:10076000CB17203A41FA02F043EAE07306E041FA7F
:1007700002F3D040C2F1200291400843194670476D
:1007800010B5141E73F1000408DA401C41F1000199
:1007900092185B411A4301D120F0010010BD2DE9F0
:1007A000F04D92469B4611B1B1FA81F202E0B0FAE7
:1007B00080F220329046FFF7B2FF04460F4640EA2F
:1007C0000A0041EA0B0153465A46084313D011462A
:1007D00053EA010019D0C8F140025046FFF7AEFFBE
:1007E00005460E46504659464246FFF798FF0843D5
:1007F00005D0012004E020463946BDE8F08D0020F8
:10080000054346EAE0762C4337430A986305E40A39
:10081000A0EB08000022FD0A44EA47540A3002D542
:1008200000200146E9E7010510196941DDE90845A5
:1008300000196941BDE8F04DA2E72DE9F04D002314
:100840001A461B1A8A4103DB00200146BDE8F08DE1
:10085000C1F30A52C1F3130141F480154FF0000BAC
:10086000D10702D100186D41521E0027044640F204
:10087000FF11384601EB620A3E46804602460020E0
:100880004FF48011FFF75AFFC2197141BB1846EBB4
:100890000100B4EB030C75EB000C04D3E41A65EB18
:1008A000000517460E46241908F101006D418046E7
:1008B0003428E3DDF91946EB0600091BA84103D2F1
:1008C0004FF0FF32134601E0002213461BEB0700F6
:1008D00046EB0A51BDE8F04DFFF752BF2DE9FE4F40
:1008E000C3F30A5701F000450024C1F30A56C3F3CD
:1008F0001303C1F3130143F4801312EB020AA6465B
:1009000041F48011009543EB030CA7F1010B16E0B5
:10091000B0EB0A0061EB0C01071E71F1000707DA6A
:100920004FF00008D0EB080085F0004568EB0101AE
:10093000171A73EB0107EBD3761E001849415E4589
:10094000F6DA50EA010209D0CDE900E500221346AB
:100950000296FFF724FF03B0BDE8F08F2046009910
:10096000F9E70000064C074D06E0E06840F001039F
:1009700094E8070098471034AC42F6D3FFF70EFC1A
:10098000C0960008E096000870B58C1810F8015B5E
:1009900015F0070301D110F8013B2A1106D110F818
:1009A000012B03E010F8016B01F8016B5B1EF9D11C
:1009B0002B0705D40023521E0DD401F8013BFAE7A2
:1009C00010F8013BCB1A921C03E013F8015B01F80D
:1009D000015B521EF9D5A142D8D3002070BDC94396
:1009E000016070470B78426863F3196242604B788C
:1009F000426863F308224260CB78826863F31D7219
:100A000082600B79826863F31B6282604B79826833
:100A100063F3CB2282608B78826863F34102826049
:100A20008979C26A491E61F31752C262704770B574
:100A3000072609290AD9C568A1F10A0404EB440470
:100A4000A640B543A3401D43C56007E0056901EB1F
:100A50004104A640B543A3401D4305611F23072A57
:100A600009D2446B521E02EB820293409C43914098
:100A70000C43446370BD0D2A09D2046BD21F02EBF4
:100A8000820293409C4391400C43046370BDC46A4E
:100A90000D3A02EB820293409C4391400C43C462A6
:100AA00070BD0021017041708170C1700171417190
:100AB000012181717047816821F0010181607047D7
:100AC000816841F001018160704742680A434260D9
:100AD000704700F051B800007FB5012001F046FCDE
:100AE00002A800F0DCFE03208DF80A0000248DF837
:100AF0000D400125ADF8085002A9184800F076FE17
:100B0000280201F04BFC00F05BF86846FFF7C9FFD4
:100B10008DF800408DF802508DF805408DF80340A7
:100B20008DF801400E4C69462046FFF75BFF042319
:100B3000012200212046FFF77AFFA9062046FFF791
:100B4000C4FF01221146122001F0AEFB2046FFF740
:100B5000B7FF204600F062F87FBD000000000240B1
:100B600000200140C06C80B270470068084201D08C
:100B7000012070470020704770B50F4D2021284696
:100B8000FFF7F3FF0D4C01280DD12846FFF793FF27
:100B9000FFF7A2FF2178491C217000F01DF82021E9
:100BA0002846FFF71CFF2078052803D3BDE87040D6
:100BB00000F0CEBD70BD00000020014030000020DC
:100BC00010B54FF48074204601F0F0FB2046BDE8DC
:100BD000104001F0C3BB00001FB50B4C0D21206875
:100BE00002F04CFC09A090E80E00C0688DE80E00F1
:100BF00003900F226946206802F050FD0D21206805
:100C000002F03CFC1FBD00002C00002041444320AA
:100C10004552524F5220524553455400816841F08D
:100C200080418160704700002DE9FC41064668461E
:100C300000F035FE012001F099FB102001F0AEFB21
:100C4000164D07220921284600F00EFE07220A2130
:100C5000284600F009FE02248DF802402002ADF87B
:100C600000008DF803406946284600F0BFFD0C4F98
:100C70003146384602F0D4FA8DF802406002ADF8F1
:100C800000006946284600F0B1FD3146384602F0C2
:100C9000C7FA384602F041FBBDE8FC810000024083
:100CA000001001407CB504460F4850F8240001F0C4
:100CB0005DFB684600F0F3FD0B4D103D35F8140068
:100CC000ADF8000001208DF8020002208DF803002D
:100CD000064E694656F8240000F088FD56F82410A8
:100CE00035F8140008837CBD845B000800000020F8
:100CF000044951F820100A8B034B33F810000243CB
:100D00000A83704700000020745B0008044951F812
:100D100020104A8B034B33F8100002434A8370477C
:100D200000000020745B00082DE9FF4104460F46D7
:100D30001F4850F8240001F019FB02A800F0AFFD95
:100D400000268DF80A601A48143830F81400ADF8FF
:100D5000080001258DF80D50164802A950F824000E
:100D600000F044FD012F21D1A80301F017FB01F091
:100D7000B3FD0F482238015D801E005D01F080FD4B
:100D80000B48083050F8240000908DF804600C20C7
:100D90008DF805008DF80650684600F063FC0448A5
:100DA0000F2220380021005701F07EFABDE8FF81B4
:100DB0008C5B0008080000202DE9F34F89B0002665
:100DC0003746B046C146B246D3460020049005904F
:100DD00003900290019053E00199099800EBC10043
:100DE00030C80022464B29462046FFF74FFC15D25B
:100DF0000022134640464946FFF730FC0ED24246D9
:100E00004B4650465946FFF738FA82468B460298C1
:100E1000401C80B202904FF00008C1460022394BBE
:100E200020462946FFF71AFC14D20022134630460A
:100E30003946FFF72BFC0DD2DDE9040132463B4673
:100E4000FFF71BFACDE904010398401C80B2039020
:100E50000026374642464B4620462946FFF7FEFB12
:100E600001D2A046A94632463B4620462946FFF716
:100E70000DFC01D226462F460198401C80B20190FD
:100E80000A9901988842A7D30298FFF7A6FB024669
:100E90000B4650465946FFF709FB04460D4603989A
:100EA000FFF79BFB02460B46DDE90401FFF7FEFA64
:100EB00022462B46FFF782FA04460D46124E0D21BC
:100EC000306802F0DBFA11A003C8CDE90701052262
:100ED00007A9306802F0E2FB0320009022462B466F
:100EE000306802F0DFFA0BA000680690022206A923
:100EF000306802F0D3FB0BB020462946BDE8F08FE6
:100F000000007940000079C02C0000204156473A8B
:100F1000200000006D5600000448012242700021AC
:100F20008180C1800170018182707047780100204A
:100F3000F0B5DDE90547641E24B202260CE0E51B8E
:100F400006D410F805C002F804C04D5D1D5501E03F
:100F500016551E55641E24B2002CF0DAF0BD86280A
:100F600037D012DC4A282CD008DC012821D01F28D9
:100F700021D02C2821D0322817D120E0542822D08B
:100F8000672822D0792810D121E0CD2829D006DC8D
:100F9000982820D0AB2820D0B52806D11FE0D32830
:100FA00021D0E02821D0FE2821D001200870FF2088
:100FB00070470020704701207047022070470320CF
:100FC00070470420704705207047062070470720AF
:100FD000704708207047092070470A2070470B208F
:100FE00070470C2070470D2070470E2070470F206F
:100FF0007047FEE72DE9F0470446DDF820800D46F6
:101000001A4EDFF86C9001277078002802D001207A
:10101000BDE8F08720462946FFF738FB02D2C9E930
:10102000004501E0C9E90245B9E80F00FFF7C6F93C
:10103000D6E90223FFF72AFB15D277700021C8F802
:101040000010C8F804100022134620462946FFF776
:101050001DFB01D2377101E0FF2030710020FFF746
:1010600055FE0120D4E70020D2E70000C000002098
:10107000880500200022835C8B54521CD2B2032AC4
:10108000F9D370472DE9F84F81468A460025A846D6
:10109000AB46CDF800B000264FF0000C00278024AE
:1010A000002000EBC60119F801E00EFB04CC1FFA8A
:1010B0008CFC1AF8011001FB04718FB26408401C0B
:1010C0000828EEDB69466046FFF749FF044669469B
:1010D0003846FFF744FF9DF8001049B1CDF800B045
:1010E000761C052ED8DB022D0FD2012010700EE0E9
:1010F00000EB041080B22DB14045F1D180466D1C4B
:10110000EDB2EDE780460125EAE782F800B01D70F8
:101110004046BDE8F88F000030B5084C236840F623
:10112000FE72824093430A788D782A438D884978ED
:101130000D432A4382401A43226030BD00740040B0
:1011400008B5034A1044083000900098016008BDBB
:1011500000740040002101708170818041707047EF
:101160000749002806D0102803D1086840F48030D1
:1011700008607047086840F0010008607047000090
:10118000007400401FB5012001F0F0F802A800F043
:1011900086FB03208DF80A0000248DF80D401020F6
:1011A000ADF8080002A90D4800F020FB4FF00050F8
:1011B00001F0E4F86846FFF7CDFF8DF800408DF8A8
:1011C0000240ADF804408DF8014069460020FFF769
:1011D000A3FF0020FFF7C4FF1FBD00000000024076
:1011E00040F6FF710020FFF7ABBF00210846FFF774
:1011F000A7BF70472DE9F04399B080468946002487
:101200000025334E28271895179528210DA8FFF79C
:1012100029F8282103A8FFF725F8CDE9007403ABCE
:101220000DAA49464046FFF783FE17AB18AA03A94B
:101230000DA8FFF727FF9DF8601081B1641CA4B2D0
:10124000082CE0D303222349306802F027FA20213A
:10125000306802F013F9012019B0BDE8F0830109EC
:1012600000F00F0001EB0014A02C07D2302000EB9F
:101270001410C1B2306802F001F906E0372000EB2B
:101280001410C1B2306802F0F9F804F00F010A2915
:1012900004D23031306802F0F1F803E037313068C1
:1012A00002F0ECF82021306802F0E8F89DF85C00CC
:1012B0003030C1B2306802F0E1F8204601F0CAFBDC
:1012C000014605480CC8204600F042FC0020C3E758
:1012D0002C000020820100206801002008B5009049
:1012E0000098411E0091FBD208BD00002DE9FF4F80
:1012F000EDB04FF4A4711AA8FEF7B4FFC54EC64F67
:101300004FF00008C146B80701F0AAFE72B62821C6
:1013100010A8FEF7A7FF282106A8FEF7A3FFBF48E5
:101320000D21006802F0AAF84FF0000A6E98B0F89C
:1013300002B030E06D98324600EBCA003B4630C840
:1013400020462946FFF7B2F8FFF768F9FFF734F9AE
:1013500032463B46FFF738F822462B46FFF731F876
:10136000AF4CB04B2246FFF72FF832463B46FFF713
:101370009DF82246AC4BFFF721F804460D46224665
:101380002B4640464946FEF778FF804689460AF1DB
:10139000010A0AF0FF0AD345CCD20022A34B4046F3
:1013A0004946FFF783F8CDE91A0132463B46FFF77D
:1013B0000BF89B4A9B4BFFF779F8804689464FF024
:1013C000010A022005904FF0000B002004900390CA
:1013D000029005986E99401E0A4631F81000059952
:1013E000401C32F8111088427ED880B201906BE028
:1013F00001996D98424600EBC1014B4603C9FEF7C7
:10140000DDFF32463B4603F013F9854C854B2246FF
:10141000FEF7DAFF32463B46FFF748F82246824B9A
:10142000FEF7CCFF04460D4600221346204629460F
:10143000FFF714F907D27A4A7A4B20462946FEF77D
:101440001CFF04460D46764A794B20462946FFF795
:1014500005F906D3774A784B20462946FFF716F957
:1014600004D80BF1010B0BF0FF0B29E06C4A704B19
:1014700020462946FFF70AF90BD8704A704B2046E0
:101480002946FFF7EBF804D20498401CC0B2049040
:1014900016E06A4A6A4B20462946FFF7F7F80BD850
:1014A000684A694B20462946FFF7D8F804D20398CA
:1014B000401CC0B2039003E00298401CC0B20290EE
:1014C0000198401C80B2019005996E9830F8111077
:1014D000019881428CD20498834517D303988345A1
:1014E00014D90298834500E07FE00FD31AA800EBDF
:1014F000CA0000210160416010A95144002001F898
:10150000010C06A9514401F8010C52E00498584519
:1015100019D9DDE90310884215D30299049888424D
:1015200011D91AA8494900EBCA003D4AC0E9002177
:1015300010A95144012001F8010C06A951440020D2
:1015400001F8010C35E00398584517D9DDE903018E
:10155000884213D9DDE9021088420FD31AA8304916
:1015600000EBCA00304A06C010A95144012001F81E
:10157000010C06A9514401F8010C1AE002985845E3
:1015800017D904990298884213D9DDE902108142E3
:101590000FD91AA8294900EBCA002D4A06C010A885
:1015A0005044002100F8011C06A85044012100F815
:1015B000011C1AA800EBCA01324603C93B46FEF7DC
:1015C00003FF174A174BFEF771FF42464B46FEF7E3
:1015D00054FE804689460AF1010A0598401C80B2F3
:1015E000059005982A28FFF4EEAE06A910A8FFF78B
:1015F00001FE002110AA06AC6F9B555C5D54709BE8
:10160000655C5D54491CC9B22829F5D362B671B036
:10161000BDE8F08FE3642A35CD92333F2C000020E3
:10162000EA2E4454FB211940FB21094000003C40B4
:10163000FB21E93F0DA9BBE9BBFD15403023337FFA
:101640007CD90240A43A55297A6A0F40FB21F93F20
:101650007CD9124000F03EBA014908607047000092
:10166000143C014030B51B4A83790168002B2AD015
:1016700013688B431360111D0B680468A3430B6050
:10168000017911440B68046823430B60114C083442
:101690002168036899432160231D19680568A943DF
:1016A00019604179102905D011440A680068024385
:1016B0000A6030BD21680268114321601968006822
:1016C0000143196030BD0079104402688A4302600A
:1016D00030BD0000003C014001460020054A126870
:1016E0000A40044B14331B680B4202D0002A00D07E
:1016F00001207047003C01402DE9F0410446069E60
:101700000D46DFF84480114F20462946FEF7BEFF04
:1017100002D2C8E9004501E0C8E90245B8E80F0077
:10172000FEF74CFED7E90223FEF798FF03D2F888B4
:10173000401CF88001E00020F880F888202801D9BA
:1017400001203070BDE8F08188050020C000002035
:1017500086B00020FFF7DAFA0120FFF7D7FA4FF43E
:101760007840002100904FF4F0734FF4A0720846C7
:1017700002F020FF142206A101A8FEF75AFD094835
:10178000122201A9006801F089FFFFF729FDFEE799
:1017900053595354454D20464154414C20455252D3
:1017A0004F5200002C00002010B50020044A0024F5
:1017B00002EBC0010C604C60401C0A28F7DB10BD36
:1017C000D073012010B50121880701F0FFFB012132
:1017D000044801F0FBFBBDE8104002210248FFF77E
:1017E000FEB8000000040040002001402DE9F04157
:1017F000002201274FF0030C07FA02F50B882B405B
:10180000AB422CD1066853000CFA03F4A6430660E1
:101810008E78D0F800809E4046EA080606608E78F2
:10182000012E01D0022E12D18668A6438660CE78A2
:10183000D0F808809E4046EA080686604668AE43B7
:10184000466045680E799640B6B235434560C56836
:10185000A543C5604C799C40C3681C43C460521CBE
:10186000102AC9D3BDE8F08110B5CC084FEA417108
:101870004FEAD1634FF00F0102FA03F201FA03F1CC
:1018800006D0436A8B434362416A1143416210BDF3
:10189000036A8B430362016A1143016210BD4FF674
:1018A000FF71018000218170C17001714171704729
:1018B00010B50A48FFF756F940F6E441484340F6B0
:1018C000FF71B0FBF1F0FEF788FE0022044BFEF73B
:1018D00075FD044B00221A7010BD0000002001406D
:1018E00000709740300000200148007970470000E8
:1018F000C00000200549002088704870C880044856
:101900000022026042608260C2607047C000002016
:1019100088050020FEE700002DE9F05F81468A4639
:101920002A4F484651460CCFFEF74EFD04460D4661
:101930000126A7F11000B0F90080C34615E0234846
:1019400000EBC6000CC8224800EBC80103C9FEF733
:101950003BFD22462B46FEF790FC04460D46761CC6
:10196000B6B208F101080FFA88F8B8F10A0FE6DB01
:101970000027DFF85C8012E0144808EBC70100EB99
:10198000C6000CC803C9FEF71FFD22462B46FEF712
:1019900074FC04460D46761CB6B27F1C3FB25F4510
:1019A000EADB0A49ABF1010B08390FFA8BF008802A
:1019B000002801DA09200880B1F9000008EBC00016
:1019C000C0E9009A20462946BDE8F09F08010020A2
:1019D000D07301200149486070470000003000408A
:1019E0000149886070470000003000400349002230
:1019F0000A600A688242FCD3704700006001002040
:101A000002494CF6CC4008607047000000300040AE
:101A1000034845F25552016862F30F0101607047B7
:101A20000030004002494AF6AA20086070470000D2
:101A3000003000401FB540F21D2000F031FD0128AC
:101A400012D10AA090E80E00C0688DE80E00039045
:101A50000A4C10226946206801F020FE0D21206802
:101A600001F00CFD00F06AFC1FBD0000574454203B
:101A700053595354454D2052455345542C00002092
:101A800010B54FF49670FFF7B1FFBDE81040FFF7B7
:101A9000C9BF000010B543F67F614FF0E0204161FF
:101AA0000B4AF02111700021816107210161FFF7CC
:101AB000C1FFFFF7ADFF0320FFF78CFF4FF47A70F3
:101AC000FFF78EFFFFF7AEFFBDE81040FFF798BFAE
:101AD00023ED00E010B50220FFF7FEFD00282FD017
:101AE0001848FFF7FBFBFFF76DFE174C207888B115
:101AF00000F0F0F800202070144801F0B1FAFFF770
:101B000053FE01F0E1FD00F0AFFB01F089F900F0B8
:101B1000A5FA0EE000F02AFA01202070800701F0FB
:101B20009FFA00F081FF00F09FFB01F0DBF900F06D
:101B300095FA01F01FFABDE810400220FFF78CBDB6
:101B400010BD000080969800900100200004004025
:101B50002DE9F04F89B005460C4616461F4672B671
:101B6000DFF85C9140F6991A99F80000002804D03B
:101B7000A9F802A0534801F078FA53484FF0020840
:101B800080F80080002089F80000B9F802004FF6C4
:101B9000FF7B504508D14FF4F072134664219B201F
:101BA000CDF800B002F006FD32463B464FF4C87156
:101BB000B42000F007FBB9F80200854268D0A9F80C
:101BC00002504FF4AF725E46134664219B20CDF85D
:101BD00000B002F0EFFC3D48D0E903124069CDE9C6
:101BE0000612089006AF2909B81D03F0FDFE05F0A6
:101BF0000F010DF1210003F0F7FE0420CDE9007084
:101C00003346002264219B2002F072FB3048A4F589
:101C10001C514FF496770F393DD0C1688068CDE9EB
:101C200004014FF47A75B4FBF5F104A803F0DCFE6F
:101C3000B4FBF5F005FB10406425B0FBF5F10DF1A8
:101C400010090DF1130003F0CFFECDE900983346E3
:101C50000022C821DC2002F04BFBB4FBF5F005FBB1
:101C600010400A25B0FBF5F104A803F0BDFEB4FB5B
:101C7000F5F005FB104109F1030003F0B5FECDE9D5
:101C80000098334600223946DC2002F031FB62B670
:101C900009B0BDE8F08F03C8CDE9020102ACCDE97F
:101CA000004833460022C821DC2002F021FBCDE9A8
:101CB0000048334600223946DC2002F019FBE7E7F2
:101CC0003200002000080040DA000020F480000804
:101CD000F45C00087CB54FF6FF7500214FF4F073FB
:101CE0004FF4A0720846009502F064FC04241A48E0
:101CF000CDE900042B464FF478420521552002F02F
:101D0000F7FA15482B460C30CDE900040022642177
:101D1000052002F0EDFA10482B461830CDE90004FA
:101D20000022C821052002F0E3FA0B482B4624309C
:101D3000CDE9000400224FF49671052002F0D8FA94
:101D400005482B463030CDE9000400224FF4C8711D
:101D5000052002F0CDFA7CBD570000202DE9F047A8
:101D600088B0044615461E46DFF8E89140F6991AF9
:101D700099F80000002804D0A9F802A0764801F0E4
:101D800074F97649022008704FF0000889F8008045
:101D9000B9F802004FF6FF77504507D14FF4F072C3
:101DA000134664219B20009702F004FC2A46334628
:101DB0004FF49671B42000F005FAB9F8020084429D
:101DC00005D16748FFF78AFA08B0BDE8F087A9F89F
:101DD0000240544507D04FF4A072134664219B2063
:101DE000009702F0E7FB5F4905ADD1E90723886959
:101DF0000DC5D1E90902C96ACDE90321029002AEFD
:101E000005ADE12C49D006DC4B2C0BD07D2C1AD033
:101E1000AF2C17D12CE0A4F58074133C52D0322C97
:101E200010D160E00721E81C03F0DEFD0521A81DAC
:101E300003F0DAFD0821F01C03F0D6FD0021B01DEF
:101E400003F0D2FD71E0012105A803F0CDFD0221D0
:101E5000E81C03F0C9FD0521A81D03F0C5FD0721FD
:101E6000F01C03F0C1FD0021B01D03F0BDFD5CE0DE
:101E7000012105A803F0B8FD0721E81C03F0B4FD1B
:101E80000521A81D03F0B0FD0621F01C03F0ACFDF8
:101E90000021B01D03F0A8FD47E0022105A803F0D2
:101EA000A3FD0221E81C03F09FFD0521A81D03F0FE
:101EB0009BFD0421F01C03F097FD0021B01D03F0F1
:101EC00093FD32E0022105A803F08EFD0721E81CF6
:101ED00003F08AFD0521A81D03F086FD0021B01D39
:101EE00003F082FD21E0032105A803F07DFD02211E
:101EF000E81C03F079FD0521A81D03F075FDD02035
:101F00008DF8080092218DF809108DF80A808DF85F
:101F10000B00A0218DF80C108DF80D808DF80E00AF
:101F200094208DF80F008DF810800324CDE9005423
:101F30003B4600226421B42002F0DAF9CDE90064C6
:101F40003B460022C821B42002F0D2F90648FFF730
:101F5000C5F939E73200002000080040DA0000200F
:101F600080969800F4800008A08601007CB54FF6AA
:101F7000FF7500214FF4F0734FF4A07208460095EE
:101F800002F018FB03201549CDE900102B464FF451
:101F900078420521692002F0ABF910480424093089
:101FA000CDE900042B4600226421052002F0A0F9AF
:101FB0000A482B461530CDE900040022C82105202F
:101FC00002F096F905482B462130CDE900040022A5
:101FD0004FF49671052002F08BF97CBD9300002030
:101FE0007CB5042000F0C2F96846FFF758FC3020A9
:101FF000ADF8000003248DF8034001268DF802603F
:1020000000258DF8055069461248FFF7EFFB11488F
:102010001830018841F030010180022000F0A6F95B
:102020006846FFF73CFCADF800408DF803408DF8A2
:1020300002608DF8055069460748FFF7D7FB064850
:102040001A30018841F00301018042F21070FFF75D
:1020500045F97CBD0008024000040240044840F6F7
:1020600099114180002101700249022008707047D7
:1020700032000020DA0000202DE9FF473948DFF860
:10208000F080394E017802240127DFF8E0A098F8AB
:1020900000004FF6FF754FF4FA724FF4967900295D
:1020A0002BD0002827D1134664219B20009502F0F5
:1020B00081FAD6E90601CDE9020102AECDE900645C
:1020C0002B4600226421B42002F012F9CDE900640D
:1020D0002B460022C821B42002F00AF9CDE90064A1
:1020E0002B4600224946B42002F002F988F800701D
:1020F000504600F0B5FFBDE8FF870028FBD113462E
:1021000064219B20009502F055FAD6E90401CDE93F
:10211000020102AECDE900642B4600226421DC20DE
:1021200002F0E6F8CDE900642B460022C821DC204D
:1021300002F0DEF8CDE900642B4600224946DC209F
:1021400002F0D6F8CDE900642B4600224FF4C871A6
:10215000DC2002F0CDF888F80070504600F080FFD7
:10216000C9E7000090010020F45C0008000800406E
:10217000320000201CB5FFF733FF02F007FD4FF6D9
:10218000FF7400214FF4F0734FF4A07208460094DE
:1021900002F010FA07200A49CDE900102346002278
:1021A000C8210A2002F0A4F8054904201531CDE920
:1021B000001023460022FA21552002F099F81CBD98
:1021C000360000202DE9F04304460D4685B0104648
:1021D0001946224AD2E90C36926BCDE902360492B6
:1021E00000221F4BFEF749F8FEF718FA8046C61783
:1021F0004FF47A72002340463146FDF7E9FF81B281
:102200009946174602A803F0EFFB38464946642278
:102210000023FDF7DDFF81B202AFB81D03F0E4FB40
:102220006422002340463146FDF7D2FF104619468E
:102230000A220023FDF7CCFF81B20DF1110003F05B
:10224000D3FB0420CDE900704FF6FF73002229462E
:10225000204601F0EFFF05B0BDE8F083F4800008F0
:1022600000001440FEE7000010B50020064A0024DC
:1022700002EBC0010C604C60401C80B20528F6D314
:1022800002490020088010BD207401207001002048
:102290007047000002490843024908607047000087
:1022A0000000FA050CED00E070B505460E46214829
:1022B000006800F4E0634FF4E060B3F5A06F12D063
:1022C00006DCB3F5407F14D0B3F5806F14D10DE078
:1022D000B3F5C06F04D083420ED1002304240FE075
:1022E000012303240CE00223022409E00323012438
:1022F00006E00423002403E0FFF7CCFF00230424BE
:10230000C3F10400C4F1040386400F20D8401040FC
:102310003043000105F1E02181F8000405F01F01C0
:10232000012088406911890001F1E021C1F8000114
:1023300070BD00000CED00E070470000024801682D
:1023400041F08071016070477438024002490A68A8
:1023500082430A60704700002038024002490A6840
:1023600082430A60704700002438024002490A682C
:1023700002430A60704700003038024002490A6890
:1023800002430A60704700004038024002490A6870
:1023900002430A60704700002038024002490A6880
:1023A00002430A60704700004438024002490A684C
:1023B00002430A6070470000243802400FB509A0AC
:1023C00090E80E00C0688DE80E00039000F036F82B
:1023D00008490968C1F303111DF80110C84004B091
:1023E00000BD000000000000000000000102030426
:1023F00006070809083802403CB504460D460CA003
:1024000003C8CDE90001FFF7D9FF0B4A6B4634B191
:102410001168C1F38221595C20FA01F12160002D7D
:1024200005D01168C1F34231595CC84028603CBDF9
:1024300000000000010203040838024010B51648ED
:102440000068C0F381011548002915D04410012906
:1024500011D0022910D1104A121F116801F03F015A
:102460001368C3F3805343B1B4FBF1F01168C1F3B7
:102470008811484307E0204610BDB0FBF1F0116819
:10248000C1F3881148431168C1F30141491C490057
:10249000B0FBF1F010BD0000083802400024F40049
:1024A00001218140000A002804D0012805D002281B
:1024B0000AD106E00748006806E006487030006868
:1024C00002E0044874300068084201D001207047DF
:1024D000002070470038024070B502460B46134C8E
:1024E0004FF000056078A178084301D0012070BD4D
:1024F000104623F00041D4E90223FEF7C7F802D2C8
:102500002570002070BD207810280BD90121A17002
:10251000257007480022026042608260C260E1705C
:10252000012070BD401C2070002070BDC000002044
:102530008805002070B594B006460D46144600206C
:10254000FEF7D6FB0120FEF7E1FBFEF749FEFFF7A1
:10255000CBF942B223462946304601F0EDF8282156
:102560000AA8FDF77FFE28216846FDF77BFE6B4633
:102570000AAA21462846FEF7B9FE01F0A5F8FFF7A2
:1025800013F94FF0804000F083FDFEF7A5FA00F04C
:1025900047FCFEF72AFE0120FEF7AAFB14B070BD2F
:1025A0000148006800F0E0B828000020C0687047CB
:1025B0000B78026863F3820202600B78026863F3AF
:1025C000082202604B78026863F3CB2202608B78AA
:1025D000026863F300020260CB78026863F3410291
:1025E00002600B79026863F3492202604B7902684A
:1025F00063F3C71202608A79036862F3CF33036022
:102600008A791309026863F38E320260CA88130A5A
:10261000026863F38A2202600B7A026863F3C502E0
:1026200002604A89016962F30F010161704700216C
:10263000C18001704170C17081700171017241717E
:10264000072141817047016821F040010160704716
:10265000016821F4005101607047416821F00401D4
:1026600041607047016841F04001016070471029E6
:1026700003D1816821F0100181607047426842EA0D
:102680001121416070478068084201D001207047E5
:102690000020704730B585B00320FFF767FE4FF488
:1026A0008050FFF77BFE4FF48040FFF777FE2B4D05
:1026B000052211462846FFF7D7F8052206212846AD
:1026C000FFF7D2F8052207212846FFF7CDF803A827
:1026D000FFF7E5F8E021ADF80C1003218DF80F109D
:1026E00002218DF80E1000248DF810408DF8114055
:1026F00003A92846FFF77AF86846FFF798FFADF878
:10270000064001208DF800008DF801408DF803404F
:102710008DF802408DF804008DF808408DF80540D2
:102720000720ADF80A000E4C69462068FFF740FF0D
:102730002068FFF78DFF2068FFF78FFF4FF40051EF
:102740002068FFF79BFF012211462320FFF7ACFD15
:102750000448FFF787FF05B030BD000000000240CD
:10276000280000200030014070B506462021304688
:10277000FFF789FF1B4C012805D040213046FFF7A9
:1027800082FF012826D13046FFF75DFFFFF782FF69
:102790002178491C217000F029F820213046FFF7EC
:1027A00072FF114D012803D13221286800F066FE26
:1027B00040213046FFF767FF012803D13321286805
:1027C00000F05CFE20213046FFF751FF40213046EB
:1027D000FFF74DFF2078052803D3BDE87040FEF7D2
:1027E000B7BF70BDD00000202C0000201FB50B4CDF
:1027F0000D21206800F042FE09A090E80E00C0689C
:102800008DE80E0003900F226946206800F046FF15
:102810000D21206800F032FE1FBD00002C000020BA
:10282000535049204552524F52205245534554006F
:102830002DE9F04106460D46174600240CE0022122
:102840003046FFF720FF0028F9D0285DF0603046C1
:10285000FFF7ACFE641CA4B2BC42F0D302490020D6
:102860000870BDE8F0810000D000002010B50446DB
:1028700080212046FFF707FF0128F9D010BD7047DF
:102880008A0700F00F00120F90408A0808D001223A
:10289000B2EB910F0AD10F490A6802430A607047F0
:1028A0000C49091F0A6802430A6070470222B2EB12
:1028B000910F05D10749091D0A6802430A60704754
:1028C0000322B2EB910FFAD1024908310A680243A0
:1028D0000A6070470C38014010B54FF48044204620
:1028E000FFF764FD2046BDE81040FFF737BD00004C
:1028F0002DE9F04F8FB004468A46302102A8FDF73B
:10290000B1FC0020FEF7F4F90120FEF7FFF93E4884
:1029100000F0A6FB72B6FEF763FC4FF48071204610
:10292000FEF74AFA394A03C202A9204601F006FD21
:10293000DFF8DCB00D21DBF8000000F09FFD202166
:10294000DBF8000000F09AFD002700264FF04B084E
:1029500002A800EBC6092F4AD9E900012E4BFDF76A
:102960007DFE02D3BAF1000F05D00020C9F80000A7
:10297000C9F8040012E0D9E900014FF03332274BC7
:10298000FDF784FE0AD226480021C9E9001006EBB3
:10299000C60000EB061008EB400087B206EBC6004D
:1029A00000EB061008EB4000FDF706FE04460D465E
:1029B000D9E9000100221B4BFDF706FD0246CDE9D7
:1029C00000450B46DBF8000000F026FE761C062EC4
:1029D000BEDB27B10D480CC83846FFF7BFF9FEF73C
:1029E00004FC00F021F8084800F052FBFEF774F8F0
:1029F00000F078FA0020FEF789F90120FEF778F957
:102A000062B60FB0BDE8F08F0004004068010020FE
:102A10002C0000209A9999999999D93F3333EB3F2B
:102A20000000F03F0000594010B50020074A002484
:102A300002EBC0010C604C60401C80B2FF28F6D94C
:102A40000348002181800121417010BDD06B01201D
:102A5000D80000202DE9F04100F03F014FF45C6206
:102A600040F2E475531F6E1F40F6CF5040F6AC5451
:102A70004FF4FA6740F2DC5C402970D2DFE801F0E5
:102A80002024272A2D303336393C3F4245484B4ECF
:102A90005154575A5D606366696C707376797C7FB8
:102AA0008285888B8E9194979A9DA0A322A6A8AA2E
:102AB000ACAEB0B2B5B722B9BBBDBFC1C3C5C7CA02
:102AC00042F20F70BDE8F08141F69070FAE741F6EE
:102AD0008670F7E741F68170F4E741F67C70F1E724
:102AE00041F69E30EEE741F69930EBE741F694303F
:102AF000E8E741F68F30E5E741F68A30E2E741F654
:102B0000A510DFE74FF4CD50DCE741F69B10D9E785
:102B100041F69610D6E741F69110D3E741F68C10B6
:102B2000D0E741F66410CDE741F2AC70CAE741F25C
:102B3000A770C7E741F2A270C4E741F29D70C1E7F8
:102B400041F29870BEE741F27070BBE741F2B350BA
:102B5000B8E741F2AE50B5E741F2A950B2E75CE008
:102B600041F2A450AEE741F29F50ABE741F27C50F6
:102B7000A8E741F2BA30A5E741F2B530A2E741F249
:102B8000B0309FE741F2AB309CE741F29C3099E7CF
:102B900041F2883096E741F2C11093E741F2BC1050
:102BA00090E741F2B7108DE741F2A8108AE741F2B1
:102BB000941087E740F6C87084E740F6C37081E759
:102BC00040F6B4707EE74FF47A607BE7104679E711
:102BD000184677E7204675E7284673E7304671E7E1
:102BE00038466FE740F2EB506CE760466AE700203A
:102BF00068E7104666E7184664E7204662E728461D
:102C000060E730465EE738465CE760465AE740F2E8
:102C1000E15057E74FF4A07054E741F6616051E787
:102C200002480168491C01607047000060010020F3
:102C300008B52A49086840F48030086000200090F8
:102C40004FF4A04205E00868800305D40098401CBA
:102C5000009000989042F6D3086880033CD51F4846
:102C60004030026842F0805202601D48026842F41F
:102C70008042026019480830026822F0F0020260C7
:102C8000026822F4604202F500420260026822F407
:102C9000E05202F5A0520260021F124B136013684B
:102CA00043F4800313600A6842F080720A600A6885
:102CB0009201FCD50C4A40F205711160016821F0C7
:102CC00003010160016821F00301891C01600168B2
:102CD000C1F381010229FAD108BD00000038024089
:102CE0000070004008540007003C024010B50F4837
:102CF000016841F0010101600C4A002108321160B5
:102D000002680B4B1A400260031D0A4A1A600268EF
:102D100022F48022026005480C300160FFF788FF32
:102D200005494FF00060086010BD00000038024007
:102D3000FFFFF6FE1030002408ED00E038B5012159
:102D4000880700F09BF901285BD102212D48FDF78F
:102D50000CFF2D4C80B3FEF7ABFDC4E904012B4BF7
:102D6000A26803EBC20203C2FEF7D6FDC4E9040168
:102D7000FFF7B2FB40B304F10800009004F110002B
:102D80000FC8FEF737F918B3A268214BD4E9040144
:102D900003EBC20203C222460092D4E90623FEF7E7
:102DA000ABFCD4E90401C4E90601D4E90201401CEA
:102DB00041F10001C4E90201FEF704FD207858B199
:102DC000BDE8384000F080BCBDE83840FEF7FABCF2
:102DD000BDE83840FEF7F6BCD4E9021081F4A851F2
:102DE00001430ED172B641F288310848FDF7E4FF85
:102DF000084A03C2084A064802F15801FFF79AFB45
:102E000062B638BD00200140D8000020D0C30020A9
:102E1000D01B00206801002098050020FFF78EBF1E
:102E20001CB50120FFF7AAFA00208DF801008DF8EB
:102E3000000040F21F61ADF804100121ADF802104E
:102E40008DF806004FF080446946204600F0C2F835
:102E50000121204600F00EF9002201211C20FFF77D
:102E600023FA204600F001F91CBD000010B5012135
:102E7000164800F003F9012823D102211448FDF778
:102E800074FEF0B1FEF714FD124CC4E9040162783F
:102E900032B10022104BFDF7F9FB01D20020607027
:102EA000A0880E49D4E9042301EBC0010CC1401CE9
:102EB00080B2A080B0F5807F03D161780748FFF72A
:102EC00017FDBDE81040FEF77DBC00000004004087
:102ED00000200140D800002000407F40D06B01203E
:102EE000FFF7C4BF1CB50220FFF748FA00208DF899
:102EF00001008DF8000041F6A211ADF80410012187
:102F0000ADF802108DF80600084C6946204600F026
:102F100061F80121204600F0ADF8002201211D20BA
:102F2000FFF7C2F9204600F0A0F81CBD00040040E5
:102F300010B50D4C0121204600F0A0F8012811D158
:102F40000A49887838B1401E88702046BDE8104094
:102F5000012100F03BB8FFF787F9FFF77FF8FFF793
:102F60008BF8F2E710BD000000080040D8000020F8
:102F7000FFF7DEBF1CB50420FFF700FA00208DF834
:102F800001008DF800004AF20F41ADF804104FF433
:102F90007A71ADF802108DF806000A4C6946204699
:102FA00000F018F80121204600F064F80022012109
:102FB0001E20FFF779F9044A02219170204600F0A3
:102FC00054F81CBD00080040D8000020C94301612E
:102FD0007047000030B51B4A1B4B90420DD0B0F13A
:102FE000804F0AD0194CA04207D0194CA04204D0FF
:102FF000184CA04201D098420AD10C78056864F3BD
:10300000041505600C782509046865F3461404600E
:10301000114CA04207D0114CA04204D04D78046856
:1030200065F3092404604C88C4628C8884629042F1
:1030300001D0984201D189790163416941F00101D0
:10304000416130BD00000140000401400004004027
:1030500000080040000C0040001000400014004038
:10306000016821F0010101607047016841F0010130
:1030700001607047C2680A43C260704702690A4231
:1030800004D0C068084201D001207047002070477A
:1030900010B55149884207D10120FFF787F9BDE8F3
:1030A00010400120FFF75AB9B0F1804F0AD04B49C8
:1030B00088420FD10220FFF769F9BDE810400220D5
:1030C000FFF744B90120FFF761F9BDE81040012086
:1030D000FFF73CB94249884207D10420FFF756F96F
:1030E000BDE810400420FFF731B93E49884207D1BE
:1030F0000820FFF74BF9BDE810400820FFF726B97C
:103100003949884207D11020FFF740F9BDE8104047
:103110001020FFF71BB93549884207D12020FFF75F
:1031200035F9BDE810402020FFF710B9304988423A
:1031300007D10220FFF73AF9BDE810400220FFF75F
:103140000DB92C49884209D14FF480342046FFF74D
:103150002DF92046BDE81040FFF700B92649884206
:1031600009D14FF400342046FFF720F92046BDE88E
:103170001040FFF7F3B82149884209D14FF4802469
:103180002046FFF713F92046BDE81040FFF7E6B8E8
:103190001B49884207D14020FFF7F8F8BDE81040EE
:1031A0004020FFF7D3B81749884207D18020FFF7A6
:1031B000EDF8BDE810408020FFF7C8B812498842FA
:1031C00008D184152046FFF7E1F82046BDE81040FD
:1031D000FFF7BCB810BD0000000001400004004033
:1031E00000080040000C00400010004000140040A7
:1031F00000040140004001400044014000480140FB
:1032000000180040001C00400020004001480068F9
:1032100000F0D4B82C00002002688A430260704796
:1032200038B504460D46E168E87960F38201E16053
:10323000E8794108E06861F3C300E060A8794108DB
:10324000E06861F34920E060A879E16860F38A21D1
:10325000E1602979E06861F30C30E0606979206908
:1032600061F30D302061287A616960F308216161A2
:10327000287A4108606961F34920606122488442EC
:1032800002D02248844204D169460020FFF7B4F8F6
:1032900003E000216846FFF7AFF8E068000409D5B5
:1032A000009800EBC00101EB001029684900B0FB59
:1032B000F1F108E0009800EBC00101EB0010296873
:1032C0008900B0FBF1F16422B1FBF2F000010309C7
:1032D0006FF018056B4301EB8301E3681D044FF0A9
:1032E000320307D503EBC101B1FBF2F101F0070195
:1032F000014306E003EB0111B1FBF2F101F00F0114
:103300000143A16038BD00000010014000140140DD
:10331000C16821F40051C1607047C16841F4005197
:10332000C16070478AB2CB0302D5C3681343C36040
:103330008B0302D5036913430361490302D5416935
:1033400011434161704700003EB54FF4E1300090F9
:1033500000208DF8080003218DF807108DF8060075
:103360008DF805008DF804006846FDF75DFC47F612
:10337000FF70FDF7B3FF0C4C0A492046FFF7D2FF60
:1033800002212046FFF748FF04212046FFF744FFB3
:1033900008212046FFF740FF002211462520FEF7B6
:1033A00083FF3EBD01000400001001400068084298
:1033B00001D00120704700207047000070B505461D
:1033C00002212846FFF7F2FF164C01280BD00421FA
:1033D0002846FFF7EBFF012805D008212846FFF714
:1033E000E5FF012815D12846FFF792FFFFF7ACFF54
:1033F0002078401C207000F017F802212846FFF7C3
:103400000BFF04212846FFF707FF08212846FFF796
:1034100003FF2078052803D3BDE87040FEF798B974
:1034200070BD0000F800002010B586B00A4C0D21D8
:10343000206800F023F8142208A101A8FCF7F9FE87
:10344000112201A9206800F029F90D21206800F05F
:1034500015F806B010BD00002C0000205553415255
:1034600054204552524F52205245534554000000BB
:10347000426861F3080242607047000070B504467C
:103480000D4680212046FFF791FF0028F9D02946FC
:103490002046FFF7EDFF02490020087070BD0000D4
:1034A000F80000202DE9F0478146089E14461D468D
:1034B00020462946FDF7B2F88046C71740463946F0
:1034C000FDF798F822462B46FCF77BFF044621F0D7
:1034D00000453046FDF781F802460B46002028499A
:1034E00001F03CFC22462B46FCF76EFFFDF796F8F8
:1034F000C517044642463B46484600F043F82E2195
:103500004846FFF7BBFF204629464FF0000850EA27
:10351000010201D000271AE0002404E030214846CF
:10352000FFF7ACFF641CB442F8DB4846BDE8F04747
:103530002021FFF7A3BF50EA010203D008F10108E0
:1035400008F0FF080A220023FCF742FE7F1CB74266
:10355000F1DB0027A6EB080604E030214846FFF720
:103560008DFF7F1CBE42F8DC22462B46484600F009
:1035700009F84846BDE8F0472021FFF77FBF00006B
:10358000000024402DE9F041804614461D460026E7
:103590000027002D08DA2D214046FFF76FFF28464F
:1035A0000025644265EB000554EA050017D130217F
:1035B0004046FFF763FF12E00A2200232046294617
:1035C000FCF706FE06EB860464001546161926B9BC
:1035D00055EA030201D17F1CFFB204460D4654EAAE
:1035E0000500E9D10A2409E0B6FBF4F004FB106100
:1035F00030314046FFF742FFB6FBF4F6002EF3D120
:1036000005E030214046FFF739FF7F1EFFB2002F53
:10361000F7D1BDE8F0810000F8B514461D46DDE99C
:1036200006230646002000903046FFF73BFF0622A7
:103630001749304600F032F80022164B2046294642
:10364000FDF70CF808D220213046FFF717FF2021A4
:103650003046FFF713FF0AE000220F4B20462946B1
:10366000FCF7FCFF03D220213046FFF707FF0120C3
:10367000009022462B463046FFF714FF25213046A6
:10368000FFF7FCFE3046BDE8F8400D21FFF7F6BE1F
:10369000F9000020000024400000594070B50646A3
:1036A0000C4615460AE080213046FFF77FFE0028D1
:1036B000F9D014F8011B3046FFF7DAFE6D1E681CC6
:1036C000F1D170BDFEE70000F0B41848002282601E
:1036D000C2608261C26102700020154C4FF4167600
:1036E00004EBC00100250D604D60401CB042F7DBCB
:1036F00000200F49583921F81020401C2A28FADBF5
:1037000000200C4A4FF4A85602F5284502EBC001F0
:1037100000240C604C6005EBC00100230B604B6083
:10372000401CB042F2DBF0BCFEF7E4B8D800002049
:10373000F0050020D01B00202DE9F84F06468A46F0
:10374000104698460124FCF737FF3D4F8346A146BB
:103750000025009106EBC40358460CCB0099FCF7FA
:1037600033FE00221346FCF779FF12D2621E06EBED
:10377000C20358460CCB0099FCF726FE00221346E4
:10378000FCF784FF05D23889201A082809D07D70FB
:103790003C81F888B0F52F7F42D9BDE8F84FFDF79E
:1037A000BBBB2046FCF708FF0022264BFCF706FEB9
:1037B0000022254BFCF761FDD7E90423FCF704FE4A
:1037C000FA880AEBC20203C2F888401C80B2F88073
:1037D000797819B1B8880F281DD01DE0B98805295E
:1037E00013D9B97839B1BD7039782B2907D9BDE81B
:1037F000F84FFDF791BB3978491C3970F4E728F888
:10380000110087F80190BD8006E0401AF880BD8065
:1038100087F8019000E07D70B888401CB880B7E759
:10382000641CB4F5A85F95DB3878401CC0B23870D2
:10383000F98828F81010BDE8F84FFDF76DBB0000BF
:10384000780100200000F03F0000E03F490050EA0E
:10385000C12018BF04204A0D18BF40F0010040F2FB
:10386000FF72B2EB515F08BF40F00200012808BFB1
:10387000052070472DE9F0414F1E00EBC7010446BB
:10388000D1E9000115461E4637F006020DD02A4642
:103890003346FCF799FD7F1E04EBC703D3E90023F1
:1038A000FCF7EBFC37F00602F1D1022F25D0042FF4
:1038B00013D0062F18BFBDE8F0812A463346FCF727
:1038C00083FDD4E90A23FCF7D8FC2A463346FCF7EB
:1038D0007BFDD4E90823FCF7D0FC2A463346FCF7ED
:1038E00073FDD4E90623FCF7C8FC2A463346FCF7EF
:1038F0006BFDD4E90423FCF7C0FC2A463346FCF7F1
:1039000063FDD4E90223FCF7B8FC2A463346FCF7F2
:103910005BFDD4E90023BDE8F041FCF7AEBC00003C
:103920000022134610460149FCF7C0BD0000F03FDD
:10393000FCF7A3BC0022134610461146FCF7B6BDA7
:1039400040F2013200204FF0E041FCF71EBE0000C3
:10395000024A00201107FCF718BE000001FDFFFF1E
:1039600002E008C8121F08C1002AFAD17047704748
:10397000002001E001C1121F002AFBD170470000A6
:103980000149086070470000C00100202DE9F34F95
:103990009FB00021FE4D4B006C5C641E00EBC30227
:1039A000C0CA209A02EB0412C2E900675B1C00EB5C
:1039B000C30318CBC2E90234491C8029EBDB4FF06A
:1039C0000008209808F1010100EB0119D9E900ABCA
:1039D000D9E90201CDE910015D46119F209800EB65
:1039E00008101D9003C8CDE912011D98C1688068B8
:1039F000CDE91401DDE91201544622465B46FCF78D
:103A0000DDFC82468B46DDE91063DDE914013246B8
:103A1000FCF7D4FCCDE91001C9E900ABDDE91001E8
:103A2000C9E90201DDE912012B462246FCF725FC1B
:103A3000CDE91201DDE914013B463246FCF71DFCDD
:103A4000CDE91401DDE912211D98C0E90021DDE96D
:103A500014211D98C0E9022108F10208B8F17E0F77
:103A6000AFDD02200A9004200990202004907D20E0
:103A70000890BDE04FF000092DE00A9848442099D5
:103A800001EB001ADAE90045DAE9026720982246DC
:103A900000EB09182B46D8E90001FCF78FFCCAE9B6
:103AA0000001D8E9020132463B46FCF787FCCAE92F
:103AB0000201D8E9000122462B46FCF7DEFBC8E9EB
:103AC0000001D8E9020132463B46FCF7D6FBC8E9C3
:103AD00002010998814408988145CEDB01200690B7
:103AE0000498059073E0AB49059801EBC00003C84A
:103AF000CDE90C01A849059801EBC00003C8CDE948
:103B00000E01DDF818A008985044079055E00A9877
:103B10005044209901EB001BDBE90289DBE900231B
:103B2000CDE91023DDE90E0142464B46FCF74CFC83
:103B3000DDE9102304460D46DDE90C01FCF744FCE9
:103B400022462B46FCF73AFC04460D460EA80FC849
:103B5000FCF73AFC06460F46DDE90C0142464B46AF
:103B6000FCF732FC32463B46FCF787FB06460F4625
:103B70002098224600EB0A182B46D8E90001FCF7F2
:103B80001DFCCBE90001D8E9020132463B46FCF7B7
:103B900015FCCBE90201D8E9000122462B46FCF7CF
:103BA0006CFBC8E90001D8E9020132463B46FCF74C
:103BB00064FBC8E902010998824407988245A6DBA4
:103BC0000698401C0690DDE904100844059005980D
:103BD000402888DB049800EBD070401004900998CE
:103BE0000A9009984000099008990A98081A0890C4
:103BF000049800283FF73EAF2098D0E9008920982C
:103C0000D0E902AB52465B4649464046FCF735FBDD
:103C1000074601221C91FCF7B8FC4FF0FF32FCF77D
:103C2000B4FC209A03C252465B4649464046FCF724
:103C3000C5FB064604460D461B9142464B46504680
:103C40005946FCF7BBFB22462B46FCF716FB4FF010
:103C5000FF32FCF79AFC209AC2E902011B99CDE9D8
:103C60001061DDE910010122FCF78FFC4FF0FF32FB
:103C7000FCF78BFC209A02F5006203C289F0004138
:103C8000404652465B46FCF799FB02460B463846D7
:103C90001C99FCF7F2FA4FF0FF32FCF776FC209A01
:103CA00002F6080203C200200B900B9A2098521CC7
:103CB00000EB02131A93D3E900891A9BD3E902455A
:103CC00033480B998030084443780A930A9B209824
:103CD0005B1E199300EB0313189303CBCDE90C0182
:103CE000189BD3E90201CDE90E012C4800EB02102C
:103CF000D0E902AB0AC8CDE91213294800EB021043
:103D0000D0E90212CDE91412C0C8DDE91423DDE9BF
:103D10000E01FCF759FBCDE90001DDE90C0132464B
:103D20003B46FCF751FBDDE90023FCF7A6FACDE9A1
:103D3000020152465B4620462946FCF745FBCDE989
:103D40000001DDE9122340464946FCF73DFBDDE971
:103D50000023FCF733FBDDE90223FCF78EFA4FF07A
:103D6000FF32FCF712FC1A9B03C3DDE90E01324659
:103D70003B46FCF729FBCDE90001DDE91423DDE931
:103D80000C01FCF721FBDDE90023FCF717FB09E040
:103D90003095000830910008309300083081000809
:103DA00030890008CDE90201DDE9122320462946C9
:103DB000FCF70AFBCDE9000152465B464046494606
:103DC000FCF702FBDDE90023FCF757FADDE90223EB
:103DD000FCF753FA4FF0FF32FCF7D7FB1A9BC3E90D
:103DE0000201DDE90E0152465B46FCF7EDFADDE922
:103DF0001223CDE90001DDE90C01FCF7E5FADDE96C
:103E00000023FCF73AFACDE90201DDE9142320464C
:103E10002946FCF7D9FACDE9000132463B46404637
:103E20004946FCF7D1FADDE90023FCF7C7FADDE9E2
:103E30000223FCF722FA4FF0FF32FCF7A6FB0B9AA5
:103E4000209B813203EB0212179203C2DDE9122399
:103E5000DDE90E01FCF7B8FACDE90201DDE90C015C
:103E600052465B46FCF7B0FADDE90223FCF7A6FAFE
:103E700082468B4632463B4620462946FCF7A4FA4A
:103E8000DDE9142306460F4640464946FCF79CFAF6
:103E900032463B46FCF7F1F952465B46FCF7EDF93A
:103EA0004FF0FF32FCF771FB179AC2E90201984804
:103EB000199B00EB0310D0E90212CDE91412C0C81F
:103EC0009448199B00EB0310D0E90223CDE910239D
:103ED000D0E900ABDDE9102320462946FCF774FA4F
:103EE000CDE9000152465B4640464946FCF76CFA74
:103EF000DDE90023FCF7C1F9DDE91423CDE9020176
:103F0000DDE90E01FCF760FACDE90001DDE90C0105
:103F100032463B46FCF758FADDE90023FCF74EFA3F
:103F2000DDE90223FCF7A9F94FF0FF32FCF72DFB86
:103F3000189B03C352465B4620462946FCF744FAC9
:103F4000CDE90001DDE9102340464946FCF73CFA83
:103F5000DDE90023FCF732FACDE90201DDE90E01CB
:103F600032463B46FCF730FACDE90001DDE9142387
:103F7000DDE90C01FCF728FADDE90023FCF77DF907
:103F8000DDE90223FCF779F94FF0FF32FCF7FDFA87
:103F9000189BC3E90201DDE9142320462946FCF7FA
:103FA00013FACDE9000132463B4640464946FCF74C
:103FB0000BFADDE90023FCF760F9CDE902010EA858
:103FC0000FC8FCF701FACDE90001DDE90C0152460A
:103FD0005B46FCF7F9F9DDE90023FCF7EFF9DDE9D1
:103FE0000223FCF74AF94FF0FF32FCF7CEFA0A9BA6
:103FF000209A7F3302EB0312169203C232463B46ED
:1040000020462946FCF7E0F9DDE9142304460D4675
:1040100040464946FCF7D8F922462B46FCF7CEF934
:1040200004460D46DDE90E0152465B46FCF7CCF92D
:10403000DDE9102306460F46DDE90C01FCF7C4F963
:1040400032463B46FCF719F922462B46FCF715F998
:104050004FF0FF32FCF799FA169AC2E902010B9869
:10406000401C0B900B983F28FFF61FAE2098D0F80D
:104070000494D0F80084209800F5816030C80122B3
:1040800049464046FCF781FA00221346FCF796F9B0
:104090000646024688460B4600200146FCF7EDF82E
:1040A0004FF0FF373A46FCF770FA209A02F580622B
:1040B00003C20022BB0729462046FCF785F90246C9
:1040C0000B4600200146FCF7D8F83A46FCF75DFAAB
:1040D000209A02F5816203C2304641463A46FCF717
:1040E00054FA209A02F5406203C201222946204672
:1040F000FCF74BFA00221346FCF7BFF83A46FCF7F0
:1041000044FA209A02F6084203C221B0BDE8F08FBB
:1041100030810008308900082DE9FC5F8846DDE920
:104120000C56834691461946684600F0CBFA0024A7
:10413000BDF800004FF4B02141430F0C09F12B01F1
:104140008BB2A8F10101084482B24946404601F011
:10415000FBFBDFF8D08059E000220020BDF80030E2
:104160002BE0DFF8C4C0BDF80210A44411F80CC065
:1041700000214FF00109C1F1070A09FA0AFA1AEA07
:104180000C0F08D04FEA152A08F800A008EB000A27
:104190008AF8015007E04FEA162A08F800A008EB59
:1041A000000A8AF80160491CC9B2801CC0B2082903
:1041B000E1D3521CD2B2641CA4B2B2EBD30FD0D361
:1041C000DFF86890B9F8000040F00100A9F800009D
:1041D00009F10200018841F002010180DFF850A0DE
:1041E0004FF6FF7000EA43020E49DAF80000FEF7CE
:1041F0001FFBDAF80000FEF739FB0020FDF76EF830
:10420000B9F8000040F00200A9F80000BC42A3D3B6
:104210000098CBF80000BDF80400ABF80400BDE83E
:10422000FC9F0000C4010020125D00081804024039
:10423000280000202DE9FF4F87B00746DDE914ABC9
:10424000904699460025002426A0006804903BE093
:1042500005EB450000EB0A061AF80010224A7078B8
:10426000514300EB4002C2EBC01001EBC000B1783B
:1042700008441E49884214D1381981B204ABCDE9F3
:10428000008902A8089AFFF747FF0834381981B25D
:1042900004ABCDE9008902A8089AFFF73DFFE41DB1
:1042A000A4B2381981B23346CDE9008905A8089A2D
:1042B000FFF732FFBDF81400BDF81810401A204473
:1042C000083084B26D1CEDB25D45C1D3381981B29E
:1042D00004ABCDE9008902A8089AFFF71DFF0BB0D7
:1042E000BDE8F08F5F00000040420F0040AEEB02DF
:1042F0002DE9FF5F0646DDE90E9A8B461746984684
:104300000024002515E004EB440000EB09037019BC
:10431000CDE9007881B25A4602A8FFF7FDFEBDF84C
:104320000800BDF80C10401A2844083085B2641CFF
:10433000E4B25445E7D3BDE8FF9F00002DE9F34FF9
:1043400091B0ADF5805D054694490978002901D109
:1043500000F026F910A92846FFF718FB4FF0000BD4
:1043600010A800EB0B1ADAE90045DAE9028900220D
:10437000134640464946FCF771F90AD16FF007022F
:1043800020462946FCF701F906460F46002425463B
:1043900021E00022134620462946FCF75FF90AD1A6
:1043A000002637466FF0070240464946FCF7EDF815
:1043B00004460D460FE06FF0070220462946FCF741
:1043C000E4F806460F466FF0070240464946FCF700
:1043D000DCF804460D46CAE90067CAE902450BF15C
:1043E000010BBBF1FF0FBBDD00200E900E98C0EB60
:1043F00000210F91491C012944DD01EBD1704FF0E0
:10440000FF3202EB60024FF0010C0E98801C02E0BC
:104410004FEA0C2C401C0328FADB501CB1EB400F78
:1044200031D14FF0000800200D9028E00F99404650
:104430004144401C0C9001F101080C9810440A9072
:10444000002117E00C9843185B1E10A800EB031323
:10445000D3E90045D3E90267DDF828A08A4400EBE0
:104460000A1090E8004EA3E8004EC0E90045C0E9FC
:104470000267491C9142E5DD0D98401C0D900D9896
:104480006045D3DB4EE000200B900D9047E00F9984
:104490000B980144401C0C90491C0B910C9800EBAC
:1044A000020810AB03EB0810D0E90045D0E9026721
:1044B000002125E008EB01090C980844401E0DF18D
:1044C000400A0AEB00100DF5805A10ABCAF8400004
:1044D00090E8004C03EB0913C06883E8004CD860F7
:1044E0000DF5805A10AB09F1010903EB0913DAF855
:1044F000400093E8000EDB6880E8000EC360491CB2
:104500009142D7DD08EB0200401C10A901EB00101E
:10451000C0E90045C0E902670D98401C0D900D9858
:104520006045B4DB0E98401C0E900E980228FFF6F2
:104530005DAF00242546A0460DF1400909EB0811A6
:104540000FC901F09BF906460F4622462B4630461E
:104550003946FCF79BF801D234463D4608F1010884
:10456000B8F1800FEADB0026832707EB460009EB52
:1045700000110FC901F082F922462B46FBF796FF86
:104580000DF58052926C02EBC60203C2761C062E19
:10459000EBDB13B00DF5805DBDE8F08F91010020DD
:1045A00010B501F051F902490120087010BD00005A
:1045B000910100202DE9F0419446069A0024160A44
:1045C000184DD2B24FF470772E5505EB040888F8D9
:1045D0000120A41CBC42F7DB624601F0B5F9124E83
:1045E000308840F001003080B01C018841F00201A9
:1045F00001800020FCF772FE00240C4D4FF4A078DF
:104600003A4608492868FEF713F9641C4445F7DB6D
:104610002868FEF72BF9308840F002003080BDE8B2
:10462000F0810000C401002018040240280000208E
:1046300070B514461D460E46002814BF0121002106
:10464000314321F00041C1F17F6101F1E041C90F27
:1046500016D1002C14BF01210021294321F0004173
:10466000C1F17F6101F1E041C90F09D11449B1EBFA
:10467000460F08BF00281CD0690008BF002C18D0C6
:104680003146FCF72BF9024640F2FF7030EA115038
:104690000DD0F017B0EBE17F09D0084665F31E009E
:1046A00084460B4620466146FBF78BFE02461046C9
:1046B00070BD0120FFF764F9BDE87040FFF73AB91B
:1046C0000000E0FF2DE9F0430B78F74A53434A78A6
:1046D000897802EB4204C4EBC21203EBC202541805
:1046E000F24EF349A31B01F1800201F58075B4423B
:1046F00079D079DCEF4BF04FF04EA4EB03029C42F3
:1047000073D03FDCEE4BA4EB03029C426ED01FDC67
:10471000EC4AA4EB0203944269D00DDCEA4AA218E9
:1047200072D0921971D0E94BDA426FD1CA68026037
:10473000098A8180BDE8F0839A1968D0DE4B5B421C
:10474000DA42F2D1D1F81E200260498C8180F1E773
:10475000D31BBA427DD00BDC92197BD092197AD050
:10476000F242E2D1D1F836200260498F8180E1E740
:104770009A1971D0F242D8D18A6C0260B1F84C100B
:104780008180D7E7D24C131BA24271D01ADCA2EB76
:104790000703BA426DD00BDC92196BD092196AD024
:1047A000F242C2D10A6E0260B1F864108180C1E7A2
:1047B0009A1975D0F242B8D151F8722F02608988E7
:1047C0008180B7E7C04A52429C1A934269D00FDCFD
:1047D000C04A9A1870D0C04BDA42A6D1E96A01608B
:1047E000298E8180A6E708E112E0DEE0BCE0ADE0C2
:1047F000BA4AA21873D0BA4BDA4296D151F87E2F3A
:1048000002608988818095E794E098E0D9E0A3E090
:1048100043F698294FF47A767700A3EB090441F622
:1048200058384FF47A6C4B4576D046DCA3F5C0542B
:10483000A4F55674434570D01EDC63456ED00CDC85
:10484000B3426CD0BB426BD0A3F53063B83B88D188
:10485000E4E09AE08DE092E09DE0A3F59853883B78
:1048600073D0B34287D1916A0160918D818061E7F5
:10487000BDE0AEE09FE0A6E041F28835631BAC42AC
:104880006FD00FDCBC426DD0A4F53064B83C6AD068
:10489000B44286D1116C0160B2F84410818049E7BE
:1048A0009DE04DE1B3426FD0BB4284D152F8521F1C
:1048B0000160918881803DE736E1A4F5D853583BEB
:1048C00044456ED018DC64456CD009DCB4426AD033
:1048D000BC4269D0A4F53064B83C72D1DDE029E176
:1048E000A4F59854883C6DD0B4426AD1D16F016070
:1048F000B2F8801081801DE741F270741A1BA34248
:1049000073D00EDCB34271D063455AD1D5F80E1086
:104910000160698A81800DE7ADE090E084E071E09C
:1049200077E0B24274D0BA424BD1296A0160A98CB7
:104930008180FFE60A68026089888180FAE6D1F802
:104940000620026049898180F4E672E0D1F81220E5
:104950000260C98A8180EDE68A690260898B818064
:10496000E8E67CE071E075E04A6A0260098D8180CA
:10497000E0E6D1F82A200260C98D8180DAE60A6B70
:104980000260898E8180D5E66FE0CA6B0260B1F863
:1049900040108180CEE651F8422F026089888180E4
:1049A000C8E6ABE09EE06CE071E051F84E2F02608B
:1049B00089888180BEE64A6D0260B1F85810818016
:1049C000B8E6C2E094E051F85A2F026089888180ED
:1049D000B0E651F8662F026089888180AAE6CA6E27
:1049E0000260B1F870108180A4E692E08CE08A6FDA
:1049F0000260B1F87C1081809CE6516801601189E9
:104A0000818097E6D2F80A100160D189818091E611
:104A100084E011690160918A81808BE6D2F81610DA
:104A20000160518B818085E6D1690160118C8180A4
:104A300080E6D2F822100160D18C81807AE6D2F82B
:104A40002E100160518E818074E6516B0160118FD0
:104A500081806FE6516B0160118F81806AE652F8A8
:104A6000461F01609188818064E6D16C0160B2F8D4
:104A7000501081805EE6916D0160B2F85C1081801B
:104A800058E652F85E1F01609188818052E6516EAF
:104A90000160B2F8681081804CE652F86A1F01602C
:104AA0009188818046E6000040420F00680A680C49
:104AB000B45B000840B7280300093D00C0BDF0FF0B
:104AC00080E7BD02005A620200B817FE8072A4FFA0
:104AD00080969800C0B4B3FF807BE1FFC08782FE60
:104AE0008007BFFA116F0160B2F87410818021E66F
:104AF00052F8761F0160918881801BE6D5F802107C
:104B00000160E988818015E6A9680160A989818032
:104B100010E669690160298B81800BE6D5F81A10CF
:104B20000160E98B818005E6D5F826100160698D6A
:104B30008180FFE5D5F832100160E98E8180F9E5CA
:104B4000A96B0160A98F8180F4E58A6F0260B1F8DA
:104B50007C108180EEE5000010B50948018841F025
:104B6000200101800748FCF7B9FB0548801E018839
:104B700041F020010180BDE810400348FCF7AEBBC6
:104B80001A08024000C31E0020A1070010B5FFF75D
:104B9000E3FFE02000F09AFF002000F0BFFF0720B5
:104BA00000F0BCFF102000F0B9FF092000F0B6FFB4
:104BB000172000F0B3FF0B2000F0B0FF402000F002
:104BC000ADFF8A2000F0AAFF4B2000F0A7FF0A20CB
:104BD00000F0A4FF0D2000F0A1FF0F2000F09EFFC9
:104BE000152000F09BFF162000F098FF0F2000F02A
:104BF00095FFE12000F06AFF002000F08FFF1A20EF
:104C000000F08CFF1B2000F089FF022000F086FFDF
:104C10000D2000F083FF052000F080FF302000F021
:104C20007DFF352000F07AFF432000F077FF02205F
:104C300000F074FF0A2000F071FF092000F06EFF01
:104C4000322000F06BFF362000F068FF0F2000F0EC
:104C500065FFB12000F03AFFA02000F05FFFB42014
:104C600000F034FF022000F059FFC02000F02EFFBA
:104C7000172000F053FF152000F050FFC12000F076
:104C800025FF412000F04AFFC52000F01FFF002053
:104C900000F044FF0A2000F041FF802000F03EFFBA
:104CA000B62000F013FF022000F038FF362000F09D
:104CB0000DFF482000F032FF3A2000F007FF55209A
:104CC00000F02CFFE92000F001FF002000F026FF9B
:104CD000F72000F0FBFEA92000F020FF512000F09B
:104CE0001DFF2C2000F01AFF822000F017FF11207A
:104CF00000F0ECFE0448FCF7F1FA292000F0E6FE93
:104D0000BDE8104000F022B8009E3301FEF71CFB06
:104D1000FCF738FAFBF7E0FE0020FBF7C3FF0120A9
:104D2000FBF7C0FFFDF7B6FCFDF724FA01210020D8
:104D3000FBF7FAFFFCF7AEFE034D01242868C460C0
:104D4000FCF79EFEFAE700002800002002480188D8
:104D500041F0100101807047180802402DE9F04D24
:104D60001D460C4698B0174621F0004123F0004341
:104D7000002814BF4FF0010C4FF0000C0CEB440C5A
:104D8000FE4A0CEB02064FEA620C66452BD33E004E
:104D900018BF012606EB45061644F94A964222D36F
:104DA000F84A53EA070C02D0944205D148B918B02A
:104DB00000201146BDE8F08D002808BF4FF0000C20
:104DC00001D04FF0010C0CEB440212F5001F0AD881
:104DD000002F14BF4FF0010C4FF0000C0CEB4502FC
:104DE00012F5001F07D918B03A462B462146BDE8F8
:104DF000F04DFEF79DBD0022DFF88CA3002CB8BF5C
:104E0000534526DADFF884C36345A8BF022220DABF
:104E1000DFF870C39C451CDCDFF874C30CEB235C2B
:104E2000BCF1140F08DDCCF1340627FA06FC0CFAAD
:104E300006F6BE420DD108E05FB9CCF1140623FAA4
:104E400006FC0CFA06F69E4203D10CF00102C2F1F8
:104E5000020251EA000C19D1002D17DA002C18BFFC
:104E6000022A01D0012A07D00220FEF789FD18B0DE
:104E7000BDE8F04DFEF754BD0220FEF781FDFEF7C0
:104E80004FFD18B081F00041BDE8F08DB7F1000C86
:104E90006CD1534525D104F1804212F5801201BF37
:104EA00000280020B74918B008BFBDE8F08DB5480C
:104EB000884207DC002DA1BF6046294618B0BDE836
:104EC000F08D07E0281E05DA80F0004118B060463A
:104ED000BDE8F08DAF497944D1E9000118B0BDE8D3
:104EE000F08DDFF8A0C2634525D1002D1FDA19B17E
:104EF000514512D1D8B909E0002840F0EC82A24A0D
:104F0000214618B062F31E01BDE8F08D0020214655
:104F100018B060F31E01BDE8F08D08DA18B0234622
:104F2000BDE8F04D024600206146FBF7BFBA18B05D
:104F30002146BDE8F08D514518DAB5F1804F0DD00E
:104F4000A5F1005CBCF1FF5C10D1B4F1000C0DDBED
:104F500018B06146BDE8F04D00F01FBD234618B003
:104F60000246BDE8F04D1946FBF72EBA060024F0C4
:104F7000004C3BD1D9B1514533D1002C06DD002D79
:104F8000A1BF0020514618B0BDE8F08D002C01DD16
:104F9000002D1BDB002C13DA002D11DB012A4FF052
:104FA000000014BF78497C4918B0BDE8F08D022A92
:104FB00018BF002C0AD0012A08D1002C06DA0AE01A
:104FC000002CB8BF002D11DA012A04D0002018B03F
:104FD0000146BDE8F08D18B000204FF00041BDE85B
:104FE000F08DA1F14050B0F17F601AD0012000EBAC
:104FF000E47050EA020421D0624C521E4FF0000BC4
:10500000104304BF4FF0000B644C654883427CDDC5
:10501000644A654893421FDD884217DB002D25DB7B
:1050200037E0002C00DA4AB1022A0CBF01204FF011
:10503000FF3018B0BDE8F04DFBF7BEBA0120FEF717
:105040009FFC18B0BDE8F04DFEF774BC4D4A8A4293
:1050500002DC002D0ADC1CE0814202DA002D18DAA5
:1050600004E0484B994220DD002D12DD0220FEF7BE
:1050700087FCFEF765FC05460E460022534658465F
:105080002146FBF7A1F918B066F31E012846BDE8DA
:10509000F08D0220FEF774FCFEF75AFC0A4621460A
:1050A00018B062F31E01BDE8F08D00223046614663
:1050B000FBF784F980460E466FF00102FBF765FAB4
:1050C0004FF05532394BFBF77CF942463346FBF73C
:1050D0007BF90022364BFBF774F982464246334691
:1050E000049110461946FBF76FF95246049BFBF7F3
:1050F0006BF98A4600904FF0C0422E4B4046314635
:10510000FBF762F92C4A2B4B00E027E0CDE90601C2
:1051100051460098FBF758F982460191274A284BDF
:1051200040463146FBF750F95246019BFBF746F9E2
:1051300082460B4602460591DDE90601FBF79DF824
:10514000DDE90623002688463046FBF737F952464C
:10515000059BFBF736F9024600F07EB90020B1F559
:10516000801F07DA352230466146FBF70EFA064605
:105170006FF0340000EB215024E00000FFFF1F001F
:10518000FFFF0F000000F03F0000F07F00004043F1
:1051900001FCFFFFDE4700000000F0FF0000F0BF51
:1051A0000000E0410000F043FFFFEF3F5555D53FC1
:1051B0000000E03F4715F73FFE822B6544DF5DF8B6
:1051C0000BAE543EA0F2FF300190C1F3130040F04B
:1051D0007F6141F040510291FE498842D8BF0020D2
:1051E00004DDFD498142C8BF012001DD0D9008E0CA
:1051F00000200D900198401C01900298A0F58010AD
:1052000002900299F54878440B910D9900EBC1008A
:10521000D0E900230F9330460A920B99FBF7CEF8A2
:10522000CDE90601DDE90A2130460F9BFBF725F8A1
:1052300002460B460020EA49FBF738F90591024681
:105240000B460090DDE90601FBF7BEF81490E54837
:105250008A464FF0000878440299006812904FF097
:10526000005040EA61010D980F9B01EB804000F572
:10527000002109910A9A1298FBF7A0F832460B9B7D
:10528000FBF79FF842465346FBF79EF8064602910D
:1052900040465146099B129AFBF796F8DDE9062332
:1052A000FBF78FF83246029BFBF788F8059B009AC4
:1052B000FBF78AF80091149A049053461046194659
:1052C000FBF782F806460246C7480B4602910621C4
:1052D0007844FEF7CFFACDE90510029B324610461E
:1052E0001946FBF771F8DDE90532FBF76DF805911A
:1052F0000646534640461946149AFAF7BEFF009BED
:10530000049AFBF761F83246059BFAF7B6FFCDE940
:1053100005104246534610461946FBF755F8002241
:10532000B24B02910A90FAF7A8FFDDE90532FAF7CD
:10533000A4FF0E464246AD4B4046FBF73FF8029BAA
:105340000A9AFBF73BF8DDE90532FBF73AF84246EB
:1053500002910A90334610465146FBF735F8CDE9E5
:1053600006015346149A02990A98FBF72DF88A46CB
:1053700002903346424600990498FBF725F85346BD
:10538000029AFAF77AFF82460B4602460591DDE95A
:105390000601FAF772FFDDE906230020884606467B
:1053A000FBF70CF85246059BFBF70BF88246099178
:1053B0004FF060428E4B30464146FBF705F80490B3
:1053C00006918C4A8A4B50460999FAF7FDFF8246AE
:1053D0000291894A894B30464146FAF7F5FF524619
:1053E000029BFAF74AFF864B7B440D9A03EBC203FC
:1053F000D3E90023FAF741FF0E9007910198FBF7DC
:10540000DBF80591DDE9061382460E9A0498FAF757
:1054100034FF7C4A7A440D9B02EBC303D3E900239B
:1054200000930292FAF729FF5246059BFAF725FFEF
:105430000026884652463046059BFAF7BFFF009B80
:10544000029AFAF7BBFF069B049AFAF7B7FF079B8D
:105450000E9AFAF7B6FF024600200B460290384635
:105460002946FAF7B1FF824601912B463846194684
:10547000029AFAF7A3FF32464346FAF7A5FF5246CF
:10548000019BFAF7FAFE07468A463246434629460A
:105490000298FAF799FF05460E463A465346FAF740
:1054A000ECFE594A8846914221DBA8EB020353EAFD
:1054B000000210D12A463346FAF780FFCDE90401F5
:1054C000524A534B38465146FAF7D7FEDDE90423DA
:1054D000FBF7DCF821D20220FEF752FAFEF730FA91
:1054E0000A46214618B062F31E01BDE8F08D494B13
:1054F00028F000429A4210D3474A08EB020353EACD
:1055000000027FF4C6AD2A463346FAF757FF3A4603
:105510005346FBF7BBF87FF6BCAD0022019228F0A2
:1055200000403E493E4A01EB2051824223DA481CAA
:105530004FF4801121FA00F040443A4AC0F30A5176
:105540007A44394BA1F2FF31CB4020EA0303C0F388
:10555000130040F48010C1F11401C840126801909A
:10556000B8F1000FBCBF4042019028463146FAF71F
:1055700025FF05460E462A46334638465146FAF779
:105580007CFE4FF000084246284B40460591FAF752
:105590001BFFCDE90601264A264B40460599FAF73E
:1055A00013FF009102902A46334640460599FAF7C8
:1055B00005FF3A465346FAF704FF1F4A1F4BFAF716
:1055C00003FF009B029AFAF758FE074688460246F8
:1055D0000B4635E08E9803007AB60B002644000097
:1055E0000000F03F5E4400008C43000000000840D3
:1055F00009C7EE3FFD033ADCF5015B14E02F3EBE28
:10560000644200002842000000009040FE822B65AA
:105610004715973C00CC904000346F3F01FCFFFFE2
:105620000000E03F74410000FFFF0F00432EE63F03
:10563000396CA80C615C20BEEF39FAFE422EE63FC1
:10564000DDE90601FAF719FEDDE9062305460E46F7
:10565000FAF7B4FE3A464346FAF7B3FE0F462A4637
:105660003346009010461946FAF7AEFE82460246CF
:105670002E4888460B4605217844FEF7FBF8524633
:105680004346FAF7A1FE2A463346FAF79AFE8046C9
:105690008A463B4628463146009AFAF795FE3B4635
:1056A000009AFAF7EAFD0691009000224FF080433D
:1056B00040465146FAF782FE0F460C90424653464A
:1056C00028463146FAF780FE3B460C9AFAF7EEFE82
:1056D000069B009AFAF772FE2A463346FAF76EFEE8
:1056E0000022134BFAF76DFE054601980E4601EBBA
:1056F00000510815002810DC28463146019AFAF7B7
:1057000044FFFEF7A3F8042808BFFEF721F9284656
:105710003146019AFAF739FF05460B4618B02A467A
:1057200058462146BDE8F04DFAF74EBE1440000041
:105730000000F03F3EB500200146012202929DF894
:105740000820012A01D0012200E00022074C00239A
:105750003AB1012A03D100940193DDE9000103B0BD
:1057600030BD01940093DDE90001F8E70000F07F0F
:105770004FF0FF40704700003EB500200146012277
:1057800002929DF80820012A01D0012200E00022A7
:10579000074C00233AB1012A03D100940193DDE9BB
:1057A000000103B030BD01940093DDE90001F8E78A
:1057B0000000F0FF00487047000080FF0EB5002099
:1057C0000146012202929DF80820012A01D00122FF
:1057D00000E0002252B1012A06D16FF00040009093
:1057E000901E0190DDE9000103B000BD0348019067
:1057F00000200090DDE90001F6E700000000F8FF5E
:105800000CB500200190012000909DF800000128B7
:1058100001D0012000E0002010B1012806D102E0F3
:105820000348019002E06FF00040019001980CBD28
:105830000000C0FF10B502460B46FAF70FFF01D07B
:10584000012010BD002010BD10B5FFF7B7FF0A4CB6
:10585000C4E90801FFF7D4FFA060FFF76BFFC4E9BC
:105860000401FFF785FF2060FFF786FFC4E906010A
:10587000FFF7A0FF606010BD980100202DE9F04106
:10588000DFF8B480044621F00045164623F00047B7
:1058900032463B4620462946FAF7E0FE19D2324608
:1058A0003B4620462946FAF701FE04460D462246AD
:1058B0002B4620462946FAF787FD00224346FAF791
:1058C000DCFC00F06AF832463B46BDE8F041FAF7EE
:1058D0007BBD32463B4620462946FAF7D7FE19D211
:1058E00022462B4630463946FAF7E0FD06460F467B
:1058F00032463B4630463946FAF766FD00224346BB
:10590000FAF7BBFC00F049F822462B46BDE8F0410F
:10591000FAF75ABD30463946FFF78CFF18B10749F0
:1059200003C9BDE8F08120462946BDE8F041044A9C
:10593000044BFAF749BD00000000F03FB801002019
:10594000CD3B7F669EA0F63F2DE9F04104460D4613
:1059500016461F462A2000F0B9F8200A00F0DEF8AB
:10596000E0B200F0DBF8300A00F0D8F8F0B200F056
:10597000D5F82B2000F0AAF8280A00F0CFF8E8B2FA
:1059800000F0CCF8380A00F0C9F8F8B200F0C6F818
:10599000BDE8F0412C2000F099B82DE9F041064611
:1059A0000F46FAF74AFF041E0D4618BF0120284390
:1059B00020F00040C0F17F6000F1E040C00F0ED049
:1059C000301C18BF0120384320F00040C0F17F6038
:1059D00000F1E040C00F04BF0120FDF7D1FF2046D9
:1059E0002946BDE8F0810000102949D2DFE801F026
:1059F000080C1014181C2024282C3034383C404447
:105A0000014621A0FBF736BB014620A0FBF732BBC5
:105A100001461FA0FBF72EBB01461EA0FBF72ABBC9
:105A200001461DA0FBF726BB01461CA0FBF722BBCD
:105A300001461BA0FBF71EBB01461AA0FBF71ABBD1
:105A4000014619A0FBF716BB014618A0FBF712BBD5
:105A5000014617A0FBF70EBB014616A0FBF70ABBD9
:105A6000014615A0FBF706BB014614A0FBF702BBDD
:105A7000014613A0FBF7FEBA014612A0FBF7FABAE3
:105A8000014611A0FBF7F6BA30000000310000001B
:105A90003200000033000000340000003500000038
:105AA0003600000037000000380000003900000018
:105AB000D0900000D0920000D0A10000440000006F
:105AC000D0950000460000003F00000031B51148AD
:105AD000018841F001010180018841F0020101804B
