:020000040800F2
:1000000008780120AD01000867200008CD1700081E
:10001000652000081F0F00083932000800000000AA
:10002000000000000000000000000000F1240008B3
:100030000D110008000000000D21000891280008A3
:10004000C7010008C7010008C7010008C701000870
:10005000C7010008C7010008C70100086D150008A6
:10006000C7010008C7010008C7010008C701000850
:10007000C7010008C7010008C7010008C701000840
:10008000C7010008C7010008C7010008C701000830
:10009000C7010008C7010008C7010008C701000820
:1000A000C7010008C7010008C7010008C701000810
:1000B000812A0008452B0008CD2B0008C701000845
:1000C000C7010008C7010008C7010008C7010008F0
:1000D000C7010008C7010008C7010008C7010008E0
:1000E000C7010008C7010008C7010008C7010008D0
:1000F000C7010008C7010008C7010008C7010008C0
:10010000C7010008C7010008C7010008C7010008AF
:10011000C7010008C7010008C7010008C70100089F
:10012000C7010008C7010008C7010008C70100088F
:10013000C7010008C7010008C7010008C70100087F
:10014000C7010008C7010008C7010008C70100086F
:10015000C7010008C7010008C7010008C70100085F
:10016000C7010008C7010008C7010008C70100084F
:10017000C7010008C7010008C7010008000000000F
:10018000C7010008C7010008C7010008C70100082F
:10019000C7010008DFF810D000F0D2FB004800478C
:1001A00085470008AFF300800878012006488047A3
:1001B00006480047FEE7FEE7FEE7FEE7FEE7FEE74C
:1001C000FEE7FEE7FEE7FEE751290008950100087B
:1001D0002DE9F0410024061B254671F1000605DAE1
:1001E00001240027D0EB070067EB0101161E73F115
:1001F000000605DA0027D2EB0702012567EB0303AF
:1002000000F04AFA86460E4617469C46AC4204D099
:100210000025D0EB050E65EB010624B10020D2EBE2
:10022000000760EB030C704631463A466346BDE872
:10023000F081D2B201E000F8012B491EFBD27047D9
:100240000022F6E710B513460A4604461946FFF7A2
:10025000F0FF204610BD2DE9FE4F804681EA0300E5
:10026000C00F0C46009021F0004123F00045B8EB90
:100270000200A94105D24046214690461C460B4645
:10028000024623F00040104347D0270DC7F30A0071
:10029000C3F30A510290401A019040286BDAC3F36D
:1002A000130040F4801B0098924620B10023D2EB4B
:1002B000030A63EB0B0B01985946C0F1400250460C
:1002C00000F01BFA06460D4650465946019A00F0CA
:1002D00033FA10EB08006141002487EA115284EAE6
:1002E000E7731A4340D0009A62B3019A012A4FEA99
:1002F000075215DC001B61EB02014FF0004202EADD
:100300000752CDE90042001C41F5801132462B46D0
:1003100000F033FA03B0BDE8F08F40462146F9E71C
:10032000001B61EB0201001C41F5801300185B41CA
:100330002018A2F5001747EB030140EAD570B61963
:100340006D4111E06D084FEA360645EAC0754FEA87
:100350000752001B61EB0201001C41F580114908A6
:100360004FEA30000019514132462B4603B0BDE838
:10037000F04F00F0F3B90098012240000023D0EBC9
:10038000020263EBE073009821464FEAE074B8EB99
:10039000000061EB0401E9E783F000435BE781F0D3
:1003A000004158E72DE9FE4F81EA030404F00044C0
:1003B00021F0004100944FF0000B23F0004350EA7D
:1003C00001045ED052EA03045BD0C3F30A54C1F3C4
:1003D0000A552C44A4F2F3340194A0FB0254C1F357
:1003E000130141F48011C3F3130343F4801301FBA1
:1003F000024400FB034E840A970A44EA815447EA08
:100400008357A4FB076802958D0A05FB07854FEA11
:10041000932C04FB0C542705029D4FEA065847EA2B
:100420001637B5EB08056EEB070C870E920E47EA00
:10043000811742EA8312A7FB0201B6EB0B0164EBC2
:1004400000042B0D43EA0C335E1844EB1C50DA46D3
:100450005146E7FB0201C5F313044FEA0B3343EAAD
:1004600014534FEA0432019C43EA0603A4F10C043E
:100470000294009CCDE900B400F07FF903B0BDE820
:10048000F08F00200146F9E72DE9F04D81EA0304E1
:1004900004F0004B21F0004514464FF0000A23F011
:1004A000004150EA050220D054EA01021DD0C5F3F4
:1004B0000A570246C5F31303C1F31300C1F30A56EA
:1004C00040F4801543F48013A7EB0608101BD646B2
:1004D00008F2FD3873EB050002D308F1010801E0D2
:1004E00092185B41B8F1000F03DA00200146BDE825
:1004F000F08D00204FF48011064684460EE0171B55
:1005000073EB050705D3121B63EB050306434CEAA7
:10051000010C49084FEA300092185B4150EA01078C
:10052000EDD152EA030012D082EA040083EA050109
:10053000084305D0101BAB4106D20122002306E080
:1005400000224FF0004302E06FF0010253101AEB5B
:1005500006004CEB085110EB0A0041EB0B01BDE823
:10056000F04D00F0FBB870B521F0004303430CD010
:10057000C1F30A550024D5EB040564EB0403D61738
:10058000AD1AB34102DB0020014670BD201841EBDB
:10059000025170BD0EB5C10F80EAE0700844CA0771
:1005A000002140F233438DE80E000A460B4600F06E
:1005B000E4F803B000BD0EB540F2334102910021D2
:1005C000CDE900110A460B4600F0D7F803B000BD94
:1005D0003EB5CA17CB0F002450405140C0186141AE
:1005E000DA0740F233430094CDE901232246234643
:1005F00000F0C3F803B030BD70B5C1F30A5201F08A
:1006000000450024C1F3130140F2FF3341F480118F
:100610009A4201DA002070BD40F233439A42A2F2BE
:10062000334203DC524200F077F800E090402C4364
:10063000F1D0404270BD000030B5041E71F10004DD
:1006400004DB4FF00044404264EB0101141E73F1DF
:10065000000405DB1C464FF00043524263EB0403E9
:100660008B4208BF824230BD30B5041E71F10004D8
:1006700004DB4FF00044404264EB0101141E73F1AF
:10068000000405DB1C464FF00043524263EB0403B9
:10069000994208BF904230BD2DE9F05F0546002029
:1006A00092469B4688460646814640241BE02846E3
:1006B00041464746224600F02FF853465A46C01A94
:1006C000914110D311461846224600F016F82D1A13
:1006D00067EB01084F4622460120002100F00DF88B
:1006E00017EB00094E41201EA4F10104DFDC48464F
:1006F00031462A464346BDE8F09F202A04DB203AD3
:1007000000FA02F1002070479140C2F1200320FA64
:1007100003F3194390407047202A04DB203A21FA62
:1007200002F00021704721FA02F3D040C2F120020A
:100730009140084319467047202A06DBCB17203A20
:1007400041FA02F043EAE07306E041FA02F3D040D6
:10075000C2F12002914008431946704710B5141E9B
:1007600073F1000408DA401C41F1000192185B416A
:100770001A4301D120F0010010BD2DE9F04D924641
:100780009B4611B1B1FA81F202E0B0FA80F2203258
:100790009046FFF7B2FF04460F4640EA0A0041EADE
:1007A0000B0153465A46084313D0114653EA010041
:1007B00019D0C8F140025046FFF7AEFF05460E467D
:1007C000504659464246FFF798FF084305D001209E
:1007D00004E020463946BDE8F08D0020054346EA96
:1007E000E0762C4337430A986305E40AA0EB08003F
:1007F0000022FD0A44EA47540A3002D5002001468F
:10080000E9E7010510196941DDE908450019694169
:10081000BDE8F04DA2E72DE9F04D00231A461B1A62
:100820008A4103DB00200146BDE8F08DC1F30A5286
:10083000C1F3130141F480154FF0000BD10702D131
:1008400000186D41521E0027044640F2FF11384641
:1008500001EB620A3E468046024600204FF48011BA
:10086000FFF75AFFC2197141BB1846EB0100B4EB08
:10087000030C75EB000C04D3E41A65EB0005174676
:100880000E46241908F101006D4180463428E3DD4D
:10089000F91946EB0600091BA84103D24FF0FF32BD
:1008A000134601E0002213461BEB070046EB0A51FA
:1008B000BDE8F04DFFF752BF2DE9FE4FC3F30A57D5
:1008C00001F000450024C1F30A56C3F31303C1F33A
:1008D000130143F4801312EB020AA64641F480117F
:1008E000009543EB030CA7F1010B16E0B0EB0A00F7
:1008F00061EB0C01071E71F1000707DA4FF00008E9
:10090000D0EB080085F0004568EB0101171A73EB86
:100910000107EBD3761E001849415E45F6DA50EA2E
:10092000010209D0CDE900E5002213460296FFF747
:1009300024FF03B0BDE8F08F20460099F9E70000DE
:10094000064C074D06E0E06840F0010394E807001C
:1009500098471034AC42F6D3FFF720FCA89000086B
:10096000C890000870B58C1810F8015B15F00703EB
:1009700001D110F8013B2A1106D110F8012B03E038
:1009800010F8016B01F8016B5B1EF9D12B0705D440
:100990000023521E0DD401F8013BFAE710F8013B89
:1009A000CB1A921C03E013F8015B01F8015B521EA5
:1009B000F9D5A142D8D3002070BDC943016070476A
:1009C0000B78426863F3196242604B78426863F3C4
:1009D00008224260CB78826863F31D7282600B79D3
:1009E000826863F31B6282604B79826863F3CB2277
:1009F00082608B78826863F3410282608979C26A7F
:100A0000491E61F31752C262704770B50726092963
:100A10000AD9C568A1F10A0404EB4404A640B54311
:100A2000A3401D43C56007E0056901EB4104A640F2
:100A3000B543A3401D4305611F23072A09D2446B18
:100A4000521E02EB820293409C4391400C4344634C
:100A500070BD0D2A09D2046BD21F02EB82029340B3
:100A60009C4391400C43046370BDC46A0D3A02EB91
:100A7000820293409C4391400C43C46270BD0021AC
:100A8000017041708170C1700171417101218171EA
:100A90007047816841F00101816070477FB5012096
:100AA00001F046FB02A800F05AFE03208DF80A0070
:100AB00000248DF80D400125ADF8085002A9164814
:100AC00000F0F4FD280201F04BFB00F033F868461B
:100AD000FFF7D5FF8DF800408DF802508DF80540E6
:100AE0008DF803408DF801400C4C69462046FFF715
:100AF00067FF0423012200212046FFF786FF012221
:100B00001146122001F0BAFA2046FFF7C2FF204634
:100B100000F01BF87FBD00000000024000200140F3
:100B2000C06C80B270470068084201D00120704755
:100B30000020704710B54FF48074204601F018FB78
:100B40002046BDE8104001F0EBBA816841F08041D9
:100B5000816070472DE9FC410646684600F0FFFDC4
:100B6000012001F0E5FA102001F0FAFA164D0722F3
:100B70000921284600F0D8FD07220A21284600F066
:100B8000D3FD02248DF802402002ADF800008DF85C
:100B900003406946284600F089FD0C4F314638462F
:100BA00002F090F98DF802406002ADF8000069464D
:100BB000284600F07BFD3146384602F083F938467E
:100BC00002F0F8F9BDE8FC8100000240001001408D
:100BD0007CB504460F4850F8240001F0A9FA684695
:100BE00000F0BDFD0B4D103D35F81400ADF80000D0
:100BF00001208DF8020002208DF80300064E6946A0
:100C000056F8240000F052FD56F8241035F8140070
:100C100008837CBDE855000800000020044951F815
:100C200020100A8B034B33F8100002430A837047ED
:100C300000000020D8550008044951F820104A8BC4
:100C4000034B33F8100002434A8370470000002032
:100C5000D85500082DE9FF4104460F461F4850F8BB
:100C6000240001F065FA02A800F079FD00268DF855
:100C70000A601A48143830F81400ADF8080001254D
:100C80008DF80D50164802A950F8240000F00EFD12
:100C9000012F21D1A80301F063FA01F057FC0F489E
:100CA0002238015D801E005D01F024FC0B480830F5
:100CB00050F8240000908DF804600C208DF8050099
:100CC0008DF80650684600F059FC04480F22203881
:100CD0000021005701F0D2F9BDE8FF81F05500086E
:100CE000080000202DE9F34F89B000263746B046B2
:100CF000C146B246D346002004900590039002906E
:100D0000019053E00199099800EBC10030C800221E
:100D1000464B29462046FFF7A7FC15D20022134672
:100D200040464946FFF788FC0ED242464B465046A5
:100D30005946FFF790FA82468B460298401C80B2D3
:100D400002904FF00008C1460022394B2046294648
:100D5000FFF772FC14D20022134630463946FFF7E3
:100D600083FC0DD2DDE9040132463B46FFF773FAFE
:100D7000CDE904010398401C80B203900026374659
:100D800042464B4620462946FFF756FC01D2A04674
:100D9000A94632463B4620462946FFF765FC01D26C
:100DA00026462F460198401C80B201900A9901986E
:100DB0008842A7D30298FFF7FEFB02460B46504637
:100DC0005946FFF761FB04460D460398FFF7F3FB16
:100DD00002460B46DDE90401FFF756FB22462B468F
:100DE000FFF7DAFA04460D46124E0D21304602F0A6
:100DF00003F911A003C8CDE90701052207A9304670
:100E000002F006FA032000902B462246304602F0FC
:100E100003F90BA000680690022206A9304602F0F2
:100E2000F7F90BB020462946BDE8F08F0000794065
:100E3000000079C0001001404156473A20000000F0
:100E40006D56000004480122427000218180C1805B
:100E50000170018182707047C0000020F0B5DDE9AB
:100E60000547641E24B202260CE0E51B06D410F8E8
:100E700005C002F804C04D5D1D5501E016551E5514
:100E8000641E24B2002CF0DAF0BD862837D012DCC4
:100E90004A282CD008DC012821D01F2821D02C285A
:100EA00021D0322817D120E0542822D0672822D020
:100EB000792810D121E0CD2829D006DC982820D02F
:100EC000AB2820D0B52806D11FE0D32821D0E028B8
:100ED00021D0FE2821D001200870FF20704700207B
:100EE000704701207047022070470320704704209C
:100EF000704705207047062070470720704708207C
:100F00007047092070470A2070470B2070470C205B
:100F100070470D2070470E2070470F207047FEE786
:100F20002DE9F0470446DDF820800D461A4EDFF823
:100F30006C9001277078002802D00120BDE8F0876E
:100F400020462946FFF790FB02D2C9E9004501E09F
:100F5000C9E90245B9E80F00FFF71EFAD6E90223F6
:100F6000FFF782FB15D277700021C8F80010C8F88F
:100F700004100022134620462946FFF775FB01D2D4
:100F8000377101E0FF2030710020FFF755FE01208E
:100F9000D4E70020D2E70000E00000207005002028
:100FA0000022835C8B54521CD2B2032AF9D37047BF
:100FB0002DE9F84F81468A460025A846AB46CDF874
:100FC00000B000264FF0000C00278024002000EB2A
:100FD000C60119F801E00EFB04CC1FFA8CFC1AF8CC
:100FE000011001FB04718FB26408401C0828EEDB7D
:100FF00069466046FFF749FF044669463846FFF7F1
:1010000044FF9DF8001049B1CDF800B0761C052EC4
:10101000D8DB022D0FD2012010700EE000EB04107F
:1010200080B22DB14045F1D180466D1CEDB2EDE7A7
:1010300080460125EAE782F800B01D704046BDE811
:10104000F88F000030B5084C236840F6FE728240ED
:1010500093430A788D782A438D8849780D432A4333
:1010600082401A43226030BD0074004008B5034A34
:101070001044083000900098016008BD00740040E2
:1010800000210170817081804170704707490028FC
:1010900006D0102803D1086840F4803008607047FB
:1010A000086840F0010008607047000000740040CC
:1010B0001FB5012001F03CF802A800F050FB03200E
:1010C0008DF80A0000248DF80D401020ADF80800BE
:1010D00002A90D4800F0EAFA4FF0005001F030F894
:1010E0006846FFF7CDFF8DF800408DF80240ADF85F
:1010F00004408DF8014069460020FFF7A3FF00205F
:10110000FFF7C4FF1FBD0000000002407047000051
:101110002DE9F04399B08046894600240025344EDD
:1011200028271895179528210DA8FFF789F8282159
:1011300003A8FFF785F8CDE9007403AB0DAA494673
:101140004046FFF78BFE17AB18AA03A90DA8FFF7BF
:101150002FFF9DF8601081B1641CA4B2082CE0D36D
:1011600003222449304602F053F82021304601F092
:1011700043FF012019B0BDE8F083010900F00F0022
:1011800001EB0014A02C07D2302000EB1410C1B2E8
:10119000304601F031FF06E0372000EB1410C1B2F9
:1011A000304601F029FF04F00F010A2904D2303142
:1011B000304601F021FF03E03731304601F01CFFDB
:1011C0002021304601F018FF9DF85C003030C1B29C
:1011D000304601F011FF204601F074FA014605483F
:1011E0000A38D0E90623204600F08AFB0020C1E738
:1011F00000100140CA00002008B500900098411E70
:101200000091FBD208BD00002DE9FF4FEDB04FF477
:10121000A4711AA8FFF714F8C44EC54F4FF0000888
:10122000C146B80701F04AFD72B6282110A8FFF7A1
:1012300007F8282106A8FFF703F80D21BD4801F0A3
:10124000DBFE4FF0000A6E98B0F802B030E06D9807
:10125000324600EBCA003B4630C820462946FFF71D
:1012600013F9FFF7C9F9FFF795F932463B46FFF747
:1012700099F822462B46FFF792F8AF4CAF4B224627
:10128000FFF790F832463B46FFF7FEF82246AC4B9C
:10129000FFF782F804460D4622462B464046494653
:1012A000FEF7D9FF804689460AF1010A0AF0FF0AD3
:1012B000D345CCD20022A34B40464946FFF7E4F881
:1012C000CDE91A0132463B46FFF76CF89A4A9B4B30
:1012D000FFF7DAF8804689464FF0010A02200590B0
:1012E0004FF0000B002004900390029005986E9937
:1012F000401E059A31F8100031F81210401C884247
:101300007ED880B201906BE001996D98424600EB67
:10131000C1014B4603C9FFF73FF832463B4602F096
:10132000CDFE854C854B2246FFF73CF832463B46C6
:10133000FFF7AAF82246824BFFF72EF804460D4627
:101340000022134620462946FFF776F907D27A4A4B
:101350007A4B20462946FEF77EFF04460D46764A24
:10136000794B20462946FFF767F906D3774A784B31
:1013700020462946FFF778F904D80BF1010B0BF052
:10138000FF0B29E06C4A704B20462946FFF76CF9A9
:101390000BD8704A704B20462946FFF74DF904D20E
:1013A0000498401CC0B2049016E06A4A6A4B20467A
:1013B0002946FFF759F90BD8684A694B2046294658
:1013C000FFF73AF904D20398401CC0B2039003E03F
:1013D0000298401CC0B202900198401C80B201905B
:1013E00005996E9830F81110019881428CD20498BA
:1013F000834517D30398834514D90298834500E0A9
:101400007EE00FD31AA800EBCA00002202604260FF
:1014100010A95144002001F8010C06A9514401F81B
:10142000010C51E00498584518D9DDE903108842B1
:1014300014D302990498884210D91AA83E4900EBA7
:10144000CA00484A06C010A95144012001F8010C05
:1014500006A95144002001F8010C35E003985845D5
:1014600017D9DDE90301884213D9DDE9021088426A
:101470000FD31AA8304900EBCA00314A06C010A9A0
:101480005144012001F8010C06A9514401F8010C56
:101490001AE00298584517D902990498814213D945
:1014A000DDE9021081420FD91AA82A4900EBCA00CF
:1014B0002D4A06C010A85044002100F8011C06A9BE
:1014C0005144012001F8010C1AA800EBCA01324670
:1014D00003C93B46FEF766FF174A184BFEF7D4FFD9
:1014E00042464B46FEF7B7FE804689460AF1010A9E
:1014F0000598401C80B2059005982A28FFF4F0AEAC
:1015000006A910A8FFF704FE002110AA06AC6F9BE5
:10151000555C5D54709B655C5D54491CC9B22829BB
:10152000F5D362B671B0BDE8F08F0000E3642A35F0
:10153000CD92333F00100140EA2E4454FB21194064
:10154000FB21094000003C40FB21E93F0DA9BBE91C
:10155000BBFD15403023337F7CD90240A43A552986
:101560007A6A0F40FB21F93F7CD9124000F08EB916
:101570000149086070470000143C014030B51B4A27
:1015800083790168002B2AD013688B431360111DE7
:101590000B680468A3430B60017911440B6804686D
:1015A00023430B60114C0834216803689943216080
:1015B000231D19680568A94319604179102905D0D0
:1015C00011440A68006802430A6030BD216802685D
:1015D00011432160196800680143196030BD00792A
:1015E000104402688A43026030BD0000003C0140A4
:1015F00001460020054A12680A40044B14331B6858
:101600000B4202D0002A00D001207047003C01406C
:101610002DE9F0410446069E0D46DFF84480114F47
:1016200020462946FFF720F802D2C8E9004501E02C
:10163000C8E90245B8E80F00FEF7AEFED7E902237D
:10164000FEF7FAFF03D2F888401CF88001E0002082
:10165000F880F888202801D901203070BDE8F08199
:1016600070050020E000002010B50020044A00248E
:1016700002EBC0010C604C60401C0A28F7DB10BD77
:10168000B873012010B50121880701F0CDFA0121BE
:10169000044801F0C9FABDE8104002210248FFF7F2
:1016A0008CB9000000040040002001402DE9F04109
:1016B000002201274FF0030C07FA02F50B882B409C
:1016C000AB422CD1066853000CFA03F4A643066023
:1016D0008E78D0F800809E4046EA080606608E7834
:1016E000012E01D0022E12D18668A6438660CE78E4
:1016F000D0F808809E4046EA080686604668AE43F9
:10170000466045680E799640B6B235434560C56877
:10171000A543C5604C799C40C3681C43C460521CFF
:10172000102AC9D3BDE8F08110B5CC084FEA417149
:101730004FEAD1634FF00F0102FA03F201FA03F10D
:1017400006D0436A8B434362416A1143416210BD34
:10175000036A8B430362016A1143016210BD4FF6B5
:10176000FF71018000218170C1700171417170476A
:1017700010B50948FFF7D4F940F6E441484340F674
:10178000FF71B0FBF1F0FEF716FFBDE8104000223C
:10179000024BFEF701BE00000020014000709740A0
:1017A0000148007970470000E00000200549002052
:1017B00088704870C88004480022026042608260DD
:1017C000C2607047E000002070050020FEE70000C6
:1017D0002DE9F05F81468A462A4F484651460CCF94
:1017E000FEF7E0FD04460D460126A7F11000B0F912
:1017F0000080C34615E0234800EBC6000CC8224811
:1018000000EBC80103C9FEF7CDFD22462B46FEF7CB
:1018100022FD04460D46761CB6B208F101080FFA07
:1018200088F8B8F10A0FE6DB0027DFF85C8012E0E9
:10183000144808EBC70100EBC6000CC803C9FEF74B
:10184000B1FD22462B46FEF706FD04460D46761CEA
:10185000B6B27F1C3FB25F45EADB0A49ABF1010B30
:1018600008390FFA8BF00880002801DA0920088077
:10187000B1F9000008EBC000C0E9009A20462946F3
:10188000BDE8F09F20010020B873012010B50220B0
:10189000FFF7AEFE00282BD01648FFF7ADFCFFF790
:1018A000F1FE154C207878B100F026F90020207068
:1018B000124801F003FAFFF7D7FE01F0BFFC01F078
:1018C000E1F800F01BFB0CE000F0A0FA0120207012
:1018D000800701F0F3F900F0DFFE01F035F900F0C8
:1018E0000DFB01F075F9BDE810400220FFF740BE86
:1018F00010BD0000809698002C00002000040040DD
:101900002DE9F04F8FB007460E4614461D46DFF80E
:10191000D09199F80000002806D040F69910A9F857
:101920000200704801F0CFF96F484FF0020880F8CC
:101930000080002089F800006C48D0E9021200699C
:10194000CDE90A120C904FF6FF7A4FF4FA72134663
:101950004FF4AF719B20CDF800A002F071FB002284
:10196000634B20462946FEF776FC04460D4620468A
:101970002946FEF741FEC4170E904FF47A7B5A4673
:10198000002321460E98FEF723FC81B215460AA8D3
:101990000D9303F05BFD2846642200230D99FEF7AA
:1019A00017FC81B20AADA81D03F050FD642200238C
:1019B00021460E98FEF70CFC104619460A22002319
:1019C000FEF706FC81B20DF1310003F03FFD042467
:1019D000CDE900544FF4C875534600222946B4207F
:1019E00002F0CCF9B9F80200874260D0A9F8027081
:1019F0002B464FF4BE7264219B20CDF800A002F06C
:101A00001FFB3A48D0E90512C069CDE907120990D9
:101A100007AD3909A81D03F019FD07F00F010DF1FD
:101A2000250003F013FDCDE9005453460022642144
:101A30009B2002F0A3F92F48A6F51C514FF4967590
:101A40000F3937D0C1688068CDE90501B6FBFBF1DD
:101A500005A803F0FBFCB6FBFBF00BFB1060642455
:101A6000B0FBF4F105AFF81C03F0F0FCCDE9007811
:101A700053460022C821DC2002F080F9B6FBF4F0C6
:101A800004FB10600A24B0FBF4F105A803F0DEFCAF
:101A9000B6FBF4F004FB1061F81C03F0D7FCCDE9B1
:101AA0000078534600222946DC2002F067F90FB087
:101AB000BDE8F08F03C8CDE9030103ACCDE90048D0
:101AC00053460022C821DC2002F058F9CDE9004835
:101AD000534600222946DC2002F050F9E7E70000D7
:101AE0002E00002000080040F2000020D07A0008FC
:101AF00000001440505700087CB54FF6FF750021D8
:101B00004FF4F0734FF4A0720846009502F098FA73
:101B100004241A48CDE900042B464FF478420521ED
:101B2000552002F02BF915482B460C30CDE9000466
:101B300000226421052002F021F910482B461830BC
:101B4000CDE900040022C821052002F017F90B4856
:101B50002B462430CDE9000400224FF49671052075
:101B600002F00CF905482B463030CDE90004002284
:101B70004FF4C871052002F001F97CBD530000202C
:101B80002DE9F04F8DB0064614461D46984F387823
:101B9000002805D040F699107880964801F093F817
:101BA0009549022008704FF0000987F80090DFF88F
:101BB0004CA208ABDAE90912DAF8200007C34FF6A5
:101BC000FF784FF4967B4FF4AF734FF4A0725946F1
:101BD0009B20CDF8008002F033FA0022884B20468B
:101BE0002946FEF738FB04460D4620462946FEF7F7
:101BF00003FDC4170C904FF47A72002321460C9811
:101C0000FEF7E6FA81B2154608A80B9303F01EFC16
:101C10002846642200230B99FEF7DAFA81B208AD58
:101C2000A81D03F013FC6422002321460C98FEF744
:101C3000CFFA104619460A220023FEF7C9FA81B2EC
:101C40000DF1290003F002FC0420CDE900504346C9
:101C500000225946B42002F091F87888864205D1D6
:101C60006848FFF7C9FA0DB0BDE8F08F7E804FF4E9
:101C7000C8734FF4BE7264219B20CDF8008002F03F
:101C8000DFF9DAE90C12DAF82C0005AB07C3DAE960
:101C90000F12DAF8380002AB07C302AD05ACE12E33
:101CA00049D006DC4B2E0BD07D2E1AD0AF2E17D18B
:101CB0002CE0A6F58076133E52D0322E10D160E093
:101CC0000721E01C03F0C2FB0521A01D03F0BEFBB1
:101CD0000821E81C03F0BAFB0021A81D03F0B6FBA5
:101CE00071E0012105A803F0B1FB0221E01C03F023
:101CF000ADFB0521A01D03F0A9FB0721E81C03F0A3
:101D0000A5FB0021A81D03F0A1FB5CE0012105A8B3
:101D100003F09CFB0721E01C03F098FB0521A01DAC
:101D200003F094FB0621E81C03F090FB0021A81DA2
:101D300003F08CFB47E0022105A803F087FB02219A
:101D4000E01C03F083FB0521A01D03F07FFB0421B1
:101D5000E81C03F07BFB0021A81D03F077FB32E0B9
:101D6000022105A803F072FB0721E01C03F06EFBC3
:101D70000521A01D03F06AFB0021A81D03F066FBEE
:101D800021E0032105A803F061FB0221E01C03F020
:101D90005DFB0521A01D03F059FBD0208DF8080044
:101DA00092218DF809108DF80A908DF80B00A02172
:101DB0008DF80C108DF80D908DF80E0094208DF894
:101DC0000F008DF810900326CDE90046434600220F
:101DD0006421B42001F0D2FFCDE900564346002231
:101DE000C821B42001F0CAFF0748FFF705FA3AE717
:101DF0002E00002000080040F2000020D07A0008E9
:101E00000000144080969800A08601007CB54FF633
:101E1000FF7500214FF4F0734FF4A072084600954F
:101E200002F00EF903201549CDE900102B464FF4BE
:101E300078420521692001F0A1FF104804240930EF
:101E4000CDE900042B4600226421052001F096FF15
:101E50000A482B461530CDE900040022C821052090
:101E600001F08CFF05482B462130CDE9000400220B
:101E70004FF49671052001F081FF7CBD8F0000209A
:101E80007CB5042000F054F96846FFF768FC302068
:101E9000ADF8000003248DF8034001268DF80260A0
:101EA00000258DF8055069461248FFF7FFFB1148E1
:101EB0001830018841F030010180022000F038F92B
:101EC0006846FFF74CFCADF800408DF803408DF8F4
:101ED00002608DF8055069460748FFF7E7FB0648A2
:101EE0001A30018841F00301018042F21070FFF7BF
:101EF00083F97CBD0008024000040240044840F61B
:101F00009911418000210170024902200870704738
:101F10002E000020F20000202DE9FF473948DFF8AD
:101F2000F080394E017802240127DFF8E0A098F80C
:101F300000004FF6FF754FF4FA724FF496790029BE
:101F40002BD0002827D1134664219B20009502F056
:101F500077F8D6E90601CDE9020102AECDE90064C9
:101F60002B4600226421B42001F008FFCDE9006473
:101F70002B460022C821B42001F000FFCDE9006407
:101F80002B4600224946B42001F0F8FE88F8007084
:101F9000504600F093FEBDE8FF870028FBD11346B2
:101FA00064219B20009502F04BF8D6E90401CDE9AD
:101FB000020102AECDE900642B4600226421DC2040
:101FC00001F0DCFECDE900642B460022C821DC20B4
:101FD00001F0D4FECDE900642B4600224946DC2006
:101FE00001F0CCFECDE900642B4600224FF4C8710D
:101FF000DC2001F0C3FE88F80070504600F05EFE61
:10200000C9E700002C0000205057000800080040DD
:102010002E0000201CB5FFF733FF02F0F3FA4FF655
:10202000FF7400214FF4F0734FF4A072084600943F
:1020300002F006F807200A49CDE9001023460022E5
:10204000C8210A2001F09AFE054904201531CDE986
:10205000001023460022FA21552001F08FFE1CBDFE
:1020600032000020FEE77047024908430249086039
:10207000704700000000FA050CED00E070B5054661
:102080000E462148006800F4E0634FF4E060B3F5C9
:10209000A06F12D006DCB3F5407F14D0B3F5806F8B
:1020A00014D10DE0B3F5C06F04D083420ED10023EC
:1020B00004240FE0012303240CE00223022409E09E
:1020C0000323012406E00423002403E0FFF7CCFFF0
:1020D00000230424C3F10400C4F1040386400F204C
:1020E000D84010403043000105F1E02181F80004A0
:1020F00005F01F01012088406911890001F1E021EC
:10210000C1F8000170BD00000CED00E07047000058
:1021100002490A6882430A60704700002038024082
:1021200002490A6882430A6070470000243802406E
:1021300002490A6802430A607047000030380240D2
:1021400002490A6802430A607047000040380240B2
:1021500002490A6802430A607047000020380240C2
:1021600002490A6802430A6070470000443802408E
:1021700002490A6802430A6070470000243802409E
:102180000FB509A090E80E00C0688DE80E0003901E
:1021900000F036F808490968C1F303111DF8011071
:1021A000C84004B000BD00000000000000000000B6
:1021B0000102030406070809083802403CB504463A
:1021C0000D460CA003C8CDE90001FFF7D9FF0B4A6B
:1021D0006B4634B11168C1F38221595C20FA01F1D8
:1021E0002160002D05D01168C1F34231595CC8400F
:1021F00028603CBD000000000102030408380240D2
:1022000010B516480068C0F381011548002915D0A3
:102210004410012911D0022910D1104A121F11684F
:1022200001F03F011368C3F3805343B1B4FBF1F0F5
:102230001168C1F38811484307E0204610BDB0FB88
:10224000F1F01168C1F3881148431168C1F30141ED
:10225000491C4900B0FBF1F010BD000008380240F5
:102260000024F40070B502460B46134C4FF00005F5
:102270006078A178084301D0012070BD104623F09A
:102280000041D4E90223FEF7EFF902D225700020C5
:1022900070BD207810280BD90121A1702570074846
:1022A0000022026042608260C260E170012070BD65
:1022B000401C2070002070BDE00000207005002050
:1022C00070B594B006460D4614460020FEF7A6FCF5
:1022D0000120FEF7B1FC40F6FF710020FEF7C6FEBC
:1022E000FFF75EFA42B223462946304600F0C8FFA7
:1022F00028210AA8FDF7A4FF28216846FDF7A0FFC2
:102300006B460AAA21462846FEF77EFF00F096FF9C
:10231000FFF7AAF94FF0804000F0E8FCFEF7BEFBA3
:1023200000F0B0FB00210846FEF7A0FE0120FEF7FA
:1023300075FC14B070BD0B78026863F38202026012
:102340000B78026863F3082202604B78026863F33B
:10235000CB2202608B78026863F300020260CB78C4
:10236000026863F3410202600B79026863F3492259
:1023700002604B79026863F3C71202608A790368CE
:1023800062F3CF3303608A791309026863F38E32F4
:102390000260CA88130A026863F38A2202600B7A19
:1023A000026863F3C50202604A89016962F30F01A2
:1023B000016170470021C18001704170C17081705E
:1023C000017101724171072141817047016821F457
:1023D000005101607047416821F00401416070477D
:1023E000016841F04001016070478068084201D0F7
:1023F000012070470020704730B585B00320FFF7FB
:1024000097FE4FF48050FFF7ABFE4FF48040FFF78C
:10241000A7FE264D052211462846FFF785F905221D
:1024200006212846FFF780F9052207212846FFF7F5
:102430007BF903A8FFF793F9E021ADF80C10032115
:102440008DF80F1002218DF80E1000248DF8104029
:102450008DF8114003A92846FFF728F96846FFF7D1
:10246000A9FFADF8064001208DF800008DF801406D
:102470008DF803408DF802408DF804008DF8084077
:102480008DF805400720ADF80A00094C6946204642
:10249000FFF751FF2046FFF799FF2046FFF79BFF0C
:1024A0002046FFF79DFF05B030BD00000000024050
:1024B000003001402DE9F04106460D461746002444
:1024C00009E002213046FFF790FF0028F9D0285D8F
:1024D000F060641CA4B2BC42F3D3BDE8F08110B537
:1024E000044680212046FFF780FF0128F9D010BD67
:1024F000704700008A0700F00F00120F90408A0812
:1025000008D00122B2EB910F0AD10F490A680243A9
:102510000A6070470C49091F0A6802430A60704745
:102520000222B2EB910F05D10749091D0A68024347
:102530000A6070470322B2EB910FFAD102490831C9
:102540000A6802430A6070470C38014010B54FF426
:1025500080442046FFF70CFE2046BDE81040FFF700
:10256000DFBD00002DE9F04F8FB004468A463021D0
:1025700002A8FDF765FE0120FEF75EFB3E4800F075
:102580009DFB72B600210846FEF770FD4FF4807186
:102590002046FEF7A7FBDFF8E4B0CBE9060102A96D
:1025A000204601F011FC364C0D21204600F024FDA0
:1025B0002021204600F020FD002700264FF04B0888
:1025C00002A800EBC6092F4AD9E900012E4BFEF7FD
:1025D00033F802D3BAF1000F05D00021C9F800107A
:1025E000C9F8041012E0D9E900014FF03332274B4B
:1025F000FEF73AF80AD226480021C9E9001006EB96
:10260000C60000EB061008EB400087B206EBC600E0
:1026100000EB061008EB4000FDF7BCFF04460D463A
:10262000D9E9000100221B4BFDF7BCFE02460B4618
:102630001348CDE9004500F0A9FD761C062EBFDB4E
:1026400027B1DBE906233846FFF79AFA40F6FF7117
:102650000020FEF70BFD00F01FF8074800F046FBD6
:10266000FEF71CFA00F070FA0120FEF7D7FA62B606
:102670000FB0BDE8F08F000000040040C000002053
:10268000001001409A9999999999D93F3333EB3FBA
:102690000000F03F0000594010B50020074A002418
:1026A00002EBC0010C604C60401C80B2FF28F6D9E0
:1026B0000348002181800121417010BDB86B0120C9
:1026C000F00000202DE9F04100F03F014FF45C6282
:1026D00040F2E475531F6E1F40F6CF5040F6AC54E5
:1026E0004FF4FA6740F2DC5C402970D2DFE801F079
:1026F0002024272A2D303336393C3F4245484B4E63
:102700005154575A5D606366696C707376797C7F4B
:102710008285888B8E9194979A9DA0A322A6A8AAC1
:10272000ACAEB0B2B5B722B9BBBDBFC1C3C5C7CA95
:1027300042F20F70BDE8F08141F69070FAE741F681
:102740008670F7E741F68170F4E741F67C70F1E7B7
:1027500041F69E30EEE741F69930EBE741F69430D2
:10276000E8E741F68F30E5E741F68A30E2E741F6E7
:10277000A510DFE74FF4CD50DCE741F69B10D9E719
:1027800041F69610D6E741F69110D3E741F68C104A
:10279000D0E741F66410CDE741F2AC70CAE741F2F0
:1027A000A770C7E741F2A270C4E741F29D70C1E78C
:1027B00041F29870BEE741F27070BBE741F2B3504E
:1027C000B8E741F2AE50B5E741F2A950B2E75CE09C
:1027D00041F2A450AEE741F29F50ABE741F27C508A
:1027E000A8E741F2BA30A5E741F2B530A2E741F2DD
:1027F000B0309FE741F2AB309CE741F29C3099E763
:1028000041F2883096E741F2C11093E741F2BC10E3
:1028100090E741F2B7108DE741F2A8108AE741F244
:10282000941087E740F6C87084E740F6C37081E7EC
:1028300040F6B4707EE74FF47A607BE7104679E7A4
:10284000184677E7204675E7284673E7304671E774
:1028500038466FE740F2EB506CE760466AE70020CD
:1028600068E7104666E7184664E7204662E72846B0
:1028700060E730465EE738465CE760465AE740F27C
:10288000E15057E74FF4A07054E741F6616051E71B
:102890007047000008B52A49086840F48030086095
:1028A000002000904FF4A04205E00868800305D4A2
:1028B0000098401C009000989042F6D3086880036E
:1028C0003CD51F484030026842F0805202601D48EB
:1028D000026842F48042026019480830026822F01F
:1028E000F0020260026822F4604202F500420260D7
:1028F000026822F4E05202F5A0520260021F124B5D
:102900001360136843F4800313600A6842F0807216
:102910000A600A689201FCD50C4A40F20571116008
:10292000016821F003010160016821F00301891CA5
:1029300001600168C1F381010229FAD108BD0000DC
:10294000003802400070004008540007003C02407C
:1029500010B50F48016841F0010101600C4A0021E7
:102960000832116002680B4B1A400260031D0A4ACC
:102970001A60026822F48022026005480C3001606F
:10298000FFF788FF05494FF00060086010BD0000A8
:1029900000380240FFFFF6FE1030002408ED00E092
:1029A00038B50121880700F097F901285BD1022191
:1029B0002D48FEF7B8F82D4C80B3FEF7D9FEC4E9D8
:1029C00004012B4BA26803EBC20203C2FEF700FF17
:1029D000C4E90401FFF746FC40B304F1080000908D
:1029E00004F110000FC8FEF79BFA18B3A268214B40
:1029F000D4E9040103EBC20203C222460092D4E9E7
:102A00000623FEF705FED4E90401C4E90601D4E972
:102A10000201401C41F10001C4E90201FEF732FE4F
:102A2000207858B1BDE8384000F008BCBDE8384017
:102A3000FEF728BEBDE83840FEF724BED4E90210F8
:102A400081F4A85101430ED141F288310848FEF7C4
:102A500049F9094A03C2BDE83840084A054802F16D
:102A60005801FFF72DBC38BD00200140F0000020C8
:102A7000B8C30020B81B0020D8000020800500202B
:102A8000FFF78EBF1CB50120FFF75AFB00208DF821
:102A900001008DF8000040F21F61ADF80410012123
:102AA000ADF802108DF806004FF0804469462046CC
:102AB00000F0BEF80121204600F00AF900220121B1
:102AC0001C20FFF7DBFA204600F0FDF81CBD0000DB
:102AD00010B50121164800F0FFF8012823D102218A
:102AE0001448FEF720F8F0B1FEF742FE124CC4E99C
:102AF0000401627832B10022104BFDF7B5FD01D21E
:102B000000206070A0880E49D4E9042301EBC001C5
:102B10000CC1401C80B2A080B0F5807F03D16178E9
:102B20000748FFF71FFDBDE81040FEF7ABBD0000F2
:102B30000004004000200140F000002000407F40E1
:102B4000B86B0120FFF7C4BF1CB50220FFF7F8FAED
:102B500000208DF801008DF8000041F6A211ADF8BB
:102B600004100121ADF802108DF80600084C6946EA
:102B7000204600F05DF80121204600F0A9F800226F
:102B800001211D20FFF77AFA204600F09CF81CBDB9
:102B90000004004070B50B4D0121284600F09CF860
:102BA00001280DD1084CA07808B9FFF7B5F9A07835
:102BB000401EA0702846BDE87040012100F034B8E6
:102BC00070BD000000080040F0000020FFF7E2BFE9
:102BD0001CB50420FFF7B4FA00208DF801008DF831
:102BE00000004AF20F41ADF804104FF47A71ADF8CD
:102BF00002108DF806000A4C6946204600F018F8CD
:102C00000121204600F064F8002201211E20FFF778
:102C100035FA044A02219170204600F054F81CBD98
:102C200000080040F0000020C94301617047000027
:102C300030B51B4A1B4B90420DD0B0F1804F0AD0EB
:102C4000194CA04207D0194CA04204D0184CA04205
:102C500001D098420AD10C78056864F30415056028
:102C60000C782509046865F346140460114CA042F1
:102C700007D0114CA04204D04D78046865F30924B4
:102C800004604C88C4628C888462904201D098426F
:102C900001D189790163416941F00101416130BD90
:102CA0000000014000040140000400400008004012
:102CB000000C00400010004000140040016821F0AA
:102CC000010101607047016841F001010160704736
:102CD000C2680A43C260704702690A4204D0C068F1
:102CE000084201D0012070470020704710B55149BB
:102CF000884207D10120FFF73BFABDE810400120D0
:102D0000FFF70EBAB0F1804F0AD04B4988420FD17D
:102D10000220FFF71DFABDE810400220FFF7F8B9C6
:102D20000120FFF715FABDE810400120FFF7F0B9C8
:102D30004249884207D10420FFF70AFABDE8104053
:102D40000420FFF7E5B93E49884207D10820FFF784
:102D5000FFF9BDE810400820FFF7DAB93949884289
:102D600007D11020FFF7F4F9BDE810401020FFF75D
:102D7000CFB93549884207D12020FFF7E9F9BDE8EE
:102D800010402020FFF7C4B93049884207D1022003
:102D9000FFF7EEF9BDE810400220FFF7C1B92C495A
:102DA000884209D14FF480342046FFF7E1F92046EC
:102DB000BDE81040FFF7B4B92649884209D14FF465
:102DC00000342046FFF7D4F92046BDE81040FFF755
:102DD000A7B92149884209D14FF480242046FFF742
:102DE000C7F92046BDE81040FFF79AB91B49884251
:102DF00007D14020FFF7ACF9BDE810404020FFF7B5
:102E000087B91749884207D18020FFF7A1F9BDE8AB
:102E100010408020FFF77CB91249884208D1841500
:102E20002046FFF795F92046BDE81040FFF770B93E
:102E300010BD0000000001400004004000080040F8
:102E4000000C00400010004000140040000401404D
:102E5000004001400044014000480140001800408B
:102E6000001C0040002000403EB54FF4E1300090CF
:102E700000208DF8080003218DF807108DF806005A
:102E80008DF805008DF804006846FDF763FE47F6EF
:102E9000FF70FEF7B1F9084C0649204600F08FF8A4
:102EA0002021204600F00AF8002211462520FFF7D5
:102EB000E5F83EBD200001050010014002688A438C
:102EC0000260704738B504460D46E168E87960F362
:102ED0008201E160E8794108E06861F3C300E060E5
:102EE000A8794108E06861F34920E060A879E168C9
:102EF00060F38A21E1602979E06861F30C30E060D9
:102F00006979206961F30D302061287A616960F385
:102F100008216161287A4108606961F34920606194
:102F20002248844202D02248844204D169460020CB
:102F3000FFF744F903E000216846FFF73FF9E06836
:102F4000000409D5009800EBC00101EB00102968CE
:102F50004900B0FBF1F108E0009800EBC00101EB83
:102F6000001029688900B0FBF1F16422B1FBF2F096
:102F7000000103096FF018056B4301EB8301E3685F
:102F80001D044FF0320307D503EBC101B1FBF2F191
:102F900001F00701014306E003EB0111B1FBF2F17F
:102FA00001F00F010143A16038BD00000010014095
:102FB00000140140C16841F40051C16070478AB2F9
:102FC000CB0302D5C3681343C3608B0302D50369E7
:102FD00013430361490302D54169114341617047BD
:102FE0000068084201D00120704700207047426805
:102FF00061F308024260704770B504460D468021B7
:103000002046FFF7EDFF0028F9D029462046BDE80D
:103010007040FFF7ECBF00002DE9F0478146089EA5
:1030200014461D4620462946FDF7E6FA8046C71796
:1030300040463946FDF7CCFA22462B46FDF7AFF95C
:10304000044621F000453046FDF7B5FA02460B462E
:103050000020284901F0B4FB22462B46FDF7A2F9D7
:10306000FDF7CAFAC517044642463B46484600F0FB
:1030700043F82E214846FFF7BFFF204629464FF070
:10308000000850EA010201D000271AE0002404E001
:1030900030214846FFF7B0FF641CB442F8DB4846D5
:1030A000BDE8F0472021FFF7A7BF50EA010203D097
:1030B00008F1010808F0FF080A220023FDF788F84C
:1030C0007F1CB742F1DB0027A6EB080604E03021A5
:1030D0004846FFF791FF7F1CBE42F8DC22462B4694
:1030E000484600F009F84846BDE8F0472021FFF7C0
:1030F00083BF0000000024402DE9F04180461446C3
:103100001D4600260027002D08DA2D214046FFF736
:1031100073FF28460025644265EB000554EA05006C
:1031200017D130214046FFF767FF12E00A22002343
:1031300020462946FDF74CF806EB86046400154648
:10314000161926B955EA030201D17F1CFFB20446C5
:103150000D4654EA0500E9D10A2409E0B6FBF4F073
:1031600004FB106130314046FFF746FFB6FBF4F632
:10317000002EF3D105E030214046FFF73DFF7F1ED2
:10318000FFB2002FF7D1BDE8F0810000F8B514467A
:103190001D46DDE906230646002000903046FFF775
:1031A0003BFF06221749304600F032F80022164B4A
:1031B00020462946FDF740FA08D220213046FFF785
:1031C0001BFF20213046FFF717FF0AE000220F4BBC
:1031D00020462946FDF730FA03D220213046FFF77A
:1031E0000BFF0120009022462B463046FFF714FFCC
:1031F00025213046FFF700FF3046BDE8F8400D219D
:10320000FFF7FABE100100200000244000005940E2
:1032100070B506460C4615460AE080213046FFF799
:10322000DFFE0028F9D014F8011B3046FFF7DFFE5F
:103230006D1E681CF1D170BDFEE70000F0B40E48B1
:1032400000228261C261027000200C4B4FF416769E
:1032500003EBC00100250D604D60401CB042F7DB60
:1032600000200649583921F81020401C2A28FADB92
:10327000F0BCFEF79BBA0000F0000020D80500204B
:103280002DE9F84F06468A46104698460124FDF778
:1032900081F93D4F8346A1460025009106EBC4030A
:1032A00058460CCB0099FDF77DF800221346FDF738
:1032B000C3F912D2621E06EBC20358460CCB00992A
:1032C000FDF770F800221346FDF7CEF905D23889D4
:1032D000201A082809D07D703C81F888B0F52F7F2E
:1032E00042D9BDE8F84FFDF7ADBD2046FDF752F9D4
:1032F0000022264BFDF750F80022254BFCF7ABFFD0
:10330000D7E90423FDF74EF8FA880AEBC20203C29C
:10331000F888401C80B2F880797819B1B8880F28F5
:103320001DD01DE0B988052913D9B97839B1BD7010
:1033300039782B2907D9BDE8F84FFDF783BD3978D7
:10334000491C3970F4E728F8110087F80190BD8016
:1033500006E0401AF880BD8087F8019000E07D709B
:10336000B888401CB880B7E7641CB4F5A85F95DB4B
:103370003878401CC0B23870F98828F81010BDE8C1
:10338000F84FFDF75FBD0000C00000200000F03FD7
:103390000000E03F490050EAC12018BF04204A0D58
:1033A00018BF40F0010040F2FF72B2EB515F08BF5E
:1033B00040F00200012808BF052070472DE9F041C8
:1033C0004F1E00EBC7010446D1E9000115461E4619
:1033D00037F006020DD02A463346FCF7E3FF7F1E86
:1033E00004EBC703D3E90023FCF735FF37F00602EF
:1033F000F1D1022F25D0042F13D0062F18BFBDE81E
:10340000F0812A463346FCF7CDFFD4E90A23FCF7C6
:1034100022FF2A463346FCF7C5FFD4E90823FCF710
:103420001AFF2A463346FCF7BDFFD4E90623FCF712
:1034300012FF2A463346FCF7B5FFD4E90423FCF714
:103440000AFF2A463346FCF7ADFFD4E90223FCF716
:1034500002FF2A463346FCF7A5FFD4E90023BDE866
:10346000F041FCF7F8BE0000002213461046014967
:10347000FDF70AB80000F03FFCF7EDBE002213464E
:1034800010461146FDF700B840F2013200204FF01F
:10349000E041FDF768B80000024A00201107FDF77F
:1034A00062B8000001FDFFFF02E008C8121F08C15A
:1034B000002AFAD170477047002001E001C1121FB5
:1034C000002AFBD1704700000149086070470000E6
:1034D000A80100202DE9F34F9FB00021FE4D4B00C5
:1034E0006C5C641E00EBC302C0CA209A02EB04129B
:1034F000C2E900675B1C00EBC30318CBC2E90234CE
:10350000491C8029EBDB4FF00008209808F10101ED
:1035100000EB0119D9E900ABD9E90201CDE91001AD
:103520005D46119F209800EB08101D9003C8CDE95F
:1035300012011D98C1688068CDE91401DDE912010E
:10354000544622465B46FCF727FF82468B46DDE960
:103550001063DDE914013246FCF71EFFCDE91001CE
:10356000C9E900ABDDE91001C9E90201DDE9120199
:103570002B462246FCF76FFECDE91201DDE914016E
:103580003B463246FCF767FECDE91401DDE9122126
:103590001D98C0E90021DDE914211D98C0E9022130
:1035A00008F10208B8F17E0FAFDD02200A90042076
:1035B0000990202004907D200890BDE04FF0000984
:1035C0002DE00A984844209901EB001ADAE90045F9
:1035D000DAE902672098224600EB09182B46D8E961
:1035E0000001FCF7D9FECAE90001D8E90201324620
:1035F0003B46FCF7D1FECAE90201D8E900012246A8
:103600002B46FCF728FEC8E90001D8E90201324642
:103610003B46FCF720FEC8E902010998814408985E
:103620008145CEDB012006900498059073E0AB49FC
:10363000059801EBC00003C8CDE90C01A849059825
:1036400001EBC00003C8CDE90E01DDF818A0089811
:103650005044079055E00A985044209901EB001B14
:10366000DBE90289DBE90023CDE91023DDE90E0166
:1036700042464B46FCF796FEDDE9102304460D4614
:10368000DDE90C01FCF78EFE22462B46FCF784FE9A
:1036900004460D460EA80FC8FCF784FE06460F46EA
:1036A000DDE90C0142464B46FCF77CFE32463B46C8
:1036B000FCF7D1FD06460F462098224600EB0A187B
:1036C0002B46D8E90001FCF767FECBE90001D8E9F9
:1036D000020132463B46FCF75FFECBE90201D8E926
:1036E000000122462B46FCF7B6FDC8E90001D8E9E7
:1036F000020132463B46FCF7AEFDC8E902010998DB
:10370000824407988245A6DB0698401C0690DDE9B6
:103710000410084405900598402888DB049800EBC5
:10372000D0704010049009980A90099840000990C0
:1037300008990A98081A0890049800283FF73EAFA5
:103740002098D0E900892098D0E902AB52465B4628
:1037500049464046FCF77FFD074601221C91FCF7D5
:1037600002FF4FF0FF32FCF7FEFE209A03C25246E2
:103770005B4649464046FCF70FFE064604460D46AA
:103780001B9142464B4650465946FCF705FE2246E1
:103790002B46FCF760FD4FF0FF32FCF7E4FE209A69
:1037A000C2E902011B99CDE91061DDE91001012296
:1037B000FCF7D9FE4FF0FF32FCF7D5FE209A02F558
:1037C000006203C289F00041404652465B46FCF766
:1037D000E3FD02460B4638461C99FCF73CFD4FF0D2
:1037E000FF32FCF7C0FE209A02F6080203C2002056
:1037F0000B900B9A2098521C00EB02131A93D3E9FA
:1038000000891A9BD3E9024533480B99803008445C
:1038100043780A930A9B20985B1E199300EB0313CD
:10382000189303CBCDE90C01189BD3E90201CDE934
:103830000E012C4800EB0210D0E902AB0AC8CDE91A
:103840001213294800EB0210D0E90212CDE914123C
:10385000C0C8DDE91423DDE90E01FCF7A3FDCDE9C5
:103860000001DDE90C0132463B46FCF79BFDDDE93A
:103870000023FCF7F0FCCDE9020152465B462046EE
:103880002946FCF78FFDCDE90001DDE91223404612
:103890004946FCF787FDDDE90023FCF77DFDDDE906
:1038A0000223FCF7D8FC4FF0FF32FCF75CFE1A9BBA
:1038B00003C3DDE90E0132463B46FCF773FDCDE95B
:1038C0000001DDE91423DDE90C01FCF76BFDDDE906
:1038D0000023FCF761FD09E0188F0008188B000831
:1038E000188D0008187B000818830008CDE9020134
:1038F000DDE9122320462946FCF754FDCDE90001FD
:1039000052465B4640464946FCF74CFDDDE9002344
:10391000FCF7A1FCDDE90223FCF79DFC4FF0FF3230
:10392000FCF721FE1A9BC3E90201DDE90E015246B4
:103930005B46FCF737FDDDE91223CDE90001DDE947
:103940000C01FCF72FFDDDE90023FCF784FCCDE939
:103950000201DDE9142320462946FCF723FDCDE9C9
:10396000000132463B4640464946FCF71BFDDDE977
:103970000023FCF711FDDDE90223FCF76CFC4FF09E
:10398000FF32FCF7F0FD0B9A209B813203EB021211
:10399000179203C2DDE91223DDE90E01FCF702FDF7
:1039A000CDE90201DDE90C0152465B46FCF7FAFC69
:1039B000DDE90223FCF7F0FC82468B4632463B46AB
:1039C00020462946FCF7EEFCDDE9142306460F46A7
:1039D00040464946FCF7E6FC32463B46FCF73BFCDA
:1039E00052465B46FCF737FC4FF0FF32FCF7BBFD5D
:1039F000179AC2E902019848199B00EB0310D0E91D
:103A00000212CDE91412C0C89448199B00EB0310B0
:103A1000D0E90223CDE91023D0E900ABDDE9102382
:103A200020462946FCF7BEFCCDE9000152465B4624
:103A300040464946FCF7B6FCDDE90023FCF70BFCE9
:103A4000DDE91423CDE90201DDE90E01FCF7AAFC52
:103A5000CDE90001DDE90C0132463B46FCF7A2FC52
:103A6000DDE90023FCF798FCDDE90223FCF7F3FB1A
:103A70004FF0FF32FCF777FD189B03C352465B46BD
:103A800020462946FCF78EFCCDE90001DDE9102334
:103A900040464946FCF786FCDDE90023FCF77CFC48
:103AA000CDE90201DDE90E0132463B46FCF77AFC26
:103AB000CDE90001DDE91423DDE90C01FCF772FC1E
:103AC000DDE90023FCF7C7FBDDE90223FCF7C3FBBC
:103AD0004FF0FF32FCF747FD189BC3E90201DDE917
:103AE000142320462946FCF75DFCCDE9000132464F
:103AF0003B4640464946FCF755FCDDE90023FCF710
:103B0000AAFBCDE902010EA80FC8FCF74BFCCDE9DA
:103B10000001DDE90C0152465B46FCF743FCDDE9A0
:103B20000023FCF739FCDDE90223FCF794FB4FF09E
:103B3000FF32FCF718FD0A9B209A7F3302EB031239
:103B4000169203C232463B4620462946FCF72AFC21
:103B5000DDE9142304460D4640464946FCF722FCA5
:103B600022462B46FCF718FC04460D46DDE90E0103
:103B700052465B46FCF716FCDDE9102306460F466D
:103B8000DDE90C01FCF70EFC32463B46FCF763FB1B
:103B900022462B46FCF75FFB4FF0FF32FCF7E3FCBD
:103BA000169AC2E902010B98401C0B900B983F2813
:103BB000FFF61FAE2098D0F80494D0F80084209827
:103BC00000F5816030C8012249464046FCF7CBFC35
:103BD00000221346FCF7E0FB0646024688460B46E9
:103BE00000200146FCF737FB4FF0FF373A46FCF761
:103BF000BAFC209A02F5806203C20022BB07294664
:103C00002046FCF7CFFB02460B4600200146FCF79E
:103C100022FB3A46FCF7A7FC209A02F5816203C218
:103C2000304641463A46FCF79EFC209A02F5406237
:103C300003C2012229462046FCF795FC00221346C8
:103C4000FCF709FB3A46FCF78EFC209A02F6084284
:103C500003C221B0BDE8F08F187B0008188300086C
:103C60002DE9FC5F8846DDE90C56834691461946EE
:103C7000684600F06DFA0024BDF800004FF4B02152
:103C800041430F0C09F12B018BB2A8F1010108444B
:103C900082B24946404601F089FBDFF8D08059E006
:103CA00000220020BDF800302BE0DFF8C4C0BDF8D2
:103CB0000210A44411F80CC000214FF00109C1F119
:103CC000070A09FA0AFA1AEA0C0F08D04FEA152A6D
:103CD00008F800A008EB000A8AF8015007E04FEA54
:103CE000162A08F800A008EB000A8AF80160491CAF
:103CF000C9B2801CC0B20829E1D3521CD2B2641CE4
:103D0000A4B2B2EBD30FD0D3DFF86890B9F80000BB
:103D100040F00100A9F8000009F10200018841F01B
:103D200002010180DFF850A04FF6FF7000EA430265
:103D30000E49DAF80000FEF7BDFBDAF80000FEF7E6
:103D4000CEFB0020FDF758FAB9F8000040F0020061
:103D5000A9F80000BC42A3D30098CBF80000BDF83E
:103D60000400ABF80400BDE8FC9F0000AC0100209B
:103D70006E57000818040240280000202DE9FF5F5C
:103D80000646DDE90E9A8B46174698460024002524
:103D900015E004EB440000EB09037019CDE900784D
:103DA00081B25A4602A8FFF75BFFBDF80800BDF8D4
:103DB0000C10401A2844083085B2641CE4B2544503
:103DC000E7D3BDE8FF9F00002DE9F34F91B0ADF5BB
:103DD000805D054694490978002901D100F026F953
:103DE00010A92846FFF776FB4FF0000B10A800EB58
:103DF0000B1ADAE90045DAE9028900221346404647
:103E00004946FCF719FC0AD16FF007022046294603
:103E1000FCF7A9FB06460F460024254621E00022B8
:103E2000134620462946FCF707FC0AD100263746F0
:103E30006FF0070240464946FCF795FB04460D46E5
:103E40000FE06FF0070220462946FCF78CFB064680
:103E50000F466FF0070240464946FCF784FB0446D4
:103E60000D46CAE90067CAE902450BF1010BBBF137
:103E7000FF0FBBDD00200E900E98C0EB00210F91CC
:103E8000491C012944DD01EBD1704FF0FF3202EBF8
:103E900060024FF0010C0E98801C02E04FEA0C2CDF
:103EA000401C0328FADB501CB1EB400F31D14FF01E
:103EB000000800200D9028E00F9940464144401C26
:103EC0000C9001F101080C9810440A90002117E0B1
:103ED0000C9843185B1E10A800EB0313D3E90045B0
:103EE000D3E90267DDF828A08A4400EB0A1090E8C5
:103EF000004EA3E8004EC0E90045C0E90267491C36
:103F00009142E5DD0D98401C0D900D986045D3DB86
:103F10004EE000200B900D9047E00F990B98014464
:103F2000401C0C90491C0B910C9800EB020810AB44
:103F300003EB0810D0E90045D0E90267002125E035
:103F400008EB01090C980844401E0DF1400A0AEBE9
:103F500000100DF5805A10ABCAF8400090E8004CF4
:103F600003EB0913C06883E8004CD8600DF5805A54
:103F700010AB09F1010903EB0913DAF8400093E8EB
:103F8000000EDB6880E8000EC360491C9142D7DD5B
:103F900008EB0200401C10A901EB0010C0E900452D
:103FA000C0E902670D98401C0D900D986045B4DB88
:103FB0000E98401C0E900E980228FFF65DAF00246C
:103FC0002546A0460DF1400909EB08110FC901F083
:103FD00087F906460F4622462B4630463946FCF7FF
:103FE00043FB01D234463D4608F10108B8F1800F89
:103FF000EADB0026832707EB460009EB00110FC917
:1040000001F06EF922462B46FCF73EFA0DF5805280
:10401000926C02EBC60203C2761C062EEBDB13B0D9
:104020000DF5805DBDE8F08F7801002010B501F03E
:104030003DF902490120087010BD00007801002000
:104040002DE9F0419446069A0024160A184DD2B282
:104050004FF470772E5505EB040888F80120A41C56
:10406000BC42F7DB624601F0A1F9124E308840F005
:1040700001003080B01C018841F002010180002065
:10408000FDF7BAF800240C4D4FF4A0783A460849E1
:104090002868FEF70FFA641C4445F7DB2868FEF732
:1040A0001EFA308840F002003080BDE8F081000048
:1040B000AC010020180402402800002070B514460E
:1040C0001D460E46002814BF01210021314321F076
:1040D0000041C1F17F6101F1E041C90F16D1002C0F
:1040E00014BF01210021294321F00041C1F17F616A
:1040F00001F1E041C90F09D11449B1EB460F08BFE6
:1041000000281CD0690008BF002C18D03146FCF7ED
:10411000D3FB024640F2FF7030EA11500DD0F01789
:10412000B0EBE17F09D0084665F31E0084460B46DC
:1041300020466146FCF733F90246104670BD012067
:10414000FFF7C2F9BDE87040FFF798B90000E0FF43
:104150002DE9F0410B78F84A53434A78897802EB0D
:104160004204C4EBC21203EBC2025418F34FF44AE8
:10417000E11B4FF47A7602F1800302F58075BC42B0
:104180007DD07DDCDFF8BC83DFF8BCC3EF4FA4EB50
:104190000801444575D040DCED4BA4EB03019C4283
:1041A00070D01FDCEB49A4EB01038C426BD00DDC1B
:1041B000E949611868D0C91967D0E84BD9426FD175
:1041C000D1680160118A8180BDE8F081D91968D079
:1041D000DD4B5B42D942F2D1D2F81E100160518C06
:1041E0008180F1E7A1EB0C03614576D00BDCC919A6
:1041F00074D0C91973D0F942E1D1D2F836100160F8
:10420000518F8180E0E7D9196AD0F942D7D1916CFA
:104210000160B2F84C108180D6E7DFF84483A1EB4F
:10422000080441457BD01ADCA1EB0C03614577D033
:104230000BDCC91975D0C91974D0F942BFD1116E00
:104240000160B2F864108180BEE7D9196BD0F942E1
:10425000B5D152F8721F016091888180B4E7C149DD
:10426000671A8C427DD011DCBF4961187AD0BF4BF0
:10427000D942A4D1E96A0160298E8180A4E705E1D1
:1042800010E0D6E0B2E0A6E098E09CE0B8497918EA
:1042900069D0B14293D1596801601989818093E74F
:1042A000C6E09EE043F2B068A1EB08044FF47A6CDC
:1042B0004FF4FA67414573D040DCB1F5FA5F70D036
:1042C0001BDC61456ED00CDCB1426CD0B9426BD0C6
:1042D000A1F53061B8398FD1EAE099E08CE091E046
:1042E0009CE0A1F59851883973D0B14284D1D3F8BC
:1042F0002E100160598E818066E742F6F8254C1B2E
:10430000A94267D010DCA1F50C51283973D0B14215
:1043100094D1196C0160B3F84410818054E7A9E08E
:104320009AE08CE091E09DE0B44270D0BC4285D12F
:1043300053F8521F01609988818045E741F658384B
:10434000A4EB080144456FD01ADC64456DD00BDC4A
:10435000B4426BD0BC426AD0A4F53064B83C67D19B
:10436000DEE029E122E18BE0A4F59854883C72D08C
:10437000B4425DD1D96F0160B3F88010818023E72A
:1043800041F270740B1BA14272D00EDCB14270D0AE
:1043900061454DD1D5F80E100160698A818013E71F
:1043A000ACE095E089E078E07CE0B34274D0BB42B9
:1043B0003ED1296A0160A98C818005E711680160FE
:1043C0009188818000E7D2F80610016051898180D0
:1043D000FAE678E086E0D2F812100160D18A818096
:1043E000F2E691690160918B8180EDE6516A01608E
:1043F000118D8180E8E670E0D2F82A100160D18D3D
:104400008180E1E6116B0160918E8180DCE66FE0D6
:10441000D16B0160B2F840108180D5E652F8421F9E
:10442000016091888180CFE6AAE07FE06CE071E0D6
:10443000C8E052F84E1F016091888180C4E6516D3A
:104440000160B2F858108180BEE652F85A1F016030
:1044500091888180B8E68DE052F8661F01609188EE
:104460008180B1E6D16E0160B2F870108180ABE658
:1044700091E08BE0916F0160B2F87C108180A3E63F
:1044800052F87E1F0160918881809DE6D3F80A1062
:104490000160D989818097E682E019690160998A73
:1044A000818091E6D3F816100160598B81808BE6EC
:1044B000D9690160198C818086E6D3F822100160E9
:1044C000D98C818080E6996A0160998D81807BE634
:1044D000596B0160198F818076E6596B0160198FE5
:1044E000818071E653F8461F0160998881806BE6F0
:1044F000D96C0160B3F85010818065E6996D016058
:10450000B3F85C1081805FE653F85E1F0160998804
:10451000818059E6596E0160B3F86810818053E6D6
:1045200053F86A1F0160998881804DE6196F016018
:10453000B3F87410818047E640420F00500E680CBB
:104540001856000840B7280300093D00C0BDF0FF21
:1045500080E7BD02005A620200B817FE8072A4FF15
:104560008096980040C06503C0B4B3FF807BE1FF34
:104570008007BFFA53F8761F01609988818023E68F
:10458000D5F802100160E98881801DE6A968016004
:10459000A989818018E669690160298B818013E609
:1045A000D5F81A100160E98B81800DE6D5F8261048
:1045B0000160698D818007E6D5F832100160E98ECF
:1045C000818001E6916F0160B2F87C108180FBE58B
:1045D00010B50948018841F0200101800748FCF727
:1045E0000BFE0548801E018841F020010180BDE8D6
:1045F00010400348FCF700BE1A08024000C31E002A
:1046000020A1070010B5FFF7E3FFE02000F090FFC6
:10461000002000F0B5FF072000F0B2FF102000F0EE
:10462000AFFF092000F0ACFF172000F0A9FF0B201E
:1046300000F0A6FF402000F0A3FF8A2000F0A0FFBA
:104640004B2000F09DFF0A2000F09AFF0D2000F0A3
:1046500097FF0F2000F094FF152000F091FF162027
:1046600000F08EFF0F2000F08BFFE12000F060FFD4
:10467000002000F085FF1A2000F082FF1B2000F0D0
:104680007FFF022000F07CFF0D2000F079FF052065
:1046900000F076FF302000F073FF352000F070FF4F
:1046A000432000F06DFF022000F06AFF0A2000F0B6
:1046B00067FF092000F064FF322000F061FF362020
:1046C00000F05EFF0F2000F05BFFB12000F030FF34
:1046D000A02000F055FFB42000F02AFF022000F0D7
:1046E0004FFFC02000F024FF172000F049FF1520E5
:1046F00000F046FFC12000F01BFF412000F040FF0A
:10470000C52000F015FF002000F03AFF0A2000F05D
:1047100037FF802000F034FFB62000F009FF0220B0
:1047200000F02EFF362000F003FF482000F028FFA5
:104730003A2000F0FDFE552000F022FFE92000F0B5
:10474000F7FE002000F01CFFF72000F0F1FEA9208A
:1047500000F016FF512000F013FF2C2000F010FF96
:10476000822000F00DFF112000F0E2FE0448FCF76B
:1047700043FD292000F0DCFEBDE8104000F018B831
:10478000009E3301FEF770FBFCF792FCFCF786F904
:104790000020FCF71DFA0120FCF71AFAFDF72CFEA9
:1047A000FDF738FC01210020FCF754FAFEE7000079
:1047B0000248018841F0100101807047180802404A
:1047C0002DE9F04D1D460C4698B0174621F00041EA
:1047D00023F00043002814BF4FF0010C4FF0000CF1
:1047E0000CEB440CFE4A0CEB02064FEA620C6645E9
:1047F0002BD33E0018BF012606EB45061644F94AA6
:10480000964222D3F84A53EA070C02D0944205D1CB
:1048100048B918B000201146BDE8F08D002808BF47
:104820004FF0000C01D04FF0010C0CEB440212F5DC
:10483000001F0AD8002F14BF4FF0010C4FF0000CDE
:104840000CEB450212F5001F07D918B03A462B466B
:104850002146BDE8F04DFEF70FBE0022DFF88CA325
:10486000002CB8BF534526DADFF884C36345A8BFE0
:10487000022220DADFF870C39C451CDCDFF874C329
:104880000CEB235CBCF1140F08DDCCF1340627FAE5
:1048900006FC0CFA06F6BE420DD108E05FB9CCF179
:1048A000140623FA06FC0CFA06F69E4203D10CF01D
:1048B0000102C2F1020251EA000C19D1002D17DAEF
:1048C000002C18BF022A01D0012A07D00220FEF7CF
:1048D000FBFD18B0BDE8F04DFEF7C6BD0220FEF7A7
:1048E000F3FDFEF7C1FD18B081F00041BDE8F08D89
:1048F000B7F1000C6CD1534525D104F1804212F57B
:10490000801201BF00280020B74918B008BFBDE8D9
:10491000F08DB548884207DC002DA1BF60462946CE
:1049200018B0BDE8F08D07E0281E05DA80F00041E0
:1049300018B06046BDE8F08DAF497944D1E9000177
:1049400018B0BDE8F08DDFF8A0C2634525D1002D79
:104950001FDA19B1514512D1D8B909E0002840F049
:10496000EC82A24A214618B062F31E01BDE8F08D28
:104970000020214618B060F31E01BDE8F08D08DA72
:1049800018B02346BDE8F04D024600206146FBF713
:104990007BBD18B02146BDE8F08D514518DAB5F160
:1049A000804F0DD0A5F1005CBCF1FF5C10D1B4F1DB
:1049B000000C0DDB18B06146BDE8F04D00F01FBDE6
:1049C000234618B00246BDE8F04D1946FBF7EABC95
:1049D000060024F0004C3BD1D9B1514533D1002C15
:1049E00006DD002DA1BF0020514618B0BDE8F08DB6
:1049F000002C01DD002D1BDB002C13DA002D11DB58
:104A0000012A4FF0000014BF78497C4918B0BDE876
:104A1000F08D022A18BF002C0AD0012A08D1002CE0
:104A200006DA0AE0002CB8BF002D11DA012A04D002
:104A3000002018B00146BDE8F08D18B000204FF0FE
:104A40000041BDE8F08DA1F14050B0F17F601AD077
:104A5000012000EBE47050EA020421D0624C521EA7
:104A60004FF0000B104304BF4FF0000B644C65483F
:104A700083427CDD644A654893421FDD884217DB30
:104A8000002D25DB37E0002C00DA4AB1022A0CBFEA
:104A900001204FF0FF3018B0BDE8F04DFBF77ABDB4
:104AA0000120FEF711FD18B0BDE8F04DFEF7E6BCA1
:104AB0004D4A8A4202DC002D0ADC1CE0814202DA07
:104AC000002D18DA04E0484B994220DD002D12DD5C
:104AD0000220FEF7F9FCFEF7D7FC05460E46002241
:104AE000534658462146FBF75DFC18B066F31E019D
:104AF0002846BDE8F08D0220FEF7E6FCFEF7CCFC70
:104B00000A46214618B062F31E01BDE8F08D00226E
:104B100030466146FBF740FC80460E466FF00102CE
:104B2000FBF721FD4FF05532394BFBF738FC42467D
:104B30003346FBF737FC0022364BFBF730FC82464E
:104B400042463346049110461946FBF72BFC524669
:104B5000049BFBF727FC8A4600904FF0C0422E4B87
:104B600040463146FBF71EFC2C4A2B4B00E027E069
:104B7000CDE9060151460098FBF714FC82460191ED
:104B8000274A284B40463146FBF70CFC5246019B16
:104B9000FBF702FC82460B4602460591DDE9060161
:104BA000FBF759FBDDE90623002688463046FBF774
:104BB000F3FB5246059BFBF7F2FB024600F07EB981
:104BC0000020B1F5801F07DA352230466146FBF739
:104BD000CAFC06466FF0340000EB215024E00000D0
:104BE000FFFF1F00FFFF0F000000F03F0000F07FFD
:104BF0000000404301FCFFFF624700000000F0FF9F
:104C00000000F0BF0000E0410000F043FFFFEF3F75
:104C10005555D53F0000E03F4715F73FFE822B6515
:104C200044DF5DF80BAE543EA0F2FF300190C1F3BB
:104C3000130040F07F6141F040510291FE498842EB
:104C4000D8BF002004DDFD498142C8BF012001DD3D
:104C50000D9008E000200D900198401C01900298F2
:104C6000A0F5801002900299F54878440B910D99B7
:104C700000EBC100D0E900230F9330460A920B9954
:104C8000FBF78AFBCDE90601DDE90A2130460F9BDF
:104C9000FBF7E1FA02460B460020EA49FBF7F4FB7A
:104CA000059102460B460090DDE90601FBF77AFB11
:104CB0001490E5488A464FF000087844029900684D
:104CC00012904FF0005040EA61010D980F9B01EBEC
:104CD000804000F5002109910A9A1298FBF75CFBCD
:104CE00032460B9BFBF75BFB42465346FBF75AFBF6
:104CF0000646029140465146099B129AFBF752FB29
:104D0000DDE90623FBF74BFB3246029BFBF744FB36
:104D1000059B009AFBF746FB0091149A04905346BA
:104D200010461946FBF73EFB06460246C7480B46AF
:104D3000029106217844FEF741FBCDE90510029B64
:104D4000324610461946FBF72DFBDDE90532FBF72D
:104D500029FB05910646534640461946149AFBF72F
:104D60007AFA009B049AFBF71DFB3246059BFBF782
:104D700072FACDE905104246534610461946FBF734
:104D800011FB0022B24B02910A90FBF764FADDE9B5
:104D90000532FBF760FA0E464246AD4B4046FBF744
:104DA000FBFA029B0A9AFBF7F7FADDE90532FBF7FB
:104DB000F6FA424602910A90334610465146FBF7F6
:104DC000F1FACDE906015346149A02990A98FBF7C5
:104DD000E9FA8A4602903346424600990498FBF766
:104DE000E1FA5346029AFBF736FA82460B46024630
:104DF0000591DDE90601FBF72EFADDE90623002027
:104E000088460646FBF7C8FA5246059BFBF7C7FAE9
:104E1000824609914FF060428E4B30464146FBF787
:104E2000C1FA049006918C4A8A4B50460999FBF7C7
:104E3000B9FA82460291894A894B30464146FBF7CE
:104E4000B1FA5246029BFBF706FA864B7B440D9A59
:104E500003EBC203D3E90023FBF7FDF90E900791A2
:104E60000198FBF797FB0591DDE9061382460E9A40
:104E70000498FBF7F0F97C4A7A440D9B02EBC303DC
:104E8000D3E9002300930292FBF7E5F95246059B14
:104E9000FBF7E1F90026884652463046059BFBF7B2
:104EA0007BFA009B029AFBF777FA069B049AFBF7C2
:104EB00073FA079B0E9AFBF772FA024600200B4624
:104EC000029038462946FBF76DFA824601912B463F
:104ED00038461946029AFBF75FFA32464346FBF71B
:104EE00061FA5246019BFBF7B6F907468A463246FD
:104EF000434629460298FBF755FA05460E463A46C0
:104F00005346FBF7A8F9594A8846914221DBA8EBA2
:104F1000020353EA000210D12A463346FBF73CFA5B
:104F2000CDE90401524A534B38465146FBF793F9F9
:104F3000DDE90423FBF798FB21D20220FEF7C4FA37
:104F4000FEF7A2FA0A46214618B062F31E01BDE838
:104F5000F08D494B28F000429A4210D3474A08EBA3
:104F6000020353EA00027FF4C6AD2A463346FBF73C
:104F700013FA3A465346FBF777FB7FF6BCAD0022A7
:104F8000019228F000403E493E4A01EB2051824206
:104F900023DA481C4FF4801121FA00F040443A4AC9
:104FA000C0F30A517A44394BA1F2FF31CB4020EAD9
:104FB0000303C0F3130040F48010C1F11401C84092
:104FC00012680190B8F1000FBCBF40420190284622
:104FD0003146FBF7E1F905460E462A463346384688
:104FE0005146FBF738F94FF000084246284B40463F
:104FF0000591FBF7D7F9CDE90601264A264B404635
:105000000599FBF7CFF9009102902A4633464046B6
:105010000599FBF7C1F93A465346FBF7C0F91F4A19
:105020001F4BFBF7BFF9009B029AFBF714F90746E9
:10503000884602460B4635E08E9803007AB60B0090
:10504000AA4300000000F03FE243000010430000CC
:105050000000084009C7EE3FFD033ADCF5015B1490
:10506000E02F3EBEE8410000AC410000000090404F
:10507000FE822B654715973C00CC904000346F3F73
:1050800001FCFFFF0000E03FF8400000FFFF0F00C1
:10509000432EE63F396CA80C615C20BEEF39FAFE66
:1050A000422EE63FDDE90601FBF7D5F8DDE90623F0
:1050B00005460E46FBF770F93A464346FBF76FF993
:1050C0000F462A463346009010461946FBF76AF908
:1050D000824602462E4888460B4605217844FEF754
:1050E0006DF952464346FBF75DF92A463346FBF716
:1050F00056F980468A463B4628463146009AFBF7D9
:1051000051F93B46009AFBF7A6F806910090002261
:105110004FF0804340465146FBF73EF90F460C9056
:105120004246534628463146FBF73CF93B460C9A2B
:10513000FBF7AAF9069B009AFBF72EF92A4633469D
:10514000FBF72AF90022134BFBF729F905460198D2
:105150000E4601EB00510815002810DC28463146A8
:10516000019AFBF700FAFEF715F9042808BFFEF7CD
:1051700093F928463146019AFBF7F5F905460B46A7
:1051800018B02A4658462146BDE8F04DFBF70AB94B
:10519000983F00000000F03F3EB50020014601228C
:1051A00002929DF80820012A01D0012200E000228D
:1051B000074C00233AB1012A03D100940193DDE9A1
:1051C000000103B030BD01940093DDE90001F8E770
:1051D0000000F07F4FF0FF40704700003EB5002018
:1051E0000146012202929DF80820012A01D00122E5
:1051F00000E00022074C00233AB1012A03D10094B9
:105200000193DDE9000103B030BD01940093DDE9B5
:105210000001F8E70000F0FF00487047000080FF41
:105220000EB500200146012202929DF80820012AB5
:1052300001D0012200E0002252B1012A06D16FF014
:1052400000400090901E0190DDE9000103B000BD18
:105250000348019000200090DDE90001F6E700001E
:105260000000F8FF0CB500200190012000909DF88F
:105270000000012801D0012000E0002010B1012829
:1052800006D102E00348019002E06FF00040019077
:1052900001980CBD0000C0FF10B502460B46FBF79D
:1052A000CBF901D0012010BD002010BD10B5FFF7D3
:1052B000B7FF0A4CC4E90801FFF7D4FFA060FFF76D
:1052C0006BFFC4E90401FFF785FF2060FFF786FF4D
:1052D000C4E90601FFF7A0FF606010BD8001002057
:1052E0002DE9F041DFF8B480044621F00045164670
:1052F00023F0004732463B4620462946FBF79CF9FF
:1053000019D232463B4620462946FBF7BDF80446F3
:105310000D4622462B4620462946FBF743F800223D
:105320004346FAF798FF00F06AF832463B46BDE87C
:10533000F041FBF737B832463B4620462946FBF79B
:1053400093F919D222462B4630463946FBF79CF892
:1053500006460F4632463B4630463946FBF722F8B2
:1053600000224346FAF777FF00F049F822462B4621
:10537000BDE8F041FBF716B830463946FFF78CFF21
:1053800018B1074903C9BDE8F08120462946BDE8A8
:10539000F041044A044BFBF705B800000000F03F61
:1053A000A0010020CD3B7F669EA0F63F2DE9F04195
:1053B00004460D4616461F462A2000F0B9F8200A7A
:1053C00000F0DEF8E0B200F0DBF8300A00F0D8F8C8
:1053D000F0B200F0D5F82B2000F0AAF8280A00F06F
:1053E000CFF8E8B200F0CCF8380A00F0C9F8F8B20B
:1053F00000F0C6F8BDE8F0412C2000F099B82DE986
:10540000F04106460F46FBF706FA041E0D4618BF8C
:105410000120284320F00040C0F17F6000F1E0400F
:10542000C00F0ED0301C18BF0120384320F00040C0
:10543000C0F17F6000F1E040C00F04BF0120FEF723
:1054400043F820462946BDE8F0810000102949D2E2
:10545000DFE801F0080C1014181C2024282C30342C
:10546000383C4044014621A0FBF79ABD014620A0EC
:10547000FBF796BD01461FA0FBF792BD01461EA09B
:10548000FBF78EBD01461DA0FBF78ABD01461CA09F
:10549000FBF786BD01461BA0FBF782BD01461AA0A3
:1054A000FBF77EBD014619A0FBF77ABD014618A0A7
:1054B000FBF776BD014617A0FBF772BD014616A0AB
:1054C000FBF76EBD014615A0FBF76ABD014614A0AF
:1054D000FBF766BD014613A0FBF762BD014612A0B3
:1054E000FBF75EBD014611A0FBF75ABD300000007E
:1054F00031000000320000003300000034000000E2
:1055000035000000360000003700000038000000C1
:1055100039000000D0900000D0920000D0A100001F
:1055200044000000D0950000460000003F0000004D
:1055300031B51148018841F001010180018841F035
:10554000020101800020FBF757FE0C4C0122694646
:105550002068FCF7AFFF2068FCF7C1FF0020FBF7D5
:105560004BFE0548801E018841F0020101800020A9
:10557000FBF742FE38BD00001A040240280000205C
:1055800031B5104C208840F001002080A01C01881B
:1055900041F0020101800020FBF72EFE0A4D01229E
:1055A00069462868FCF786FF2868FCF798FF00200A
:1055B000FBF722FE208840F0020020800020FBF74D
:1055C0001BFE38BD18040240280000200000010026
:1055D000070609020A030707400020000200010035
:1055E0000002040000040800100000001000000089
:1055F00001000000010000000200000001000000A6
:105600001000000000000200010000000100000086
:105610000100000001000000100000000200100066
:10562000580007001000B00007001800080107002C
:1056300018008C0106002000100200001000C002BB
:1056400007002000180300002000C8030000180015
:10565000780406002000FC0400002000AC050000D7
:1056600020005C06000020000C0700002000BC07A2
:10567000000020006C08000020001C090000200031
:10568000CC09000010007C0A07001000D40A0700B3
:1056900020002C0B00002000DC0B000020008C0CF4
:1056A000000020003C0D00002000EC0D0000280050
:1056B0009C0E00002000780F000030002810000031
:1056C0002000301100002000E011000020009012A6
:1056D000000028004013040028001C1403002000D0
:1056E000F81400002000A815000020005816000043
:1056F0002000081700002000B817000020006818DC
:1057000000002000181900002800C819030020001C
:10571000A41A00002800541B04002000301C0000C4
:105720003000E01C02003000E81D03002000F01EE5
:1057300000003000A01F03002000A820000020006F
:10574000582100002000082200002000B822060096
:10575000D09D00D09A0000003F00003F00000000F4
:105760003F00003F000000003F00003F000000003D
:105770000000000000000000000000000000000029
:105780000000000000000000000000000000000019
:105790000000000000000000000000000000000009
:1057A00000000000000000000000000000000000F9
:1057B00000000000000000000000000000000000E9
:1057C0000000000000000000FF80FF80FF80FF80DD
:1057D000FF80FF80FF80FF80FF80FF80FF80FF80D1
:1057E000FF80FF80FF80FF80FF80FF80FF80FF80C1
:1057F000FF80FF80FF80FF80FF80FF80FF80FF80B1
:10580000FF0000000000000000000000FF80FF809B
:10581000FF80FF80FF80FF80FF80FF80FF8000000F
:10582000FF80FF80FF80FF80FF80FF80FF80FF8080
:10583000FF80FF80FF80FF80FF80FF80000000006E
:105840000000000000000000000000000000000058
:105850000000000000000000000000000000000048
:105860000000000000000000000000000000000038
:105870000000000000000000001FFF801FFF801FCD
:10588000FF80FFFF80FFFF80FFFF80FFFF80FFFFA3
:1058900080FFFF80FF8000FF8000FF8000FF80000E
:1058A000FF8000FF8000FF8000FF8000FF8000FF7E
:1058B0008000FF8000FF8000FF8000FF8000FF80ED
:1058C00000FF8000FF8000FF8000FF8000FF80005D
:1058D000FF8000FF8000FF8000FF8000FF8000FF4E
:1058E000FF80FFFF80FFFF80FFFF80FFFF80FFFF43
:1058F000801FFF801FFF801FFF80000000FFFE0051
:10590000FFFE00FFFE00FFFFC0FFFFC0FFFFC0FF64
:10591000FFC0FFFFC0FFFFC0007FC0007FC0007F4F
:10592000C0007FC0007FC0007FC0007FC0007FC07C
:10593000007FC0007FC0007FC0007FC0007FC0002C
:105940007FC0007FC0007FC0007FC0007FC0007F9D
:10595000C0007FC0007FC0007FC0007FC0007FC04C
:10596000007FC0FFFFC0FFFFC0FFFFC0FFFFC0FF01
:10597000FFC0FFFFC0FFFE00FFFE00FFFE000000B3
:105980000000000000000000000000000000000017
:105990000000000000000000000000000000000007
:1059A00000000000000000000000000000000000F7
:1059B00000000000000000000000000000000000E7
:1059C000000000000000FFFFFFFFFFFFFFFFFFFFE1
:1059D000FFFFFFFFFFFFFFFFFFFFFFFFFFFFFFFFD7
:1059E000FFFFFFFFFFFFFFFFFFFF000000000000C1
:1059F00000000000000000000000000000000000A7
:105A00000000000000000000000000000000000096
:105A10000000000000000000000000000000000086
:105A20000000000000000000000000000000000076
:105A30000000000000000000000000000000000066
:105A40000000000000000000000000000000000056
:105A50000000000000000000000000000000000046
:105A60000000000000000000000000000000000036
:105A700000000000FF80FF80FF80FF80FF80FF802C
:105A8000FF80FF80FF8000000000000001FF000099
:105A900001FF000001FF00000FFF00000FFF0000EA
:105AA0000FFF00000FF800000FF800000FF80000D3
:105AB0007FC000007FC000007FC000007FC00000EA
:105AC0007FC000007FC00003FE000003FE00000F47
:105AD000FE00000FFE00000FFE00000FF000000FA0
