:020000040800F2
:1000000000780120AD01000893200008F9170008CE
:10001000912000084B0F0008653200080000000026
:100020000000000000000000000000001D25000886
:10003000391100080000000039210008BD2800081F
:10004000C7010008C7010008C7010008C701000870
:10005000C7010008C7010008C7010008991500087A
:10006000C7010008C7010008C7010008C701000850
:10007000C7010008C7010008C7010008C701000840
:10008000C7010008C7010008C7010008C701000830
:10009000C7010008C7010008C7010008C701000820
:1000A000C7010008C7010008C7010008C701000810
:1000B000AD2A0008712B0008F92B0008C7010008C1
:1000C000C7010008C7010008C7010008C7010008F0
:1000D000C7010008C7010008C7010008C7010008E0
:1000E000C7010008C7010008C7010008C7010008D0
:1000F000C7010008C7010008C7010008C7010008C0
:10010000C7010008C7010008C7010008C7010008AF
:10011000C7010008C7010008C7010008C70100089F
:10012000C7010008C7010008C7010008C70100088F
:10013000C7010008C7010008C7010008C70100087F
:10014000C7010008C7010008C7010008C70100086F
:10015000C7010008C7010008C7010008C70100085F
:10016000C7010008C7010008C7010008C70100084F
:10017000C7010008C7010008C7010008000000000F
:10018000C7010008C7010008C7010008C70100082F
:10019000C7010008DFF810D000F0E8FB0048004776
:1001A00039490008AFF300800078012006488047F5
:1001B00006480047FEE7FEE7FEE7FEE7FEE7FEE74C
:1001C000FEE7FEE7FEE7FEE77D290008950100084F
:1001D0002DE9F0410024061B254671F1000605DAE1
:1001E00001240027D0EB070067EB0101161E73F115
:1001F000000605DA0027D2EB0702012567EB0303AF
:1002000000F060FA86460E4617469C46AC4204D083
:100210000025D0EB050E65EB010624B10020D2EBE2
:10022000000760EB030C704631463A466346BDE872
:10023000F081D2B201E000F8012B491EFBD27047D9
:100240000022F6E710B513460A4604461946FFF7A2
:10025000F0FF204610BD2DE9FE4F804681EA0300E5
:10026000C00F0C46009021F0004123F00045B8EB90
:100270000200A94105D24046214690461C460B4645
:10028000024623F00040104347D0270DC7F30A0071
:10029000C3F30A510290401A019040286BDAC3F36D
:1002A000130040F4801B0098924620B10023D2EB4B
:1002B000030A63EB0B0B01985946C0F1400250460C
:1002C00000F031FA06460D4650465946019A00F0B4
:1002D00049FA10EB08006141002487EA115284EAD0
:1002E000E7731A4340D0009A62B3019A012A4FEA99
:1002F000075215DC001B61EB02014FF0004202EADD
:100300000752CDE90042001C41F5801132462B46D0
:1003100000F049FA03B0BDE8F08F40462146F9E706
:10032000001B61EB0201001C41F5801300185B41CA
:100330002018A2F5001747EB030140EAD570B61963
:100340006D4111E06D084FEA360645EAC0754FEA87
:100350000752001B61EB0201001C41F580114908A6
:100360004FEA30000019514132462B4603B0BDE838
:10037000F04F00F009BA0098012240000023D0EBB2
:10038000020263EBE073009821464FEAE074B8EB99
:10039000000061EB0401E9E783F000435BE781F0D3
:1003A000004158E72DE9FE4F81EA030404F00044C0
:1003B00021F0004100944FF0000B23F0004350EA7D
:1003C00001045ED052EA03045BD0C3F30A54C1F3C4
:1003D0000A552C44A4F2F3340194A0FB0254C1F357
:1003E000130141F48011C3F3130343F4801301FBA1
:1003F000024400FB034E840A970A44EA815447EA08
:100400008357A4FB076802958D0A05FB07854FEA11
:10041000932C04FB0C542705029D4FEA065847EA2B
:100420001637B5EB08056EEB070C870E920E47EA00
:10043000811742EA8312A7FB0201B6EB0B0164EBC2
:1004400000042B0D43EA0C335E1844EB1C50DA46D3
:100450005146E7FB0201C5F313044FEA0B3343EAAD
:1004600014534FEA0432019C43EA0603A4F10C043E
:100470000294009CCDE900B400F095F903B0BDE80A
:10048000F08F00200146F9E72DE9F04D81EA0304E1
:1004900004F0004B21F0004514464FF0000A23F011
:1004A000004150EA050220D054EA01021DD0C5F3F4
:1004B0000A570246C5F31303C1F31300C1F30A56EA
:1004C00040F4801543F48013A7EB0608101BD646B2
:1004D00008F2FD3873EB050002D308F1010801E0D2
:1004E00092185B41B8F1000F03DA00200146BDE825
:1004F000F08D00204FF48011064684460EE0171B55
:1005000073EB050705D3121B63EB050306434CEAA7
:10051000010C49084FEA300092185B4150EA01078C
:10052000EDD152EA030012D082EA040083EA050109
:10053000084305D0101BAB4106D20122002306E080
:1005400000224FF0004302E06FF0010253101AEB5B
:1005500006004CEB085110EB0A0041EB0B01BDE823
:10056000F04D00F011B970B521F0004303430CD0F9
:10057000C1F30A550024D5EB040564EB0403D61738
:10058000AD1AB34102DB0020014670BD201841EBDB
:10059000025170BD0EB5C10F80EAE0700844CA0771
:1005A000002140F233438DE80E000A460B4600F06E
:1005B000FAF803B000BD0EB540F2334102910021BC
:1005C000CDE900110A460B4600F0EDF803B000BD7E
:1005D0003EB5CA17CB0F002450405140C0186141AE
:1005E000DA0740F233430094CDE901232246234643
:1005F00000F0D9F803B030BD70B5C1F30A5201F074
:1006000000450024C1F3130140F2FF3341F480118F
:100610009A4201DA002070BD40F233439A42A2F2BE
:10062000334203DC524200F08DF800E090402C434E
:10063000F1D0404270BD000030B5041E71F10004DD
:1006400004DB4FF00044404264EB0101141E73F1DF
:10065000000405DB1C464FF00043524263EB0403E9
:100660008B4208BF824230BD30B5041E71F10004D8
:1006700004DB4FF00044404264EB0101141E73F1AF
:10068000000405DB1C464FF00043524263EB0403B9
:10069000994208BF904230BD30B50B46014600205C
:1006A0002022012409E021FA02F59D4205D303FA34
:1006B00002F5491B04FA02F52844151EA2F10102B5
:1006C000F1DC30BD2DE9F05F0546002092469B46E7
:1006D00088460646814640241BE028464146474658
:1006E000224600F02FF853465A46C01A914110D3C3
:1006F00011461846224600F016F82D1A67EB01083D
:100700004F4622460120002100F00DF817EB0009AA
:100710004E41201EA4F10104DFDC484631462A4642
:100720004346BDE8F09F202A04DB203A00FA02F19C
:10073000002070479140C2F1200320FA03F31943CF
:1007400090407047202A04DB203A21FA02F0002171
:10075000704721FA02F3D040C2F1200291400843D1
:1007600019467047202A06DBCB17203A41FA02F0DF
:1007700043EAE07306E041FA02F3D040C2F12002FE
:10078000914008431946704710B5141E73F10004D8
:1007900008DA401C41F1000192185B411A4301D173
:1007A00020F0010010BD2DE9F04D92469B4611B19D
:1007B000B1FA81F202E0B0FA80F220329046FFF7FF
:1007C000B2FF04460F4640EA0A0041EA0B015346D5
:1007D0005A46084313D0114653EA010019D0C8F114
:1007E00040025046FFF7AEFF05460E4650465946BA
:1007F0004246FFF798FF084305D0012004E0204659
:100800003946BDE8F08D0020054346EAE0762C43EA
:1008100037430A986305E40AA0EB08000022FD0AAA
:1008200044EA47540A3002D500200146E9E70105B1
:1008300010196941DDE9084500196941BDE8F04D2D
:10084000A2E72DE9F04D00231A461B1A8A4103DB6B
:1008500000200146BDE8F08DC1F30A52C1F3130137
:1008600041F480154FF0000BD10702D100186D4103
:10087000521E0027044640F2FF11384601EB620A7F
:100880003E468046024600204FF48011FFF75AFF93
:10089000C2197141BB1846EB0100B4EB030C75EBB8
:1008A000000C04D3E41A65EB000517460E46241924
:1008B00008F101006D4180463428E3DDF91946EB6B
:1008C0000600091BA84103D24FF0FF32134601E096
:1008D000002213461BEB070046EB0A51BDE8F04D22
:1008E000FFF752BF2DE9FE4FC3F30A5701F0004551
:1008F0000024C1F30A56C3F31303C1F3130143F4F5
:10090000801312EB020AA64641F48011009543EBD6
:10091000030CA7F1010B16E0B0EB0A0061EB0C0130
:10092000071E71F1000707DA4FF00008D0EB08004E
:1009300085F0004568EB0101171A73EB0107EBD353
:10094000761E001849415E45F6DA50EA010209D0E8
:10095000CDE900E5002213460296FFF724FF03B01D
:10096000BDE8F08F20460099F9E70000064C074DDE
:1009700006E0E06840F0010394E80700984710346F
:10098000AC42F6D3FFF70AFC789200089892000870
:1009900070B58C1810F8015B15F0070301D110F841
:1009A000013B2A1106D110F8012B03E010F8016B6E
:1009B00001F8016B5B1EF9D12B0705D40023521EF1
:1009C0000DD401F8013BFAE710F8013BCB1A921C59
:1009D00003E013F8015B01F8015B521EF9D5A14257
:1009E000D8D3002070BDC943016070470B784268BE
:1009F00063F3196242604B78426863F308224260F5
:100A0000CB78826863F31D7282600B79826863F32E
:100A10001B6282604B79826863F3CB2282608B78A1
:100A2000826863F3410282608979C26A491E61F378
:100A30001752C262704770B5072609290AD9C568DE
:100A4000A1F10A0404EB4404A640B543A3401D43AE
:100A5000C56007E0056901EB4104A640B543A3402A
:100A60001D4305611F23072A09D2446B521E02EB66
:100A7000820293409C4391400C43446370BD0D2A15
:100A800009D2046BD21F02EB820293409C43914037
:100A90000C43046370BDC46A0D3A02EB82029340BA
:100AA0009C4391400C43C46270BD002101704170B1
:100AB0008170C1700171417101218171704781683C
:100AC00041F00101816070477FB5012001F046FBD4
:100AD00002A800F05AFE03208DF80A0000248DF8C9
:100AE0000D400125ADF8085002A9164800F0F4FDAC
:100AF000280201F04BFB00F033F86846FFF7D5FF02
:100B00008DF800408DF802508DF805408DF80340B7
:100B10008DF801400C4C69462046FFF767FF04231F
:100B2000012200212046FFF786FF012211461220F4
:100B300001F0BAFA2046FFF7C2FF204600F01BF88A
:100B40007FBD00000000024000200140C06C80B268
:100B500070470068084201D00120704700207047AC
:100B600010B54FF48074204601F018FB2046BDE814
:100B7000104001F0EBBA816841F08041816070471C
:100B80002DE9FC410646684600F0FFFD012001F01A
:100B9000E5FA102001F0FAFA164D0722092128463D
:100BA00000F0D8FD07220A21284600F0D3FD0224D8
:100BB0008DF802402002ADF800008DF80340694630
:100BC000284600F089FD0C4F3146384602F090F976
:100BD0008DF802406002ADF800006946284600F03A
:100BE0007BFD3146384602F083F9384602F0F8F9C9
:100BF000BDE8FC8100000240001001407CB50446C5
:100C00000F4850F8240001F0A9FA684600F0BDFD35
:100C10000B4D103D35F81400ADF8000001208DF8A3
:100C2000020002208DF80300064E694656F82400A3
:100C300000F052FD56F8241035F8140008837CBDEE
:100C4000B457000800000020044951F820100A8B16
:100C5000034B33F8100002430A8370470000002062
:100C6000A4570008044951F820104A8B034B33F86D
:100C7000100002434A83704700000020A457000878
:100C80002DE9FF4104460F461F4850F8240001F0AB
:100C900065FA02A800F079FD00268DF80A601A486E
:100CA000143830F81400ADF8080001258DF80D5007
:100CB000164802A950F8240000F00EFD012F21D1A2
:100CC000A80301F063FA01F057FC0F482238015DD8
:100CD000801E005D01F024FC0B48083050F8240011
:100CE00000908DF804600C208DF805008DF80650FA
:100CF000684600F059FC04480F22203800210057B4
:100D000001F0D2F9BDE8FF81BC57000808000020BF
:100D10002DE9F34F89B000263746B046C146B246AA
:100D2000D34600200490059003900290019053E078
:100D30000199099800EBC10030C80022464B2946B2
:100D40002046FFF791FC15D2002213464046494643
:100D5000FFF772FC0ED242464B4650465946FFF70B
:100D60007AFA82468B460298401C80B202904FF07D
:100D70000008C1460022394B20462946FFF75CFC9B
:100D800014D20022134630463946FFF76DFC0DD2CF
:100D9000DDE9040132463B46FFF75DFACDE9040187
:100DA0000398401C80B203900026374642464B46CB
:100DB00020462946FFF740FC01D2A046A94632460C
:100DC0003B4620462946FFF74FFC01D226462F46D8
:100DD0000198401C80B201900A9901988842A7D3DB
:100DE0000298FFF7E8FB02460B4650465946FFF7CC
:100DF0004BFB04460D460398FFF7DDFB02460B460E
:100E0000DDE90401FFF740FB22462B46FFF7C4FA59
:100E100004460D46124E0D21304602F003F911A092
:100E200003C8CDE90701052207A9304602F006FAFA
:100E3000032000902B462246304602F003F90BA017
:100E400000680690022206A9304602F0F7F90BB0BE
:100E500020462946BDE8F08F00007940000079C0A7
:100E6000001001404156473A200000006D56000036
:100E700004480122427000218180C18001700181FB
:100E80008270704720010020F0B5DDE90547641E3F
:100E900024B202260CE0E51B06D410F805C002F8C7
:100EA00004C04D5D1D5501E016551E55641E24B24B
:100EB000002CF0DAF0BD862837D012DC4A282CD07E
:100EC00008DC012821D01F2821D02C2821D032284D
:100ED00017D120E0542822D0672822D0792810D1B9
:100EE00021E0CD2829D006DC982820D0AB2820D0BE
:100EF000B52806D11FE0D32821D0E02821D0FE2834
:100F000021D001200870FF20704700207047012089
:100F10007047022070470320704704207047052067
:100F20007047062070470720704708207047092047
:100F300070470A2070470B2070470C2070470D2027
:100F400070470E2070470F207047FEE72DE9F047ED
:100F50000446DDF820800D461A4EDFF86C9001271C
:100F60007078002802D00120BDE8F087204629468D
:100F7000FFF77AFB02D2C9E9004501E0C9E9024561
:100F8000B9E80F00FFF708FAD6E90223FFF76CFB78
:100F900015D277700021C8F80010C8F8041000229C
:100FA000134620462946FFF75FFB01D2377101E067
:100FB000FF2030710020FFF755FE0120D4E700200C
:100FC000D2E7000038010020B80500200022835C31
:100FD0008B54521CD2B2032AF9D370472DE9F84F33
:100FE00081468A460025A846AB46CDF800B00026CB
:100FF0004FF0000C00278024002000EBC60119F8F8
:1010000001E00EFB04CC1FFA8CFC1AF8011001FB66
:1010100004718FB26408401C0828EEDB6946604604
:10102000FFF749FF044669463846FFF744FF9DF83D
:10103000001049B1CDF800B0761C052ED8DB022D8A
:101040000FD2012010700EE000EB041080B22DB121
:101050004045F1D180466D1CEDB2EDE7804601259B
:10106000EAE782F800B01D704046BDE8F88F000046
:1010700030B5084C236840F6FE72824093430A78EC
:101080008D782A438D8849780D432A4382401A433C
:10109000226030BD0074004008B5034A1044083097
:1010A00000900098016008BD0074004000210170AC
:1010B00081708180417070470749002806D0102850
:1010C00003D1086840F4803008607047086840F039
:1010D0000100086070470000007400401FB5012047
:1010E00001F03CF802A800F050FB03208DF80A0044
:1010F00000248DF80D401020ADF8080002A90D481D
:1011000000F0EAFA4FF0005001F030F86846FFF7BF
:10111000CDFF8DF800408DF80240ADF804408DF809
:10112000014069460020FFF7A3FF0020FFF7C4FF3E
:101130001FBD000000000240704700002DE9F04391
:1011400099B08046894600240025334E28271895FB
:10115000179528210DA8FFF773F8282103A8FFF79A
:101160006FF8CDE9007403AB0DAA49464046FFF77E
:101170008BFE17AB18AA03A90DA8FFF72FFF9DF848
:10118000601081B1641CA4B2082CE0D3032223496F
:10119000304602F053F82021304601F043FF012091
:1011A00019B0BDE8F083010900F00F0001EB001455
:1011B000A02C07D2302000EB1410C1B2304601F051
:1011C00031FF06E0372000EB1410C1B2304601F0C9
:1011D00029FF04F00F010A2904D23031304601F012
:1011E00021FF03E03731304601F01CFF202130465B
:1011F00001F018FF9DF85C003030C1B2304601F0BC
:1012000011FF204601F074FA014605480CC820463B
:1012100000F08CFB0020C3E7001001402A010020F1
:101220004801002008B500900098411E0091FBD2B3
:1012300008BD00002DE9FF4FEDB04FF4A4711AA8CE
:10124000FEF7FEFFC44EC54F4FF00008C146B80779
:1012500001F04AFD72B6282110A8FEF7F1FF2821FF
:1012600006A8FEF7EDFF0D21BD4801F0DBFE4FF0B3
:10127000000A6E98B0F802B030E06D98324600EB8C
:10128000CA003B4630C820462946FFF7FDF8FFF765
:10129000B3F9FFF77FF932463B46FFF783F8224662
:1012A0002B46FFF77CF8AF4CAF4B2246FFF77AF89E
:1012B00032463B46FFF7E8F82246AC4BFFF76CF8A6
:1012C00004460D4622462B4640464946FEF7C3FFDC
:1012D000804689460AF1010A0AF0FF0AD345CCD2BA
:1012E0000022A34B40464946FFF7CEF8CDE91A014C
:1012F00032463B46FFF756F89A4A9B4BFFF7C4F835
:10130000804689464FF0010A022005904FF0000BFD
:10131000002004900390029005986E99401E059A53
:1013200031F8100031F81210401C88427ED880B28B
:1013300001906BE001996D98424600EBC1014B466C
:1013400003C9FFF729F832463B4602F091FF854C6E
:10135000854B2246FFF726F832463B46FFF794F8C6
:101360002246824BFFF718F804460D46002213462A
:1013700020462946FFF760F907D27A4A7A4B204681
:101380002946FEF768FF04460D46764A794B20460B
:101390002946FFF751F906D3774A784B204629466C
:1013A000FFF762F904D80BF1010B0BF0FF0B29E0FA
:1013B0006C4A704B20462946FFF756F90BD8704A05
:1013C000704B20462946FFF737F904D20498401C99
:1013D000C0B2049016E06A4A6A4B20462946FFF7DD
:1013E00043F90BD8684A694B20462946FFF724F990
:1013F00004D20398401CC0B2039003E00298401C42
:10140000C0B202900198401C80B2019005996E987C
:1014100030F81110019881428CD20498834517D37B
:101420000398834514D90298834500E07EE00FD3EA
:101430001AA800EBCA0000220260426010A95144C1
:10144000002001F8010C06A9514401F8010C51E0FB
:101450000498584518D9DDE90310884214D302993D
:101460000498884210D91AA83E4900EBCA00484A9D
:1014700006C010A95144012001F8010C06A95144ED
:10148000002001F8010C35E00398584517D9DDE933
:101490000301884213D9DDE9021088420FD31AA84C
:1014A000304900EBCA00314A06C010A9514401205E
:1014B00001F8010C06A9514401F8010C1AE0029848
:1014C000584517D902990498814213D9DDE90210D1
:1014D00081420FD91AA82A4900EBCA002D4A06C03A
:1014E00010A85044002100F8011C06A95144012015
:1014F00001F8010C1AA800EBCA01324603C93B46A9
:10150000FEF750FF174A184BFEF7BEFF42464B4608
:10151000FEF7A1FE804689460AF1010A0598401CA3
:1015200080B2059005982A28FFF4F0AE06A910A80D
:10153000FFF704FE002110AA06AC6F9B555C5D54BA
:10154000709B655C5D54491CC9B22829F5D362B60D
:1015500071B0BDE8F08F0000E3642A35CD92333FCF
:1015600000100140EA2E4454FB211940FB210940A0
:1015700000003C40FB21E93F0DA9BBE9BBFD154044
:101580003023337F7CD90240A43A55297A6A0F4030
:10159000FB21F93F7CD9124000F08EB90149086067
:1015A00070470000143C014030B51B4A8379016844
:1015B000002B2AD013688B431360111D0B6804683D
:1015C000A3430B60017911440B68046823430B604B
:1015D000114C08342168036899432160231D196860
:1015E0000568A94319604179102905D011440A689A
:1015F000006802430A6030BD21680268114321601F
:10160000196800680143196030BD00791044026810
:101610008A43026030BD0000003C014001460020CA
:10162000054A12680A40044B14331B680B4202D06F
:10163000002A00D001207047003C01402DE9F04114
:101640000446069E0D46DFF84480114F2046294689
:10165000FFF70AF802D2C8E9004501E0C8E90245EF
:10166000B8E80F00FEF798FED7E90223FEF7E4FF83
:1016700003D2F888401CF88001E00020F880F88848
:10168000202801D901203070BDE8F081B805002084
:101690003801002010B50020044A002402EBC001EC
:1016A0000C604C60401C0A28F7DB10BDA80100202C
:1016B00010B50121880701F0CDFA0121044801F09D
:1016C000C9FABDE8104002210248FFF78CB90000BA
:1016D00000040040002001402DE9F04100220127D4
:1016E0004FF0030C07FA02F50B882B40AB422CD1CC
:1016F000066853000CFA03F4A64306608E78D0F80F
:1017000000809E4046EA080606608E78012E01D0D1
:10171000022E12D18668A6438660CE78D0F8088063
:101720009E4046EA080686604668AE4346604568C5
:101730000E799640B6B235434560C568A543C5608D
:101740004C799C40C3681C43C460521C102AC9D306
:10175000BDE8F08110B5CC084FEA41714FEAD16382
:101760004FF00F0102FA03F201FA03F106D0436AC7
:101770008B434362416A1143416210BD036A8B434C
:101780000362016A1143016210BD4FF6FF710180CF
:1017900000218170C17001714171704710B5094815
:1017A000FFF7D4F940F6E441484340F6FF71B0FB3F
:1017B000F1F0FEF700FFBDE810400022024BFEF7FB
:1017C000EBBD000000200140007097400148007907
:1017D00070470000380100200549002088704870DB
:1017E000C88004480022026042608260C260704784
:1017F00038010020B8050020FEE700002DE9F05F69
:1018000081468A462A4F484651460CCFFEF7CAFD0C
:1018100004460D460126A7F11000B0F90080C3462A
:1018200015E0234800EBC6000CC8224800EBC801B5
:1018300003C9FEF7B7FD22462B46FEF70CFD044612
:101840000D46761CB6B208F101080FFA88F8B8F117
:101850000A0FE6DB0027DFF85C8012E0144808EB93
:10186000C70100EBC6000CC803C9FEF79BFD22466A
:101870002B46FEF7F0FC04460D46761CB6B27F1CE4
:101880003FB25F45EADB0A49ABF1010B08390FFAB9
:101890008BF00880002801DA09200880B1F90000E7
:1018A00008EBC000C0E9009A20462946BDE8F09F39
:1018B00038000020A801002010B50220FFF7AEFE7E
:1018C00000282BD01648FFF7ADFCFFF7F1FE154CB2
:1018D000207878B100F026F900202070124801F03D
:1018E00003FAFFF7D7FE01F0BFFC01F0E1F800F0CA
:1018F0001BFB0CE000F0A0FA01202070800701F033
:10190000F3F900F0DFFE01F035F900F00DFB01F016
:1019100075F9BDE810400220FFF740BE10BD000081
:10192000809698002C000020000400402DE9F04F24
:101930008FB007460E4614461D46DFF8D09199F841
:101940000000002806D040F69910A9F8020070485F
:1019500001F0CFF96F484FF0020880F800800020B6
:1019600089F800006C48D0E902120069CDE90A123A
:101970000C904FF6FF7A4FF4FA7213464FF4AF71A2
:101980009B20CDF800A002F035FC0022634B2046DE
:101990002946FEF760FC04460D4620462946FEF720
:1019A0002BFEC4170E904FF47A7B5A460023214633
:1019B0000E98FEF70DFC81B215460AA80D9303F0B0
:1019C0002BFE2846642200230D99FEF701FC81B20C
:1019D0000AADA81D03F020FE6422002321460E98C4
:1019E000FEF7F6FB104619460A220023FEF7F0FB2D
:1019F00081B20DF1310003F00FFE0424CDE9005453
:101A00004FF4C875534600222946B42002F090FADC
:101A1000B9F80200874260D0A9F802702B464FF453
:101A2000BE7264219B20CDF800A002F0E3FB3A488F
:101A3000D0E90512C069CDE90712099007AD39094F
:101A4000A81D03F0E9FD07F00F010DF1250003F0DB
:101A5000E3FDCDE900545346002264219B2002F0AF
:101A600067FA2F48A6F51C514FF496750F3937D0F9
:101A7000C1688068CDE90501B6FBFBF105A803F05C
:101A8000CBFDB6FBFBF00BFB10606424B0FBF4F164
:101A900005AFF81C03F0C0FDCDE9007853460022E5
:101AA000C821DC2002F044FAB6FBF4F004FB10601D
:101AB0000A24B0FBF4F105A803F0AEFDB6FBF4F088
:101AC00004FB1061F81C03F0A7FDCDE90078534634
:101AD00000222946DC2002F02BFA0FB0BDE8F08F7F
:101AE00003C8CDE9030103ACCDE900485346002209
:101AF000C821DC2002F01CFACDE900485346002240
:101B00002946DC2002F014FAE7E7000090000020EC
:101B10000008004052010020A07C00080000144092
:101B2000205900087CB54FF6FF7500214FF4F07383
:101B30004FF4A0720846009502F05CFB04241A489A
:101B4000CDE900042B464FF478420521552002F0E0
:101B5000EFF915482B460C30CDE900040022642132
:101B6000052002F0E5F910482B461830CDE90004B5
:101B70000022C821052002F0DBF90B482B46243057
:101B8000CDE9000400224FF49671052002F0D0F94F
:101B900005482B463030CDE9000400224FF4C871CF
:101BA000052002F0C5F97CBDB50000202DE9F04FFD
:101BB0008DB0064614461D46984F3878002805D04B
:101BC00040F699107880964801F093F895490220E4
:101BD00008704FF0000987F80090DFF84CA208ABBE
:101BE000DAE90912DAF8200007C34FF6FF784FF45C
:101BF000967B4FF4AF734FF4A07259469B20CDF8FB
:101C0000008002F0F7FA0022884B20462946FEF7B2
:101C100022FB04460D4620462946FEF7EDFCC4177C
:101C20000C904FF47A72002321460C98FEF7D0FAFC
:101C300081B2154608A80B9303F0EEFC28466422F7
:101C400000230B99FEF7C4FA81B208ADA81D03F07A
:101C5000E3FC6422002321460C98FEF7B9FA1046F3
:101C600019460A220023FEF7B3FA81B20DF12900CA
:101C700003F0D2FC0420CDE900504346002259462F
:101C8000B42002F055F97888864205D16848FFF7FC
:101C9000C9FA0DB0BDE8F08F7E804FF4C8734FF4E1
:101CA000BE7264219B20CDF8008002F0A3FADAE92D
:101CB0000C12DAF82C0005AB07C3DAE90F12DAF8D8
:101CC000380002AB07C302AD05ACE12E49D006DCFB
:101CD0004B2E0BD07D2E1AD0AF2E17D12CE0A6F5AF
:101CE0008076133E52D0322E10D160E00721E01CE6
:101CF00003F092FC0521A01D03F08EFC0821E81CD6
:101D000003F08AFC0021A81D03F086FC71E001218C
:101D100005A803F081FC0221E01C03F07DFC0521F5
:101D2000A01D03F079FC0721E81C03F075FC0021DD
:101D3000A81D03F071FC5CE0012105A803F06CFC18
:101D40000721E01C03F068FC0521A01D03F064FCE2
:101D50000621E81C03F060FC0021A81D03F05CFCD8
:101D600047E0022105A803F057FC0221E01C03F024
:101D700053FC0521A01D03F04FFC0421E81C03F0D7
:101D80004BFC0021A81D03F047FC32E0022105A80E
:101D900003F042FC0721E01C03F03EFC0521A01DDE
:101DA00003F03AFC0021A81D03F036FC21E00321DA
:101DB00005A803F031FC0221E01C03F02DFC0521F5
:101DC000A01D03F029FCD0208DF8080092218DF889
:101DD00009108DF80A908DF80B00A0218DF80C10D9
:101DE0008DF80D908DF80E0094208DF80F008DF871
:101DF00010900326CDE90046434600226421B4201A
:101E000002F096F8CDE9005643460022C821B420DE
:101E100002F08EF80748FFF705FA3AE79000002035
:101E20000008004052010020A07C0008000014407F
:101E300080969800A08601007CB54FF6FF750021C2
:101E40004FF4F0734FF4A0720846009502F0D2F9F7
:101E500003201549CDE900102B464FF478420521A7
:101E6000692002F065F8104804240930CDE9000427
:101E70002B4600226421052002F05AF80A482B461E
:101E80001530CDE900040022C821052002F050F8E9
:101E900005482B462130CDE9000400224FF496710D
:101EA000052002F045F87CBDF10000207CB504203F
:101EB00000F054F96846FFF768FC3020ADF80000E8
:101EC00003248DF8034001268DF8026000258DF86B
:101ED000055069461248FFF7FFFB1148183001888A
:101EE00041F030010180022000F038F96846FFF728
:101EF0004CFCADF800408DF803408DF802608DF881
:101F0000055069460748FFF7E7FB06481A30018885
:101F100041F00301018042F21070FFF783F97CBDAC
:101F20000008024000040240044840F69911418034
:101F300000210170024902200870704790000020C3
:101F4000520100202DE9FF473948DFF8F080394E73
:101F5000017802240127DFF8E0A098F800004FF68E
:101F6000FF754FF4FA724FF4967900292BD00028B0
:101F700027D1134664219B20009502F03BF9D6E956
:101F80000601CDE9020102AECDE900642B46002234
:101F90006421B42001F0CCFFCDE900642B4600227F
:101FA000C821B42001F0C4FFCDE900642B46002213
:101FB0004946B42001F0BCFF88F80070504600F09C
:101FC00093FEBDE8FF870028FBD1134664219B20C8
:101FD000009502F00FF9D6E90401CDE9020102AE45
:101FE000CDE900642B4600226421DC2001F0A0FF33
:101FF000CDE900642B460022C821DC2001F098FFC7
:10200000CDE900642B4600224946DC2001F090FF18
:10201000CDE900642B4600224FF4C871DC2001F0AA
:1020200087FF88F80070504600F05EFEC9E70000A8
:102030002C000020205900080008004090000020DB
:102040001CB5FFF733FF02F0B7FB4FF6FF7400211A
:102050004FF4F0734FF4A0720846009402F0CAF8EF
:1020600007200A49CDE9001023460022C8210A2092
:1020700001F05EFF054904201531CDE9001023462B
:102080000022FA21552001F053FF1CBD94000020CE
:10209000FEE77047024908430249086070470000A4
:1020A0000000FA050CED00E070B505460E4621482B
:1020B000006800F4E0634FF4E060B3F5A06F12D065
:1020C00006DCB3F5407F14D0B3F5806F14D10DE07A
:1020D000B3F5C06F04D083420ED1002304240FE077
:1020E000012303240CE00223022409E0032301243A
:1020F00006E00423002403E0FFF7CCFF00230424C0
:10210000C3F10400C4F1040386400F20D8401040FE
:102110003043000105F1E02181F8000405F01F01C2
:10212000012088406911890001F1E021C1F8000116
:1021300070BD00000CED00E07047000002490A6825
:1021400082430A60704700002038024002490A6852
:1021500082430A60704700002438024002490A683E
:1021600002430A60704700003038024002490A68A2
:1021700002430A60704700004038024002490A6882
:1021800002430A60704700002038024002490A6892
:1021900002430A60704700004438024002490A685E
:1021A00002430A6070470000243802400FB509A0BE
:1021B00090E80E00C0688DE80E00039000F036F83D
:1021C00008490968C1F303111DF80110C84004B0A3
:1021D00000BD000000000000000000000102030438
:1021E00006070809083802403CB504460D460CA015
:1021F00003C8CDE90001FFF7D9FF0B4A6B4634B1A4
:102200001168C1F38221595C20FA01F12160002D8F
:1022100005D01168C1F34231595CC84028603CBD0B
:1022200000000000010203040838024010B51648FF
:102230000068C0F381011548002915D04410012918
:1022400011D0022910D1104A121F116801F03F016C
:102250001368C3F3805343B1B4FBF1F01168C1F3C9
:102260008811484307E0204610BDB0FBF1F011682B
:10227000C1F3881148431168C1F30141491C490069
:10228000B0FBF1F010BD0000083802400024F4005B
:1022900070B502460B46134C4FF000056078A178EC
:1022A000084301D0012070BD104623F00041D4E95D
:1022B0000223FEF7D9F902D22570002070BD2078E4
:1022C00010280BD90121A170257007480022026057
:1022D00042608260C260E170012070BD401C2070CD
:1022E000002070BD38010020B805002070B594B002
:1022F00006460D4614460020FEF7A6FC0120FEF718
:10230000B1FC40F6FF710020FEF7C6FEFFF75EFA53
:1023100042B223462946304600F0C8FF28210AA8C9
:10232000FDF78EFF28216846FDF78AFF6B460AAA53
:1023300021462846FEF77EFF00F096FFFFF7AAF938
:102340004FF0804000F0E8FCFEF7BEFB00F0B0FB71
:1023500000210846FEF7A0FE0120FEF775FC14B030
:1023600070BD0B78026863F3820202600B7802682A
:1023700063F3082202604B78026863F3CB220260A9
:102380008B78026863F300020260CB78026863F323
:10239000410202600B79026863F3492202604B79C3
:1023A000026863F3C71202608A79036862F3CF336D
:1023B00003608A791309026863F38E320260CA8867
:1023C000130A026863F38A2202600B7A026863F3DD
:1023D000C50202604A89016962F30F010161704719
:1023E0000021C18001704170C17081700171017262
:1023F0004171072141817047016821F4005101605A
:102400007047416821F0040141607047016841F064
:102410004001016070478068084201D00120704788
:102420000020704730B585B00320FFF797FE4FF4CA
:102430008050FFF7ABFE4FF48040FFF7A7FE264D1C
:10244000052211462846FFF785F905220621284670
:10245000FFF780F9052207212846FFF77BF903A83B
:10246000FFF793F9E021ADF80C1003218DF80F1060
:1024700002218DF80E1000248DF810408DF81140C7
:1024800003A92846FFF728F96846FFF7A9FFADF82A
:10249000064001208DF800008DF801408DF80340C2
:1024A0008DF802408DF804008DF808408DF8054045
:1024B0000720ADF80A00094C69462046FFF751FF96
:1024C0002046FFF799FF2046FFF79BFF2046FFF7C6
:1024D0009DFF05B030BD000000000240003001400B
:1024E0002DE9F04106460D461746002409E0022179
:1024F0003046FFF790FF0028F9D0285DF060641C9B
:10250000A4B2BC42F3D3BDE8F08110B504468021EB
:102510002046FFF780FF0128F9D010BD704700006A
:102520008A0700F00F00120F90408A0808D001229D
:10253000B2EB910F0AD10F490A6802430A60704753
:102540000C49091F0A6802430A6070470222B2EB75
:10255000910F05D10749091D0A6802430A607047B7
:102560000322B2EB910FFAD1024908310A68024303
:102570000A6070470C38014010B54FF48044204683
:10258000FFF70CFE2046BDE81040FFF7DFBD00005E
:102590002DE9F04F8FB004468A46302102A8FDF79E
:1025A0004FFE0120FEF75EFB3E4800F09DFB72B639
:1025B00000210846FEF770FD4FF480712046FEF7BB
:1025C000A7FBDFF8E4B0CBE9040102A9204601F043
:1025D000D5FC364C0D21204600F024FD202120465C
:1025E00000F020FD002700264FF04B0802A800EB6A
:1025F000C6092F4AD9E900012E4BFEF71DF802D378
:10260000BAF1000F05D00021C9F80010C9F8041074
:1026100012E0D9E900014FF03332274BFEF724F8DE
:102620000AD226480021C9E9001006EBC60000EBDB
:10263000061008EB400087B206EBC60000EB061060
:1026400008EB4000FDF7A6FF04460D46D9E900015E
:1026500000221B4BFDF7A6FE02460B461348CDE9B0
:10266000004500F0A9FD761C062EBFDB27B1DBE993
:1026700004233846FFF79AFA40F6FF710020FEF770
:102680000BFD00F01FF8074800F046FBFEF71CFAB0
:1026900000F070FA0120FEF7D7FA62B60FB0BDE87D
:1026A000F08F0000000400403801002000100140BD
:1026B0009A9999999999D93F3333EB3F0000F03FAC
:1026C0000000594010B50020074A002402EBC00169
:1026D0000C604C60401C80B2FF28F6D903480021F2
:1026E00081800121417010BD006C0120500100204B
:1026F0002DE9F04100F03F014FF45C6240F2E475D7
:10270000531F6E1F40F6CF5040F6AC544FF4FA679B
:1027100040F2DC5C402970D2DFE801F02024272A57
:102720002D303336393C3F4245484B4E5154575A71
:102730005D606366696C707376797C7F8285888B57
:102740008E9194979A9DA0A322A6A8AAACAEB0B2EF
:10275000B5B722B9BBBDBFC1C3C5C7CA42F20F706E
:10276000BDE8F08141F69070FAE741F68670F7E730
:1027700041F68170F4E741F67C70F1E741F69E3056
:10278000EEE741F69930EBE741F69430E8E741F6A1
:102790008F30E5E741F68A30E2E741F6A510DFE742
:1027A0004FF4CD50DCE741F69B10D9E741F6961087
:1027B000D6E741F69110D3E741F68C10D0E741F609
:1027C0006410CDE741F2AC70CAE741F2A770C7E7E9
:1027D00041F2A270C4E741F29D70C1E741F29870E6
:1027E000BEE741F27070BBE741F2B350B8E741F287
:1027F000AE50B5E741F2A950B2E75CE041F2A45017
:10280000AEE741F29F50ABE741F27C50A8E741F2BE
:10281000BA30A5E741F2B530A2E741F2B0309FE708
:1028200041F2AB309CE741F29C3099E741F28830AD
:1028300096E741F2C11093E741F2BC1090E741F2F4
:10284000B7108DE741F2A8108AE741F2941087E7AC
:1028500040F6C87084E740F6C37081E740F6B47074
:102860007EE74FF47A607BE7104679E7184677E712
:10287000204675E7284673E7304671E738466FE72C
:1028800040F2EB506CE760466AE7002068E71046CC
:1028900066E7184664E7204662E7284660E7304668
:1028A0005EE738465CE760465AE740F2E15057E79A
:1028B0004FF4A07054E741F6616051E770470000A3
:1028C00008B52A49086840F480300860002000906C
:1028D0004FF4A04205E00868800305D40098401C2E
:1028E000009000989042F6D3086880033CD51F48BA
:1028F0004030026842F0805202601D48026842F493
:102900008042026019480830026822F0F00202603A
:10291000026822F4604202F500420260026822F47A
:10292000E05202F5A0520260021F124B13601368BE
:1029300043F4800313600A6842F080720A600A68F8
:102940009201FCD50C4A40F205711160016821F03A
:1029500003010160016821F00301891C0160016825
:10296000C1F381010229FAD108BD000000380240FC
:102970000070004008540007003C024010B50F48AA
:10298000016841F0010101600C4A00210832116028
:1029900002680B4B1A400260031D0A4A1A60026863
:1029A00022F48022026005480C300160FFF788FFA6
:1029B00005494FF00060086010BD0000003802407B
:1029C000FFFFF6FE1030002408ED00E038B50121CD
:1029D000880700F097F901285BD102212D48FEF706
:1029E000B8F82D4C80B3FEF7D9FEC4E904012B4B97
:1029F000A26803EBC20203C2FEF700FFC4E90401B0
:102A0000FFF746FC40B304F10800009004F1100009
:102A10000FC8FEF79BFA18B3A268214BD4E9040152
:102A200003EBC20203C222460092D4E90623FEF75A
:102A300005FED4E90401C4E90601D4E90201401C01
:102A400041F10001C4E90201FEF732FE207858B1DD
:102A5000BDE8384000F008BCBDE83840FEF728BEAD
:102A6000BDE83840FEF724BED4E9021081F4A85135
:102A700001430ED141F288310848FEF749F9094A6D
:102A800003C2BDE83840084A054802F15801FFF783
:102A90002DBC38BD002001405001002000C40020A2
:102AA000001C002048010020C8050020FFF78EBF51
:102AB0001CB50120FFF75AFB00208DF801008DF8AE
:102AC000000040F21F61ADF804100121ADF80210C2
:102AD0008DF806004FF080446946204600F0BEF8AD
:102AE0000121204600F00AF9002201211C20FFF7F5
:102AF000DBFA204600F0FDF81CBD000010B50121F6
:102B0000164800F0FFF8012823D102211448FEF7EF
:102B100020F8F0B1FEF742FE124CC4E904016278DD
:102B200032B10022104BFDF79FFD01D200206070F2
:102B3000A0880E49D4E9042301EBC0010CC1401C5C
:102B400080B2A080B0F5807F03D161780748FFF79D
:102B50001FFDBDE81040FEF7ABBD000000040040C3
:102B6000002001405001002000407F40006C012007
:102B7000FFF7C4BF1CB50220FFF7F8FA00208DF85C
:102B800001008DF8000041F6A211ADF804100121FA
:102B9000ADF802108DF80600084C6946204600F09A
:102BA0005DF80121204600F0A9F8002201211D2036
:102BB000FFF77AFA204600F09CF81CBD00040040A4
:102BC00070B50B4D0121284600F09CF801280DD16D
:102BD000084CA07808B9FFF7B5F9A078401EA0709E
:102BE0002846BDE87040012100F034B870BD0000F7
:102BF0000008004050010020FFF7E2BF1CB5042090
:102C0000FFF7B4FA00208DF801008DF800004AF2B9
:102C10000F41ADF804104FF47A71ADF802108DF841
:102C200006000A4C6946204600F018F801212046AB
:102C300000F064F8002201211E20FFF735FA044A53
:102C400002219170204600F054F81CBD000800409D
:102C500050010020C94301617047000030B51B4A94
:102C60001B4B90420DD0B0F1804F0AD0194CA042BE
:102C700007D0194CA04204D0184CA04201D0984271
:102C80000AD10C78056864F3041505600C782509F1
:102C9000046865F346140460114CA04207D0114C3F
:102CA000A04204D04D78046865F3092404604C8880
:102CB000C4628C888462904201D0984201D18979A3
:102CC0000163416941F00101416130BD00000140F3
:102CD000000401400004004000080040000C0040D7
:102CE0000010004000140040016821F00101016063
:102CF0007047016841F0010101607047C2680A43F2
:102D0000C260704702690A4204D0C068084201D01C
:102D1000012070470020704710B55149884207D103
:102D20000120FFF73BFABDE810400120FFF70EBA83
:102D3000B0F1804F0AD04B4988420FD10220FFF7F3
:102D40001DFABDE810400220FFF7F8B90120FFF797
:102D500015FABDE810400120FFF7F0B9424988425A
:102D600007D10420FFF70AFABDE810400420FFF75E
:102D7000E5B93E49884207D10820FFF7FFF9BDE8D1
:102D800010400820FFF7DAB93949884207D11020EE
:102D9000FFF7F4F9BDE810401020FFF7CFB935492F
:102DA000884207D12020FFF7E9F9BDE81040202034
:102DB000FFF7C4B93049884207D10220FFF7EEF986
:102DC000BDE810400220FFF7C1B92C49884209D163
:102DD0004FF480342046FFF7E1F92046BDE810406B
:102DE000FFF7B4B92649884209D14FF40034204690
:102DF000FFF7D4F92046BDE81040FFF7A7B92149F5
:102E0000884209D14FF480242046FFF7C7F92046B5
:102E1000BDE81040FFF79AB91B49884207D140200E
:102E2000FFF7ACF9BDE810404020FFF787B917491C
:102E3000884207D18020FFF7A1F9BDE8104080202B
:102E4000FFF77CB91249884208D184152046FFF764
:102E500095F92046BDE81040FFF770B910BD00009D
:102E6000000001400004004000080040000C004049
:102E700000100040001400400004014000400140E8
:102E8000004401400048014000180040001C004080
:102E9000002000403EB54FF4E130009000208DF856
:102EA000080003218DF807108DF806008DF8050045
:102EB0008DF804006846FDF763FE47F6FF70FEF7E5
:102EC000B1F9084C0649204600F08FF82021204631
:102ED00000F00AF8002211462520FFF7E5F83EBD74
:102EE000200001050010014002688A43026070471B
:102EF00038B504460D46E168E87960F38201E16087
:102F0000E8794108E06861F3C300E060A87941080E
:102F1000E06861F34920E060A879E16860F38A2104
:102F2000E1602979E06861F30C30E060697920693B
:102F300061F30D302061287A616960F308216161D5
:102F4000287A4108606961F349206061224884421F
:102F500002D02248844204D169460020FFF744F998
:102F600003E000216846FFF73FF9E068000409D557
:102F7000009800EBC00101EB001029684900B0FB8C
:102F8000F1F108E0009800EBC00101EB00102968A6
:102F90008900B0FBF1F16422B1FBF2F000010309FA
:102FA0006FF018056B4301EB8301E3681D044FF0DC
:102FB000320307D503EBC101B1FBF2F101F00701C8
:102FC000014306E003EB0111B1FBF2F101F00F0147
:102FD0000143A16038BD0000001001400014014011
:102FE000C16841F40051C16070478AB2CB0302D579
:102FF000C3681343C3608B0302D5036913430361A2
:10300000490302D541691143416170470068084294
:1030100001D00120704700207047426861F3080228
:103020004260704770B504460D4680212046FFF788
:10303000EDFF0028F9D029462046BDE87040FFF793
:10304000ECBF00002DE9F0478146089E14461D465E
:1030500020462946FDF7D0FA8046C7174046394634
:10306000FDF7B6FA22462B46FDF799F9044621F002
:1030700000453046FDF79FFA02460B4600202849DE
:1030800001F084FC22462B46FDF78CF9FDF7B4FADB
:10309000C517044642463B46484600F043F82E21F9
:1030A0004846FFF7BFFF204629464FF0000850EA88
:1030B000010201D000271AE0002404E03021484634
:1030C000FFF7B0FF641CB442F8DB4846BDE8F047A8
:1030D0002021FFF7A7BF50EA010203D008F1010841
:1030E00008F0FF080A220023FDF772F87F1CB742A0
:1030F000F1DB0027A6EB080604E030214846FFF785
:1031000091FF7F1CBE42F8DC22462B46484600F069
:1031100009F84846BDE8F0472021FFF783BF0000CB
:10312000000024402DE9F041804614461D4600264B
:103130000027002D08DA2D214046FFF773FF2846AF
:103140000025644265EB000554EA050017D13021E3
:103150004046FFF767FF12E00A2200232046294677
:10316000FDF736F806EB860464001546161926B9F5
:1031700055EA030201D17F1CFFB204460D4654EA12
:103180000500E9D10A2409E0B6FBF4F004FB106164
:1031900030314046FFF746FFB6FBF4F6002EF3D180
:1031A00005E030214046FFF73DFF7F1EFFB2002FB4
:1031B000F7D1BDE8F0810000F8B514461D46DDE901
:1031C00006230646002000903046FFF73BFF06220C
:1031D0001749304600F032F80022164B20462946A7
:1031E000FDF72AFA08D220213046FFF71BFF2021E5
:1031F0003046FFF717FF0AE000220F4B2046294612
:10320000FDF71AFA03D220213046FFF70BFF012009
:10321000009022462B463046FFF714FF252130460A
:10322000FFF700FF3046BDE8F8400D21FFF7FABE7A
:1032300070010020000024400000594070B506468F
:103240000C4615460AE080213046FFF7DFFE0028D5
:10325000F9D014F8011B3046FFF7DFFE6D1E681C25
:10326000F1D170BDFEE70000F0B40E48002282618B
:10327000C261027000200C4B4FF4167603EBC001C4
:1032800000250D604D60401CB042F7DB0020064970
:10329000583921F81020401C2A28FADBF0BCFEF730
:1032A0009BBA000050010020200600202DE9F84FB5
:1032B00006468A46104698460124FDF76BF93D4FB5
:1032C0008346A1460025009106EBC40358460CCB6B
:1032D0000099FDF767F800221346FDF7ADF912D209
:1032E000621E06EBC20358460CCB0099FDF75AF854
:1032F00000221346FDF7B8F905D23889201A0828AC
:1033000009D07D703C81F888B0F52F7F42D9BDE8A7
:10331000F84FFDF7ADBD2046FDF73CF90022264BE6
:10332000FDF73AF80022254BFCF795FFD7E9042377
:10333000FDF738F8FA880AEBC20203C2F888401C8D
:1033400080B2F880797819B1B8880F281DD01DE0B7
:10335000B988052913D9B97839B1BD7039782B29C5
:1033600007D9BDE8F84FFDF783BD3978491C39709E
:10337000F4E728F8110087F80190BD8006E0401AB4
:10338000F880BD8087F8019000E07D70B888401C0F
:10339000B880B7E7641CB4F5A85F95DB3878401CAB
:1033A000C0B23870F98828F81010BDE8F84FFDF762
:1033B0005FBD0000200100200000F03F0000E03F62
:1033C0000FB4084B10B504A902AA039800F0ACF89A
:1033D000044602A9002000F051F9204610BC5DF817
:1033E00014FB00007D360008490050EAC12018BFD8
:1033F00004204A0D18BF40F0010040F2FF72B2EB0A
:10340000515F08BF40F00200012808BF0520704747
:103410002DE9F0414F1E00EBC7010446D1E9000140
:1034200015461E4637F006020DD02A463346FCF7F5
:10343000B9FF7F1E04EBC703D3E90023FCF70BFFA2
:1034400037F00602F1D1022F25D0042F13D0062F1A
:1034500018BFBDE8F0812A463346FCF7A3FFD4E944
:103460000A23FCF7F8FE2A463346FCF79BFFD4E913
:103470000823FCF7F0FE2A463346FCF793FFD4E915
:103480000623FCF7E8FE2A463346FCF78BFFD4E917
:103490000423FCF7E0FE2A463346FCF783FFD4E919
:1034A0000223FCF7D8FE2A463346FCF77BFFD4E91B
:1034B0000023BDE8F041FCF7CEBE00000022134619
:1034C00010460149FCF7E0BF0000F03FFCF7C3BE27
:1034D0000022134610461146FCF7D6BF40F20132D7
:1034E00000204FF0E041FDF73EB80000024A002006
:1034F0001107FDF738B8000001FDFFFF02E008C822
:10350000121F08C1002AFAD170477047002001E05D
:1035100001C1121F002AFBD1704700000149086059
:1035200070470000A00100202DE9FF4F89B09B46A5
:103530000446002506E025280BD05A460B999047F3
:10354000641C6D1C20780028F5D10DB02846BDE81C
:10355000F08F0027B8460122474900E0074314F8DE
:10356000013F203B02FA03F00842F7D120782E28D1
:1035700019D114F8010F47F004072A280ED06FF074
:103580002F022078A0F1300109290CD808EB88011E
:1035900002EB410100EB0108641CF2E70A98641C8D
:1035A00050F8048B0A9020780028CED0642808D0E8
:1035B000692806D075281ED05A460B9990476D1C75
:1035C00058E00A994FF00A0901C90A91002802DA65
:1035D00040422D2102E0390504D52B218DF8201021
:1035E000012103E0F90704D02021F7E78A4608AE5D
:1035F0000DE00021FAE70A994FF00A0901C90A9182
:10360000F7E74946FDF748F8303106F8011D002874
:10361000F7D1ADEB060000F12009780701D44FF097
:103620000108C84502DDA8EB090000E00020804643
:10363000002706E008A85A46C05D0B9990476D1C0C
:103640007F1C5745F6DB04E030205A460B99904723
:103650006D1CB8F10001A8F10108F5DC05E016F8D1
:10366000010B5A460B9990476D1CB9F10001A9F165
:103670000109F4DC641C65E7092801000A68531C91
:103680000B601070704700002DE9F34F9FB00021D0
:10369000FE4D4B006C5C641E00EBC302C0CA209A56
:1036A00002EB0412C2E900675B1C00EBC30318CBFA
:1036B000C2E90234491C8029EBDB4FF00008209856
:1036C00008F1010100EB0119D9E900ABD9E90201C8
:1036D000CDE910015D46119F209800EB08101D9068
:1036E00003C8CDE912011D98C1688068CDE91401B5
:1036F000DDE91201544622465B46FCF74DFE824648
:103700008B46DDE91063DDE914013246FCF744FE27
:10371000CDE91001C9E900ABDDE91001C9E90201F9
:10372000DDE912012B462246FCF795FDCDE9120199
:10373000DDE914013B463246FCF78DFDCDE914016D
:10374000DDE912211D98C0E90021DDE914211D9851
:10375000C0E9022108F10208B8F17E0FAFDD0220B6
:103760000A9004200990202004907D200890BDE05C
:103770004FF000092DE00A984844209901EB001A07
:10378000DAE90045DAE902672098224600EB0918D9
:103790002B46D8E90001FCF7FFFDCAE90001D8E992
:1037A000020132463B46FCF7F7FDCAE90201D8E9BF
:1037B000000122462B46FCF74EFDC8E90001D8E97E
:1037C000020132463B46FCF746FDC8E90201099872
:1037D000814408988145CEDB01200690049805902D
:1037E00073E0AB49059801EBC00003C8CDE90C01BB
:1037F000A849059801EBC00003C8CDE90E01DDF82A
:1038000018A008985044079055E00A985044209911
:1038100001EB001BDBE90289DBE90023CDE9102382
:10382000DDE90E0142464B46FCF7BCFDDDE9102305
:1038300004460D46DDE90C01FCF7B4FD22462B469B
:10384000FCF7AAFD04460D460EA80FC8FCF7AAFD1A
:1038500006460F46DDE90C0142464B46FCF7A2FD49
:1038600032463B46FCF7F7FC06460F4620982246B8
:1038700000EB0A182B46D8E90001FCF78DFDCBE9D7
:103880000001D8E9020132463B46FCF785FDCBE951
:103890000201D8E9000122462B46FCF7DCFCC8E90E
:1038A0000001D8E9020132463B46FCF7D4FCC8E9E6
:1038B00002010998824407988245A6DB0698401CBD
:1038C0000690DDE90410084405900598402888DB3F
:1038D000049800EBD0704010049009980A90099861
:1038E0004000099008990A98081A0890049800283E
:1038F0003FF73EAF2098D0E900892098D0E902AB8D
:1039000052465B4649464046FCF7A5FC0746012265
:103910001C91FCF728FE4FF0FF32FCF724FE209AA2
:1039200003C252465B4649464046FCF735FD064613
:1039300004460D461B9142464B4650465946FCF7FD
:103940002BFD22462B46FCF786FC4FF0FF32FCF79E
:103950000AFE209AC2E902011B99CDE91061DDE956
:1039600010010122FCF7FFFD4FF0FF32FCF7FBFDD9
:10397000209A02F5006203C289F000414046524697
:103980005B46FCF709FD02460B4638461C99FCF7DE
:1039900062FC4FF0FF32FCF7E6FD209A02F60802C7
:1039A00003C200200B900B9A2098521C00EB0213CC
:1039B0001A93D3E900891A9BD3E9024533480B993E
:1039C0008030084443780A930A9B20985B1E199321
:1039D00000EB0313189303CBCDE90C01189BD3E93B
:1039E0000201CDE90E012C4800EB0210D0E902AB38
:1039F0000AC8CDE91213294800EB0210D0E90212DF
:103A0000CDE91412C0C8DDE91423DDE90E01FCF78D
:103A1000C9FCCDE90001DDE90C0132463B46FCF76B
:103A2000C1FCDDE90023FCF716FCCDE9020152469A
:103A30005B4620462946FCF7B5FCCDE90001DDE9EF
:103A4000122340464946FCF7ADFCDDE90023FCF7B4
:103A5000A3FCDDE90223FCF7FEFB4FF0FF32FCF78D
:103A600082FD1A9B03C3DDE90E0132463B46FCF79B
:103A700099FCCDE90001DDE91423DDE90C01FCF737
:103A800091FCDDE90023FCF787FC09E0E8900008E1
:103A9000E88C0008E88E0008E87C0008E88400084C
:103AA000CDE90201DDE9122320462946FCF77AFC24
:103AB000CDE9000152465B4640464946FCF772FCA0
:103AC000DDE90023FCF7C7FBDDE90223FCF7C3FBBC
:103AD0004FF0FF32FCF747FD1A9BC3E90201DDE915
:103AE0000E0152465B46FCF75DFCDDE91223CDE991
:103AF0000001DDE90C01FCF755FCDDE90023FCF7D2
:103B0000AAFBCDE90201DDE9142320462946FCF792
:103B100049FCCDE9000132463B4640464946FCF7A8
:103B200041FCDDE90023FCF737FCDDE90223FCF76B
:103B300092FB4FF0FF32FCF716FD0B9A209B81326F
:103B400003EB0212179203C2DDE91223DDE90E0135
:103B5000FCF728FCCDE90201DDE90C0152465B4689
:103B6000FCF720FCDDE90223FCF716FC82468B46BD
:103B700032463B4620462946FCF714FCDDE9142377
:103B800006460F4640464946FCF70CFC32463B468B
:103B9000FCF761FB52465B46FCF75DFB4FF0FF32E2
:103BA000FCF7E1FC179AC2E902019848199B00EB67
:103BB0000310D0E90212CDE91412C0C89448199B31
:103BC00000EB0310D0E90223CDE91023D0E900ABCC
:103BD000DDE9102320462946FCF7E4FBCDE900018E
:103BE00052465B4640464946FCF7DCFBDDE90023D4
:103BF000FCF731FBDDE91423CDE90201DDE90E011B
:103C0000FCF7D0FBCDE90001DDE90C0132463B4673
:103C1000FCF7C8FBDDE90023FCF7BEFBDDE902236E
:103C2000FCF719FB4FF0FF32FCF79DFC189B03C318
:103C300052465B4620462946FCF7B4FBCDE900011D
:103C4000DDE9102340464946FCF7ACFBDDE90023E3
:103C5000FCF7A2FBCDE90201DDE90E0132463B464D
:103C6000FCF7A0FBCDE90001DDE91423DDE90C013F
:103C7000FCF798FBDDE90023FCF7EDFADDE9022310
:103C8000FCF7E9FA4FF0FF32FCF76DFC189BC3E933
:103C90000201DDE9142320462946FCF783FBCDE928
:103CA000000132463B4640464946FCF77BFBDDE9D6
:103CB0000023FCF7D0FACDE902010EA80FC8FCF7EB
:103CC00071FBCDE90001DDE90C0152465B46FCF7D2
:103CD00069FBDDE90023FCF75FFBDDE90223FCF76C
:103CE000BAFA4FF0FF32FCF73EFC0A9B209A7F3372
:103CF00002EB0312169203C232463B462046294687
:103D0000FCF750FBDDE9142304460D4640464946C6
:103D1000FCF748FB22462B46FCF73EFB04460D46CB
:103D2000DDE90E0152465B46FCF73CFBDDE9102362
:103D300006460F46DDE90C01FCF734FB32463B46F4
:103D4000FCF789FA22462B46FCF785FA4FF0FF3242
:103D5000FCF709FC169AC2E902010B98401C0B9073
:103D60000B983F28FFF61FAE2098D0F80494D0F8A7
:103D70000084209800F5816030C801224946404601
:103D8000FCF7F1FB00221346FCF706FB0646024651
:103D900088460B4600200146FCF75DFA4FF0FF37DE
:103DA0003A46FCF7E0FB209A02F5806203C200224B
:103DB000BB0729462046FCF7F5FA02460B460020D1
:103DC0000146FCF748FA3A46FCF7CDFB209A02F58B
:103DD000816203C2304641463A46FCF7C4FB209A52
:103DE00002F5406203C2012229462046FCF7BBFBD4
:103DF00000221346FCF72FFA3A46FCF7B4FB209A50
:103E000002F6084203C221B0BDE8F08FE87C00084A
:103E1000E88400082DE9FC5F8846DDE90C568346FE
:103E200091461946684600F06DFA0024BDF800007E
:103E30004FF4B02141430F0C09F12B018BB2A8F1D3
:103E40000101084482B24946404601F095FBDFF883
:103E5000D08059E000220020BDF800302BE0DFF8D0
:103E6000C4C0BDF80210A44411F80CC000214FF0EA
:103E70000109C1F1070A09FA0AFA1AEA0C0F08D077
:103E80004FEA152A08F800A008EB000A8AF801504A
:103E900007E04FEA162A08F800A008EB000A8AF8A3
:103EA0000160491CC9B2801CC0B20829E1D3521C70
:103EB000D2B2641CA4B2B2EBD30FD0D3DFF86890B7
:103EC000B9F8000040F00100A9F8000009F1020073
:103ED000018841F002010180DFF850A04FF6FF7029
:103EE00000EA43020E49DAF80000FEF7F9FADAF8C0
:103EF0000000FEF70AFB0020FDF794F9B9F8000076
:103F000040F00200A9F80000BC42A3D30098CBF80F
:103F10000000BDF80400ABF80400BDE8FC9F000001
:103F2000F80100203E590008180402402800002033
:103F30002DE9FF5F0646DDE90E9A8B461746984647
:103F40000024002515E004EB440000EB0903701980
:103F5000CDE9007881B25A4602A8FFF75BFFBDF8B1
:103F60000800BDF80C10401A2844083085B2641CC3
:103F7000E4B25445E7D3BDE8FF9F00002DE9F34FBD
:103F800091B0ADF5805D054694490978002901D1CD
:103F900000F026F910A92846FFF776FB4FF0000B3A
:103FA00010A800EB0B1ADAE90045DAE902890022D1
:103FB000134640464946FCF73FFB0AD16FF0070223
:103FC00020462946FCF7CFFA06460F460024254630
:103FD00021E00022134620462946FCF72DFB0AD19A
:103FE000002637466FF0070240464946FCF7BBFA09
:103FF00004460D460FE06FF0070220462946FCF705
:10400000B2FA06460F466FF0070240464946FCF7F3
:10401000AAFA04460D46CAE90067CAE902450BF14F
:10402000010BBBF1FF0FBBDD00200E900E98C0EB23
:1040300000210F91491C012944DD01EBD1704FF0A3
:10404000FF3202EB60024FF0010C0E98801C02E080
:104050004FEA0C2C401C0328FADB501CB1EB400F3C
:1040600031D14FF0000800200D9028E00F99404614
:104070004144401C0C9001F101080C9810440A9036
:10408000002117E00C9843185B1E10A800EB0313E7
:10409000D3E90045D3E90267DDF828A08A4400EBA4
:1040A0000A1090E8004EA3E8004EC0E90045C0E9C0
:1040B0000267491C9142E5DD0D98401C0D900D985A
:1040C0006045D3DB4EE000200B900D9047E00F9948
:1040D0000B980144401C0C90491C0B910C9800EB70
:1040E000020810AB03EB0810D0E90045D0E90267E5
:1040F000002125E008EB01090C980844401E0DF151
:10410000400A0AEB00100DF5805A10ABCAF84000C7
:1041100090E8004C03EB0913C06883E8004CD860BA
:104120000DF5805A10AB09F1010903EB0913DAF818
:10413000400093E8000EDB6880E8000EC360491C75
:104140009142D7DD08EB0200401C10A901EB0010E2
:10415000C0E90045C0E902670D98401C0D900D981C
:104160006045B4DB0E98401C0E900E980228FFF6B6
:104170005DAF00242546A0460DF1400909EB08116A
:104180000FC901F093F906460F4622462B463046EA
:104190003946FCF769FA01D234463D4608F1010878
:1041A000B8F1800FEADB0026832707EB460009EB16
:1041B00000110FC901F07AF922462B46FCF764F989
:1041C0000DF58052926C02EBC60203C2761C062EDD
:1041D000EBDB13B00DF5805DBDE8F08F76010020BC
:1041E00010B501F049F902490120087010BD000026
:1041F000760100202DE9F0419446069A0024160A23
:10420000184DD2B24FF470772E5505EB040888F89C
:104210000120A41CBC42F7DB624601F0ADF9124E4E
:10422000308840F001003080B01C018841F002016C
:1042300001800020FCF7F6FF00240C4D4FF4A0781D
:104240003A4608492868FEF74BF9641C4445F7DBF9
:104250002868FEF75AF9308840F002003080BDE847
:10426000F0810000F801002018040240280000201E
:1042700070B514461D460E46002814BF01210021CA
:10428000314321F00041C1F17F6101F1E041C90FEB
:1042900016D1002C14BF01210021294321F0004137
:1042A000C1F17F6101F1E041C90F09D11449B1EBBE
:1042B000460F08BF00281CD0690008BF002C18D08A
:1042C0003146FCF70FFB024640F2FF7030EA115016
:1042D0000DD0F017B0EBE17F09D0084665F31E0062
:1042E00084460B4620466146FCF759F802461046C4
:1042F00070BD0120FFF712F9BDE87040FFF7E8B884
:104300000000E0FF2DE9F0410B78F84A53434A786A
:10431000897802EB4204C4EBC21203EBC2025418C8
:10432000F34FF44AE11B4FF47A7602F1800302F571
:104330008075BC427DD07DDCDFF8BC83DFF8BCC378
:10434000EF4FA4EB0801444575D040DCED4BA4EBE6
:1043500003019C4270D01FDCEB49A4EB01038C42AB
:104360006BD00DDCE949611868D0C91967D0E84BFA
:10437000D9426FD1D1680160118A8180BDE8F08196
:10438000D91968D0DD4B5B42D942F2D1D2F81E1068
:104390000160518C8180F1E7A1EB0C03614576D07F
:1043A0000BDCC91974D0C91973D0F942E1D1D2F824
:1043B00036100160518F8180E0E7D9196AD0F94247
:1043C000D7D1916C0160B2F84C108180D6E7DFF84C
:1043D0004483A1EB080441457BD01ADCA1EB0C031C
:1043E000614577D00BDCC91975D0C91974D0F94271
:1043F000BFD1116E0160B2F864108180BEE7D91997
:104400006BD0F942B5D152F8721F0160918881805A
:10441000B4E7C149671A8C427DD011DCBF496118ED
:104420007AD0BF4BD942A4D1E96A0160298E81803C
:10443000A4E705E110E0D6E0B2E0A6E098E09CE059
:10444000B849791869D0B14293D159680160198986
:10445000818093E7C6E09EE043F2B068A1EB0804D8
:104460004FF47A6C4FF4FA67414573D040DCB1F5F4
:10447000FA5F70D01BDC61456ED00CDCB1426CD0B1
:10448000B9426BD0A1F53061B8398FD1EAE099E03B
:104490008CE091E09CE0A1F59851883973D0B1424D
:1044A00084D1D3F82E100160598E818066E742F6E0
:1044B000F8254C1BA94267D010DCA1F50C51283916
:1044C00073D0B14294D1196C0160B3F8441081806B
:1044D00054E7A9E09AE08CE091E09DE0B44270D00E
:1044E000BC4285D153F8521F01609988818045E70D
:1044F00041F65838A4EB080144456FD01ADC6445F6
:104500006DD00BDCB4426BD0BC426AD0A4F53064F1
:10451000B83C67D1DEE029E122E18BE0A4F59854B4
:10452000883C72D0B4425DD1D96F0160B3F880107D
:10453000818023E741F270740B1BA14272D00EDC24
:10454000B14270D061454DD1D5F80E100160698A35
:10455000818013E7ACE095E089E078E07CE0B3424D
:1045600074D0BB423ED1296A0160A98C818005E7E5
:10457000116801609188818000E7D2F8061001601F
:1045800051898180FAE678E086E0D2F81210016065
:10459000D18A8180F2E691690160918B8180EDE69C
:1045A000516A0160118D8180E8E670E0D2F82A102E
:1045B0000160D18D8180E1E6116B0160918E818077
:1045C000DCE66FE0D16B0160B2F840108180D5E687
:1045D00052F8421F016091888180CFE6AAE07FE017
:1045E0006CE071E0C8E052F84E1F01609188818054
:1045F000C4E6516D0160B2F858108180BEE652F8F1
:104600005A1F016091888180B8E68DE052F8661FDC
:10461000016091888180B1E6D16E0160B2F87010BE
:104620008180ABE691E08BE0916F0160B2F87C1085
:104630008180A3E652F87E1F0160918881809DE60B
:10464000D3F80A100160D989818097E682E0196960
:104650000160998A818091E6D3F816100160598B28
:1046600081808BE6D9690160198C818086E6D3F858
:1046700022100160D98C818080E6996A0160998D51
:1046800081807BE6596B0160198F818076E6596BDA
:104690000160198F818071E653F8461F0160998887
:1046A00081806BE6D96C0160B3F85010818065E6BB
:1046B000996D0160B3F85C1081805FE653F85E1F6E
:1046C00001609988818059E6596E0160B3F86810DD
:1046D000818053E653F86A1F0160998881804DE616
:1046E000196F0160B3F87410818047E640420F00F3
:1046F000500E680CE857000840B7280300093D0039
:10470000C0BDF0FF80E7BD02005A620200B817FE8C
:104710008072A4FF8096980040C06503C0B4B3FFC8
:10472000807BE1FF8007BFFA53F8761F016099880C
:10473000818023E6D5F802100160E98881801DE6BA
:10474000A9680160A989818018E669690160298BDF
:10475000818013E6D5F81A100160E98B81800DE69F
:10476000D5F826100160698D818007E6D5F83210F2
:104770000160E98E818001E6916F0160B2F87C10E2
:104780008180FBE510B50948018841F020010180D6
:104790000748FCF747FD0548801E018841F02001CD
:1047A0000180BDE810400348FCF73CBD1A080240F8
:1047B00000C31E0020A1070010B5FFF7E3FFE020B3
:1047C00000F09CFF002000F0C1FF072000F0BEFFBA
:1047D000102000F0BBFF092000F0B8FF172000F008
:1047E000B5FF0B2000F0B2FF402000F0AFFF8A20A1
:1047F00000F0ACFF4B2000F0A9FF0A2000F0A6FF5C
:104800000D2000F0A3FF0F2000F0A0FF152000F006
:104810009DFF162000F09AFF0F2000F097FFE12087
:1048200000F06CFF002000F091FF1A2000F08EFFD6
:104830001B2000F08BFF022000F088FF0D2000F00D
:1048400085FF052000F082FF302000F07FFF35203B
:1048500000F07CFF432000F079FF022000F076FF9B
:104860000A2000F073FF092000F070FF322000F0F2
:104870006DFF362000F06AFF0F2000F067FFB120C7
:1048800000F03CFFA02000F061FFB42000F036FFF4
:10489000022000F05BFFC02000F030FF172000F086
:1048A00055FF152000F052FFC12000F027FF4120E6
:1048B00000F04CFFC52000F021FF002000F046FF73
:1048C0000A2000F043FF802000F040FFB62000F0F7
:1048D00015FF022000F03AFF362000F00FFF4820BD
:1048E00000F034FF3A2000F009FF552000F02EFFC1
:1048F000E92000F003FF002000F028FFF72000F07F
:10490000FDFEA92000F022FF512000F01FFF2C2007
:1049100000F01CFF822000F019FF112000F0EEFED5
:104920000448FCF77FFC292000F0E8FEBDE81040B9
:1049300000F024B8009E33011CB5FEF7ABFA442208
:104940000CA101A8FEF73CFD0B4800680090FCF7A5
:10495000C5FBFCF7B9F80020FCF750F90120FCF783
:104960004DF9FDF75FFDFDF76BFB01210020FCF722
:1049700087F9FEE725750000E45700080248018822
:1049800041F0100101807047180802402DE9F04DF8
:104990001D460C4698B0174621F0004123F0004315
:1049A000002814BF4FF0010C4FF0000C0CEB440C2E
:1049B000FE4A0CEB02064FEA620C66452BD33E0022
:1049C00018BF012606EB45061644F94A964222D343
:1049D000F84A53EA070C02D0944205D148B918B0FE
:1049E00000201146BDE8F08D002808BF4FF0000CF4
:1049F00001D04FF0010C0CEB440212F5001F0AD855
:104A0000002F14BF4FF0010C4FF0000C0CEB4502CF
:104A100012F5001F07D918B03A462B462146BDE8CB
:104A2000F04DFEF753BD0022DFF88CA3002CB8BF79
:104A3000534526DADFF884C36345A8BF022220DA93
:104A4000DFF870C39C451CDCDFF874C30CEB235CFF
:104A5000BCF1140F08DDCCF1340627FA06FC0CFA81
:104A600006F6BE420DD108E05FB9CCF1140623FA78
:104A700006FC0CFA06F69E4203D10CF00102C2F1CC
:104A8000020251EA000C19D1002D17DA002C18BFD0
:104A9000022A01D0012A07D00220FEF73FFD18B0FC
:104AA000BDE8F04DFEF70ABD0220FEF737FDFEF728
:104AB00005FD18B081F00041BDE8F08DB7F1000CA4
:104AC0006CD1534525D104F1804212F5801201BF0B
:104AD00000280020B74918B008BFBDE8F08DB548E0
:104AE000884207DC002DA1BF6046294618B0BDE80A
:104AF000F08D07E0281E05DA80F0004118B060460E
:104B0000BDE8F08DAF497944D1E9000118B0BDE8A6
:104B1000F08DDFF8A0C2634525D1002D1FDA19B151
:104B2000514512D1D8B909E0002840F0EC82A24AE0
:104B3000214618B062F31E01BDE8F08D0020214629
:104B400018B060F31E01BDE8F08D08DA18B02346F6
:104B5000BDE8F04D024600206146FBF795BC18B059
:104B60002146BDE8F08D514518DAB5F1804F0DD0E2
:104B7000A5F1005CBCF1FF5C10D1B4F1000C0DDBC1
:104B800018B06146BDE8F04D00F01FBD234618B0D7
:104B90000246BDE8F04D1946FBF704BC060024F0C0
:104BA000004C3BD1D9B1514533D1002C06DD002D4D
:104BB000A1BF0020514618B0BDE8F08D002C01DDEA
:104BC000002D1BDB002C13DA002D11DB012A4FF026
:104BD000000014BF78497C4918B0BDE8F08D022A66
:104BE00018BF002C0AD0012A08D1002C06DA0AE0EE
:104BF000002CB8BF002D11DA012A04D0002018B013
:104C00000146BDE8F08D18B000204FF00041BDE82E
:104C1000F08DA1F14050B0F17F601AD0012000EB7F
:104C2000E47050EA020421D0624C521E4FF0000B97
:104C3000104304BF4FF0000B644C654883427CDD99
:104C4000644A654893421FDD884217DB002D25DB4F
:104C500037E0002C00DA4AB1022A0CBF01204FF0E5
:104C6000FF3018B0BDE8F04DFBF794BC0120FEF713
:104C700055FC18B0BDE8F04DFEF72ABC4D4A8A42FB
:104C800002DC002D0ADC1CE0814202DA002D18DA79
:104C900004E0484B994220DD002D12DD0220FEF792
:104CA0003DFCFEF71BFC05460E46002253465846C7
:104CB0002146FBF777FB18B066F31E012846BDE8D6
:104CC000F08D0220FEF72AFCFEF710FC0A46214672
:104CD00018B062F31E01BDE8F08D00223046614637
:104CE000FBF75AFB80460E466FF00102FBF73BFCD8
:104CF0004FF05532394BFBF752FB42463346FBF738
:104D000051FB0022364BFBF74AFB824642463346B4
:104D1000049110461946FBF745FB5246049BFBF7EE
:104D200041FB8A4600904FF0C0422E4B4046314630
:104D3000FBF738FB2C4A2B4B00E027E0CDE90601BE
:104D400051460098FBF72EFB82460191274A284BDB
:104D500040463146FBF726FB5246019BFBF71CFB06
:104D600082460B4602460591DDE90601FBF773FA20
:104D7000DDE90623002688463046FBF70DFB524648
:104D8000059BFBF70CFB024600F07EB90020B1F555
:104D9000801F07DA352230466146FBF7E4FB064602
:104DA0006FF0340000EB215024E00000FFFF1F00F3
:104DB000FFFF0F000000F03F0000F07F00004043C5
:104DC00001FCFFFF664700000000F0FF0000F0BF9D
:104DD0000000E0410000F043FFFFEF3F5555D53F95
:104DE0000000E03F4715F73FFE822B6544DF5DF88A
:104DF0000BAE543EA0F2FF300190C1F3130040F01F
:104E00007F6141F040510291FE498842D8BF0020A5
:104E100004DDFD498142C8BF012001DD0D9008E09D
:104E200000200D900198401C01900298A0F5801080
:104E300002900299F54878440B910D9900EBC1005E
:104E4000D0E900230F9330460A920B99FBF7A4FA9E
:104E5000CDE90601DDE90A2130460F9BFBF7FBF99E
:104E600002460B460020EA49FBF70EFB059102467D
:104E70000B460090DDE90601FBF794FA1490E54833
:104E80008A464FF0000878440299006812904FF06B
:104E9000005040EA61010D980F9B01EB804000F546
:104EA000002109910A9A1298FBF776FA32460B9B79
:104EB000FBF775FA42465346FBF774FA0646029131
:104EC00040465146099B129AFBF76CFADDE906232E
:104ED000FBF765FA3246029BFBF75EFA059B009AE8
:104EE000FBF760FA0091149A049053461046194655
:104EF000FBF758FA06460246C7480B4602910621C0
:104F00007844FEF785FACDE90510029B324610463B
:104F10001946FBF747FADDE90532FBF743FA05913D
:104F20000646534640461946149AFBF794F9009BEF
:104F3000049AFBF737FA3246059BFBF78CF9CDE96B
:104F400005104246534610461946FBF72BFA00223D
:104F5000B24B02910A90FBF77EF9DDE90532FBF7CF
:104F60007AF90E464246AD4B4046FBF715FA029BD6
:104F70000A9AFBF711FADDE90532FBF710FA42460F
:104F800002910A90334610465146FBF70BFACDE9E1
:104F900006015346149A02990A98FBF703FA8A46C7
:104FA00002903346424600990498FBF7FBF95346BA
:104FB000029AFBF750F982460B4602460591DDE95D
:104FC0000601FBF748F9DDE906230020884606467E
:104FD000FBF7E2F95246059BFBF7E1F9824609919E
:104FE0004FF060428E4B30464146FBF7DBF90490B0
:104FF00006918C4A8A4B50460999FBF7D3F98246B1
:105000000291894A894B30464146FBF7CBF952461B
:10501000029BFBF720F9864B7B440D9A03EBC203FE
:10502000D3E90023FBF717F90E9007910198FBF7DE
:10503000B1FA0591DDE9061382460E9A0498FBF752
:105040000AF97C4A7A440D9B02EBC303D3E900239F
:1050500000930292FBF7FFF85246059BFBF7FBF823
:105060000026884652463046059BFBF795F9009B83
:10507000029AFBF791F9069B049AFBF78DF9079BBF
:105080000E9AFBF78CF9024600200B460290384638
:105090002946FBF787F9824601912B463846194687
:1050A000029AFBF779F932464346FBF77BF9524601
:1050B000019BFBF7D0F807468A463246434629460D
:1050C0000298FBF76FF905460E463A465346FBF742
:1050D000C2F8594A8846914221DBA8EB020353EA01
:1050E000000210D12A463346FBF756F9CDE90401F8
:1050F000524A534B38465146FBF7ADF8DDE90423DD
:10510000FBF7B2FA21D20220FEF708FAFEF7E6F921
:105110000A46214618B062F31E01BDE8F08D494BE6
:1051200028F000429A4210D3474A08EB020353EAA0
:1051300000027FF4C6AD2A463346FBF72DF93A4606
:105140005346FBF791FA7FF6BCAD0022019228F09E
:1051500000403E493E4A01EB2051824223DA481C7E
:105160004FF4801121FA00F040443A4AC0F30A514A
:105170007A44394BA1F2FF31CB4020EA0303C0F35C
:10518000130040F48010C1F11401C840126801906E
:10519000B8F1000FBCBF4042019028463146FBF7F2
:1051A000FBF805460E462A46334638465146FBF77D
:1051B00052F84FF000084246284B40460591FBF755
:1051C000F1F8CDE90601264A264B40460599FBF742
:1051D000E9F8009102902A46334640460599FBF7CC
:1051E000DBF83A465346FBF7DAF81F4A1F4BFBF74A
:1051F000D9F8009B029AFBF72EF80746884602462C
:105200000B4635E08E9803007AB60B00AE430000E3
:105210000000F03FE6430000144300000000084097
:1052200009C7EE3FFD033ADCF5015B14E02F3EBEFB
:10523000EC410000B041000000009040FE822B6570
:105240004715973C00CC904000346F3F01FCFFFFB6
:105250000000E03FFC400000FFFF0F00432EE63F50
:10526000396CA80C615C20BEEF39FAFE422EE63F95
:10527000DDE90601FAF7EFFFDDE9062305460E46F4
:10528000FBF78AF83A464346FBF789F80F462A4669
:105290003346009010461946FBF784F882460246D2
:1052A0002E4888460B4605217844FEF7B1F8524651
:1052B0004346FBF777F82A463346FBF770F88046FB
:1052C0008A463B4628463146009AFBF76BF83B4638
:1052D000009AFAF7C0FF0691009000224FF0804339
:1052E00040465146FBF758F80F460C90424653464D
:1052F00028463146FBF756F83B460C9AFBF7C4F8B4
:10530000069B009AFBF748F82A463346FBF744F819
:105310000022134BFBF743F8054601980E4601EBBC
:1053200000510815002810DC28463146019AFBF789
:105330001AF9FEF759F8042808BFFEF7D7F82846EF
:105340003146019AFBF70FF905460B4618B02A467D
:1053500058462146BDE8F04DFBF724B89C3F0000BD
:105360000000F03F3EB500200146012202929DF868
:105370000820012A01D0012200E00022074C00236E
:105380003AB1012A03D100940193DDE9000103B091
:1053900030BD01940093DDE90001F8E70000F07FE3
:1053A0004FF0FF40704700003EB50020014601224B
:1053B00002929DF80820012A01D0012200E000227B
:1053C000074C00233AB1012A03D100940193DDE98F
:1053D000000103B030BD01940093DDE90001F8E75E
:1053E0000000F0FF00487047000080FF0EB500206D
:1053F0000146012202929DF80820012A01D00122D3
:1054000000E0002252B1012A06D16FF00040009066
:10541000901E0190DDE9000103B000BD034801903A
:1054200000200090DDE90001F6E700000000F8FF31
:105430000CB500200190012000909DF8000001288B
:1054400001D0012000E0002010B1012806D102E0C7
:105450000348019002E06FF00040019001980CBDFC
:105460000000C0FF10B502460B46FBF7E5F801D07F
:10547000012010BD002010BD10B5FFF7B7FF0A4C8A
:10548000C4E90801FFF7D4FFA060FFF76BFFC4E990
:105490000401FFF785FF2060FFF786FFC4E90601DE
:1054A000FFF7A0FF606010BD780100202DE9F041FA
:1054B000DFF8B480044621F00045164623F000478B
:1054C00032463B4620462946FBF7B6F819D232460B
:1054D0003B4620462946FAF7D7FF04460D462246AA
:1054E0002B4620462946FAF75DFF00224346FAF78D
:1054F000B2FE00F06AF832463B46BDE8F041FAF7EA
:1055000051BF32463B4620462946FBF7ADF819D23B
:1055100022462B4630463946FAF7B6FF06460F4676
:1055200032463B4630463946FAF73CFF00224346B6
:10553000FAF791FE00F049F822462B46BDE8F0410B
:10554000FAF730BF30463946FFF78CFF18B10749EC
:1055500003C9BDE8F08120462946BDE8F041044A70
:10556000044BFAF71FBF00000000F03F9801002035
:10557000CD3B7F669EA0F63F2DE9F04104460D46E7
:1055800016461F462A2000F0B9F8200A00F0DEF87F
:10559000E0B200F0DBF8300A00F0D8F8F0B200F02A
:1055A000D5F82B2000F0AAF8280A00F0CFF8E8B2CE
:1055B00000F0CCF8380A00F0C9F8F8B200F0C6F8EC
:1055C000BDE8F0412C2000F099B82DE9F0410646E5
:1055D0000F46FBF736F9041E0D4618BF012028437D
:1055E00020F00040C0F17F6000F1E040C00F0ED01D
:1055F000301C18BF0120384320F00040C0F17F600C
:1056000000F1E040C00F04BF0120FDF787FF2046F6
:105610002946BDE8F0810000102949D2DFE801F0F9
:10562000080C1014181C2024282C3034383C40441A
:10563000014621A0FBF7CABC014620A0FBF7C6BC6F
:1056400001461FA0FBF7C2BC01461EA0FBF7BEBC73
:1056500001461DA0FBF7BABC01461CA0FBF7B6BC77
:1056600001461BA0FBF7B2BC01461AA0FBF7AEBC7B
:10567000014619A0FBF7AABC014618A0FBF7A6BC7F
:10568000014617A0FBF7A2BC014616A0FBF79EBC83
:10569000014615A0FBF79ABC014614A0FBF796BC87
:1056A000014613A0FBF792BC014612A0FBF78EBC8B
:1056B000014611A0FBF78ABC300000003100000059
:1056C000320000003300000034000000350000000C
:1056D00036000000370000003800000039000000EC
:1056E000D0900000D0920000D0A100004400000043
:1056F000D0950000460000003F00000031B5114881
:10570000018841F001010180018841F0020101801E
:105710000020FBF787FD0C4C012269462068FCF74E
:10572000DFFE2068FCF7F1FE0020FBF77BFD05485B
:10573000801E018841F0020101800020FBF772FD0C
:1057400038BD00001A0402402800002031B5104C7A
:10575000208840F001002080A01C018841F0020157
:1057600001800020FBF75EFD0A4D01226946286892
:10577000FCF7B6FE2868FCF7C8FE0020FBF752FDD8
:10578000208840F0020020800020FBF74BFD38BD50
:10579000180402402800002000000100070609024A
:1057A0000A03070740002000020001000002040075
:1057B00000040800100000001000000001000000BC
:1057C00001000000020000000100000010000000C5
:1057D00000000200010000000100000001000000C4
:1057E000010000007800000010000000020010001E
:1057F000580007001000B00007001800080107005B
:1058000018008C0106002000100200001000C002E9
:1058100007002000180300002000C8030000180043
:10582000780406002000FC0400002000AC05000005
:1058300020005C06000020000C0700002000BC07D0
:10584000000020006C08000020001C09000020005F
:10585000CC09000010007C0A07001000D40A0700E1
:1058600020002C0B00002000DC0B000020008C0C22
:10587000000020003C0D00002000EC0D000028007E
:105880009C0E00002000780F00003000281000005F
:105890002000301100002000E011000020009012D4
:1058A000000028004013040028001C1403002000FE
:1058B000F81400002000A815000020005816000071
:1058C0002000081700002000B8170000200068180A
:1058D00000002000181900002800C819030020004B
:1058E000A41A00002800541B04002000301C0000F3
:1058F0003000E01C02003000E81D03002000F01E14
:1059000000003000A01F03002000A820000020009D
:10591000582100002000082200002000B8220600C4
:10592000D09D00D09A0000003F00003F0000000022
:105930003F00003F000000003F00003F000000006B
:105940000000000000000000000000000000000057
:105950000000000000000000000000000000000047
:105960000000000000000000000000000000000037
:105970000000000000000000000000000000000027
:105980000000000000000000000000000000000017
:105990000000000000000000FF80FF80FF80FF800B
:1059A000FF80FF80FF80FF80FF80FF80FF80FF80FF
:1059B000FF80FF80FF80FF80FF80FF80FF80FF80EF
:1059C000FF80FF80FF80FF80FF80FF80FF80FF80DF
:1059D000FF0000000000000000000000FF80FF80CA
:1059E000FF80FF80FF80FF80FF80FF80FF8000003E
:1059F000FF80FF80FF80FF80FF80FF80FF80FF80AF
:105A0000FF80FF80FF80FF80FF80FF80000000009C
:105A10000000000000000000000000000000000086
:105A20000000000000000000000000000000000076
:105A30000000000000000000000000000000000066
:105A40000000000000000000001FFF801FFF801FFB
:105A5000FF80FFFF80FFFF80FFFF80FFFF80FFFFD1
:105A600080FFFF80FF8000FF8000FF8000FF80003C
:105A7000FF8000FF8000FF8000FF8000FF8000FFAC
:105A80008000FF8000FF8000FF8000FF8000FF801B
:105A900000FF8000FF8000FF8000FF8000FF80008B
:105AA000FF8000FF8000FF8000FF8000FF8000FF7C
:105AB000FF80FFFF80FFFF80FFFF80FFFF80FFFF71
:105AC000801FFF801FFF801FFF80000000FFFE007F
:105AD000FFFE00FFFE00FFFFC0FFFFC0FFFFC0FF93
